{"src/contracts/LottoMojiFun.sol":{"LottoMojiFun":{"abi":[{"inputs":[{"internalType":"address","name":"_usdcToken","type":"address"},{"internalType":"address","name":"_devWallet","type":"address"}],"stateMutability":"nonpayable","type":"constructor"},{"inputs":[{"internalType":"address","name":"owner","type":"address"}],"name":"OwnableInvalidOwner","type":"error"},{"inputs":[{"internalType":"address","name":"account","type":"address"}],"name":"OwnableUnauthorizedAccount","type":"error"},{"inputs":[],"name":"ReentrancyGuardReentrantCall","type":"error"},{"anonymous":false,"inputs":[{"indexed":false,"internalType":"uint256","name":"amount","type":"uint256"}],"name":"DevFeesWithdrawn","type":"event"},{"anonymous":false,"inputs":[{"indexed":true,"internalType":"uint256","name":"drawId","type":"uint256"},{"indexed":false,"internalType":"string[]","name":"winningEmojis","type":"string[]"},{"indexed":false,"internalType":"uint256","name":"prizePool","type":"uint256"},{"indexed":false,"internalType":"uint256","name":"timestamp","type":"uint256"}],"name":"DrawCompleted","type":"event"},{"anonymous":false,"inputs":[{"indexed":true,"internalType":"address","name":"previousOwner","type":"address"},{"indexed":true,"internalType":"address","name":"newOwner","type":"address"}],"name":"OwnershipTransferred","type":"event"},{"anonymous":false,"inputs":[{"indexed":true,"internalType":"uint256","name":"ticketId","type":"uint256"},{"indexed":true,"internalType":"address","name":"winner","type":"address"},{"indexed":false,"internalType":"uint256","name":"amount","type":"uint256"},{"indexed":false,"internalType":"uint256","name":"prizeCategory","type":"uint256"}],"name":"PrizeClaimed","type":"event"},{"anonymous":false,"inputs":[{"indexed":false,"internalType":"uint256","name":"amount","type":"uint256"}],"name":"ReservePoolUpdated","type":"event"},{"anonymous":false,"inputs":[{"indexed":true,"internalType":"uint256","name":"ticketId","type":"uint256"},{"indexed":true,"internalType":"address","name":"buyer","type":"address"},{"indexed":false,"internalType":"uint256","name":"fid","type":"uint256"},{"indexed":false,"internalType":"string[]","name":"emojis","type":"string[]"},{"indexed":false,"internalType":"uint256","name":"drawId","type":"uint256"}],"name":"TicketPurchased","type":"event"},{"inputs":[],"name":"DEV_FEE_PERCENT","outputs":[{"internalType":"uint256","name":"","type":"uint256"}],"stateMutability":"view","type":"function"},{"inputs":[],"name":"FIRST_PRIZE_PERCENT","outputs":[{"internalType":"uint256","name":"","type":"uint256"}],"stateMutability":"view","type":"function"},{"inputs":[],"name":"MAX_EMOJIS_PER_TICKET","outputs":[{"internalType":"uint256","name":"","type":"uint256"}],"stateMutability":"view","type":"function"},{"inputs":[],"name":"RESERVE_POOL_PERCENT","outputs":[{"internalType":"uint256","name":"","type":"uint256"}],"stateMutability":"view","type":"function"},{"inputs":[],"name":"SECOND_PRIZE_PERCENT","outputs":[{"internalType":"uint256","name":"","type":"uint256"}],"stateMutability":"view","type":"function"},{"inputs":[],"name":"THIRD_PRIZE_PERCENT","outputs":[{"internalType":"uint256","name":"","type":"uint256"}],"stateMutability":"view","type":"function"},{"inputs":[],"name":"TICKET_PRICE","outputs":[{"internalType":"uint256","name":"","type":"uint256"}],"stateMutability":"view","type":"function"},{"inputs":[],"name":"accumulatedDevFees","outputs":[{"internalType":"uint256","name":"","type":"uint256"}],"stateMutability":"view","type":"function"},{"inputs":[{"internalType":"string[]","name":"emojis","type":"string[]"},{"internalType":"uint256","name":"fid","type":"uint256"}],"name":"buyTicket","outputs":[],"stateMutability":"nonpayable","type":"function"},{"inputs":[{"internalType":"uint256","name":"ticketId","type":"uint256"}],"name":"checkTicketPrizeCategory","outputs":[{"internalType":"uint256","name":"prizeCategory","type":"uint256"}],"stateMutability":"view","type":"function"},{"inputs":[{"internalType":"uint256","name":"ticketId","type":"uint256"}],"name":"claimPrize","outputs":[],"stateMutability":"nonpayable","type":"function"},{"inputs":[{"internalType":"string[]","name":"winningEmojis","type":"string[]"},{"internalType":"bytes32","name":"randomSeed","type":"bytes32"}],"name":"completeDraw","outputs":[],"stateMutability":"nonpayable","type":"function"},{"inputs":[],"name":"currentDrawId","outputs":[{"internalType":"uint256","name":"","type":"uint256"}],"stateMutability":"view","type":"function"},{"inputs":[],"name":"devWallet","outputs":[{"internalType":"address","name":"","type":"address"}],"stateMutability":"view","type":"function"},{"inputs":[{"internalType":"uint256","name":"","type":"uint256"},{"internalType":"uint256","name":"","type":"uint256"}],"name":"drawTickets","outputs":[{"internalType":"uint256","name":"","type":"uint256"}],"stateMutability":"view","type":"function"},{"inputs":[{"internalType":"uint256","name":"","type":"uint256"}],"name":"draws","outputs":[{"internalType":"uint256","name":"id","type":"uint256"},{"internalType":"uint256","name":"prizePool","type":"uint256"},{"internalType":"uint256","name":"timestamp","type":"uint256"},{"internalType":"bool","name":"completed","type":"bool"},{"internalType":"uint256","name":"firstPrizeWinners","type":"uint256"},{"internalType":"uint256","name":"secondPrizeWinners","type":"uint256"},{"internalType":"uint256","name":"thirdPrizeWinners","type":"uint256"},{"internalType":"uint256","name":"fourthPrizeWinners","type":"uint256"}],"stateMutability":"view","type":"function"},{"inputs":[{"internalType":"uint256","name":"","type":"uint256"},{"internalType":"uint256","name":"","type":"uint256"}],"name":"firstPrizeWinners","outputs":[{"internalType":"address","name":"","type":"address"}],"stateMutability":"view","type":"function"},{"inputs":[{"internalType":"uint256","name":"","type":"uint256"},{"internalType":"uint256","name":"","type":"uint256"}],"name":"fourthPrizeWinners","outputs":[{"internalType":"address","name":"","type":"address"}],"stateMutability":"view","type":"function"},{"inputs":[{"internalType":"uint256","name":"drawId","type":"uint256"}],"name":"getDrawDetails","outputs":[{"components":[{"internalType":"uint256","name":"id","type":"uint256"},{"internalType":"string[]","name":"winningEmojis","type":"string[]"},{"internalType":"uint256","name":"prizePool","type":"uint256"},{"internalType":"uint256","name":"timestamp","type":"uint256"},{"internalType":"bool","name":"completed","type":"bool"},{"internalType":"uint256","name":"firstPrizeWinners","type":"uint256"},{"internalType":"uint256","name":"secondPrizeWinners","type":"uint256"},{"internalType":"uint256","name":"thirdPrizeWinners","type":"uint256"},{"internalType":"uint256","name":"fourthPrizeWinners","type":"uint256"}],"internalType":"struct LottoMojiFun.DrawResult","name":"","type":"tuple"}],"stateMutability":"view","type":"function"},{"inputs":[],"name":"getReservePoolBalance","outputs":[{"internalType":"uint256","name":"","type":"uint256"}],"stateMutability":"view","type":"function"},{"inputs":[{"internalType":"uint256","name":"ticketId","type":"uint256"}],"name":"getTicketDetails","outputs":[{"components":[{"internalType":"uint256","name":"id","type":"uint256"},{"internalType":"address","name":"owner","type":"address"},{"internalType":"string[]","name":"emojis","type":"string[]"},{"internalType":"uint256","name":"drawId","type":"uint256"},{"internalType":"bool","name":"claimed","type":"bool"},{"internalType":"uint256","name":"timestamp","type":"uint256"},{"internalType":"uint256","name":"fid","type":"uint256"}],"internalType":"struct LottoMojiFun.Ticket","name":"","type":"tuple"}],"stateMutability":"view","type":"function"},{"inputs":[{"internalType":"uint256","name":"drawId","type":"uint256"},{"internalType":"address","name":"user","type":"address"}],"name":"getUserDrawTickets","outputs":[{"internalType":"uint256[]","name":"","type":"uint256[]"}],"stateMutability":"view","type":"function"},{"inputs":[{"internalType":"address","name":"user","type":"address"}],"name":"getUserTickets","outputs":[{"internalType":"uint256[]","name":"","type":"uint256[]"}],"stateMutability":"view","type":"function"},{"inputs":[{"internalType":"uint256","name":"drawId","type":"uint256"}],"name":"getWinnersCount","outputs":[{"internalType":"uint256","name":"firstWinners","type":"uint256"},{"internalType":"uint256","name":"secondWinners","type":"uint256"},{"internalType":"uint256","name":"thirdWinners","type":"uint256"},{"internalType":"uint256","name":"fourthWinners","type":"uint256"}],"stateMutability":"view","type":"function"},{"inputs":[{"internalType":"uint256","name":"","type":"uint256"},{"internalType":"address","name":"","type":"address"}],"name":"hasClaimedPrize","outputs":[{"internalType":"bool","name":"","type":"bool"}],"stateMutability":"view","type":"function"},{"inputs":[],"name":"nextTicketId","outputs":[{"internalType":"uint256","name":"","type":"uint256"}],"stateMutability":"view","type":"function"},{"inputs":[],"name":"owner","outputs":[{"internalType":"address","name":"","type":"address"}],"stateMutability":"view","type":"function"},{"inputs":[{"internalType":"uint256","name":"","type":"uint256"}],"name":"prizePoolForDraw","outputs":[{"internalType":"uint256","name":"","type":"uint256"}],"stateMutability":"view","type":"function"},{"inputs":[],"name":"renounceOwnership","outputs":[],"stateMutability":"nonpayable","type":"function"},{"inputs":[],"name":"reservePool","outputs":[{"internalType":"uint256","name":"","type":"uint256"}],"stateMutability":"view","type":"function"},{"inputs":[{"internalType":"uint256","name":"","type":"uint256"},{"internalType":"uint256","name":"","type":"uint256"}],"name":"secondPrizeWinners","outputs":[{"internalType":"address","name":"","type":"address"}],"stateMutability":"view","type":"function"},{"inputs":[{"internalType":"address","name":"_newDevWallet","type":"address"}],"name":"setDevWallet","outputs":[],"stateMutability":"nonpayable","type":"function"},{"inputs":[{"internalType":"uint256","name":"","type":"uint256"},{"internalType":"uint256","name":"","type":"uint256"}],"name":"thirdPrizeWinners","outputs":[{"internalType":"address","name":"","type":"address"}],"stateMutability":"view","type":"function"},{"inputs":[{"internalType":"uint256","name":"","type":"uint256"}],"name":"tickets","outputs":[{"internalType":"uint256","name":"id","type":"uint256"},{"internalType":"address","name":"owner","type":"address"},{"internalType":"uint256","name":"drawId","type":"uint256"},{"internalType":"bool","name":"claimed","type":"bool"},{"internalType":"uint256","name":"timestamp","type":"uint256"},{"internalType":"uint256","name":"fid","type":"uint256"}],"stateMutability":"view","type":"function"},{"inputs":[],"name":"totalTicketsSold","outputs":[{"internalType":"uint256","name":"","type":"uint256"}],"stateMutability":"view","type":"function"},{"inputs":[{"internalType":"address","name":"newOwner","type":"address"}],"name":"transferOwnership","outputs":[],"stateMutability":"nonpayable","type":"function"},{"inputs":[],"name":"usdcToken","outputs":[{"internalType":"contract IERC20","name":"","type":"address"}],"stateMutability":"view","type":"function"},{"inputs":[{"internalType":"uint256","name":"","type":"uint256"},{"internalType":"address","name":"","type":"address"},{"internalType":"uint256","name":"","type":"uint256"}],"name":"userDrawTickets","outputs":[{"internalType":"uint256","name":"","type":"uint256"}],"stateMutability":"view","type":"function"},{"inputs":[{"internalType":"address","name":"","type":"address"},{"internalType":"uint256","name":"","type":"uint256"}],"name":"userTickets","outputs":[{"internalType":"uint256","name":"","type":"uint256"}],"stateMutability":"view","type":"function"},{"inputs":[],"name":"withdrawDevFees","outputs":[],"stateMutability":"nonpayable","type":"function"}],"evm":{"bytecode":{"linkReferences":{},"object":"60806040523480156200001157600080fd5b5060405162002c0238038062002c0283398101604081905262000034916200011c565b33806200005b57604051631e4fbdf760e01b81526000600482015260240160405180910390fd5b6200006681620000af565b506001808055600280546001600160a01b039485166001600160a01b03199182161790915560038054939094169216919091179091556004819055600555600060085562000154565b600080546001600160a01b038381166001600160a01b0319831681178455604051919092169283917f8be0079c531659141344cd1fd0a4f28419497f9722a3daafe3b4186f6b6457e09190a35050565b80516001600160a01b03811681146200011757600080fd5b919050565b600080604083850312156200013057600080fd5b6200013b83620000ff565b91506200014b60208401620000ff565b90509250929050565b612a9e80620001646000396000f3fe608060405234801561001057600080fd5b50600436106102485760003560e01c8063782a51ae1161013b578063bab75629116100b8578063c08f53d31161007c578063c08f53d3146105c2578063cf260baf14610600578063d5a962e414610613578063d709815414610633578063f2fde38b1461064657600080fd5b8063bab756291461057e578063bb0f062114610591578063bca78fab14610599578063be92d86814610591578063beb26dc2146105a257600080fd5b80638da5cb5b116100ff5780638da5cb5b1461053f5780638ea5220f146105505780639f92f4b614610563578063a051e53d14610483578063a2d9890b1461056b57600080fd5b8063782a51ae146104f55780637cdd2093146105085780637f368b9b146105105780638a3748ae146105195780638beee7b41461052c57600080fd5b80632b4c45c2116101c957806354f06b181161018d57806354f06b18146104705780635e6a645e146104835780636031a52f1461048b57806369894cf714610494578063715018a6146104ed57600080fd5b80632b4c45c2146103b157806334701db8146103c4578063376c2bbe146103cd5780633b8d5b86146103e057806350b44712146103e857600080fd5b80630da590d4116102105780630da590d41461035757806311eac855146103615780631a95f15f146103745780631f53ac021461037e57806324c141601461039157600080fd5b80630266f0441461024d57806303b8e18c146102695780630484a22f146102945780630a0d8587146102b45780630cc36c36146102c7575b600080fd5b61025660085481565b6040519081526020015b60405180910390f35b61027c610277366004612348565b610659565b6040516001600160a01b039091168152602001610260565b6102a76102a2366004612386565b610691565b60405161026091906123a8565b6102a76102c23660046123ec565b6106fd565b61031c6102d5366004612418565b6009602052600090815260409020805460028201546003830154600484015460058501546006860154600787015460089097015495969495939460ff909316939192909188565b604080519889526020890197909752958701949094529115156060860152608085015260a084015260c083015260e082015261010001610260565b61035f610772565b005b60025461027c906001600160a01b031681565b610256620f424081565b61035f61038c366004612386565b6108ec565b6103a461039f366004612418565b610961565b60405161026091906124b9565b6102566103bf366004612418565b610ae9565b61025660065481565b6102566103db366004612348565b610ea5565b600854610256565b6104396103f6366004612418565b600a6020526000908152604090208054600182015460038301546004840154600585015460069095015493946001600160a01b0390931693919260ff9091169186565b604080519687526001600160a01b0390951660208701529385019290925215156060840152608083015260a082015260c001610260565b61027c61047e366004612348565b610ed6565b610256600581565b61025660055481565b6104cd6104a2366004612418565b6000908152600960205260409020600581015460068201546007830154600890930154919390929190565b604080519485526020850193909352918301526060820152608001610260565b61035f610ef2565b61027c610503366004612348565b610f04565b610256600481565b61025660075481565b61027c610527366004612348565b610f20565b61025661053a366004612528565b610f3c565b6000546001600160a01b031661027c565b60035461027c906001600160a01b031681565b610256604681565b61035f610579366004612699565b610f7a565b61035f61058c366004612699565b611354565b610256600a81565b61025660045481565b6102566105b0366004612418565b600e6020526000908152604090205481565b6105f06105d03660046123ec565b601360209081526000928352604080842090915290825290205460ff1681565b6040519015158152602001610260565b61025661060e3660046126de565b61194f565b610626610621366004612418565b61196b565b6040516102609190612708565b61035f610641366004612418565b611b10565b61035f610654366004612386565b611f19565b6011602052816000526040600020818154811061067557600080fd5b6000918252602090912001546001600160a01b03169150829050565b6001600160a01b0381166000908152600c60209081526040918290208054835181840281018401909452808452606093928301828280156106f157602002820191906000526020600020905b8154815260200190600101908083116106dd575b50505050509050919050565b6000828152600d602090815260408083206001600160a01b038516845282529182902080548351818402810184019094528084526060939283018282801561076457602002820191906000526020600020905b815481526020019060010190808311610750575b505050505090505b92915050565b61077a611f54565b610782611f81565b600754806107d75760405162461bcd60e51b815260206004820152601e60248201527f4e6f2068617920636f6d6973696f6e657320706172612072657469726172000060448201526064015b60405180910390fd5b600060075560025460035460405163a9059cbb60e01b81526001600160a01b0391821660048201526024810184905291169063a9059cbb906044016020604051808303816000875af1158015610831573d6000803e3d6000fd5b505050506040513d601f19601f820116820180604052508101906108559190612791565b6108ad5760405162461bcd60e51b8152602060048201526024808201527f46616c6c6f206c61207472616e73666572656e63696120646520636f6d6973696044820152636f6e657360e01b60648201526084016107ce565b6040518181527f5ee59e571657de6134a3216f04d5e881a8fc74ce6ad9eee2a9b26243270dbf889060200160405180910390a1506108ea60018055565b565b6108f4611f54565b6001600160a01b03811661093f5760405162461bcd60e51b8152602060048201526012602482015271446972656363696f6e20696e76616c69646160701b60448201526064016107ce565b600380546001600160a01b0319166001600160a01b0392909216919091179055565b6109ac6040518060e001604052806000815260200160006001600160a01b03168152602001606081526020016000815260200160001515815260200160008152602001600081525090565b6000828152600a60209081526040808320815160e0810183528154815260018201546001600160a01b031681850152600282018054845181870281018701865281815292969395948701949293919290919084015b82821015610aad578382906000526020600020018054610a20906127b3565b80601f0160208091040260200160405190810160405280929190818152602001828054610a4c906127b3565b8015610a995780601f10610a6e57610100808354040283529160200191610a99565b820191906000526020600020905b815481529060010190602001808311610a7c57829003601f168201915b505050505081526020019060010190610a01565b5050509082525060038201546020820152600482015460ff16151560408201526005820154606082015260069091015460809091015292915050565b6000818152600a602052604081208054610b385760405162461bcd60e51b815260206004820152601060248201526f5469636b6574206e6f2065786973746560801b60448201526064016107ce565b600381015460009081526009602052604090206004015460ff16610b995760405162461bcd60e51b8152602060048201526018602482015277536f7274656f2061756e206e6f20636f6d706c657461646f60401b60448201526064016107ce565b60006009600083600301548152602001908152602001600020600101805480602002602001604051908101604052809291908181526020016000905b82821015610c81578382906000526020600020018054610bf4906127b3565b80601f0160208091040260200160405190810160405280929190818152602001828054610c20906127b3565b8015610c6d5780601f10610c4257610100808354040283529160200191610c6d565b820191906000526020600020905b815481529060010190602001808311610c5057829003601f168201915b505050505081526020019060010190610bd5565b5050505090506000610d6683600201805480602002602001604051908101604052809291908181526020016000905b82821015610d5c578382906000526020600020018054610ccf906127b3565b80601f0160208091040260200160405190810160405280929190818152602001828054610cfb906127b3565b8015610d485780601f10610d1d57610100808354040283529160200191610d48565b820191906000526020600020905b815481529060010190602001808311610d2b57829003601f168201915b505050505081526020019060010190610cb0565b5050505083611fab565b90506000610e4784600201805480602002602001604051908101604052809291908181526020016000905b82821015610e3d578382906000526020600020018054610db0906127b3565b80601f0160208091040260200160405190810160405280929190818152602001828054610ddc906127b3565b8015610e295780601f10610dfe57610100808354040283529160200191610e29565b820191906000526020600020905b815481529060010190602001808311610e0c57829003601f168201915b505050505081526020019060010190610d91565b5050505084612084565b905081600403610e5d5750600195945050505050565b80600403610e715750600295945050505050565b81600303610e855750600395945050505050565b80600303610e995750600495945050505050565b50600095945050505050565b600b6020528160005260406000208181548110610ec157600080fd5b90600052602060002001600091509150505481565b6010602052816000526040600020818154811061067557600080fd5b610efa611f54565b6108ea600061223b565b6012602052816000526040600020818154811061067557600080fd5b600f602052816000526040600020818154811061067557600080fd5b600d6020528260005260406000206020528160005260406000208181548110610f6457600080fd5b9060005260206000200160009250925050505481565b610f82611f81565b6004825114610fe15760405162461bcd60e51b815260206004820152602560248201527f446562652073656c656363696f6e6172206578616374616d656e7465203420656044820152646d6f6a697360d81b60648201526084016107ce565b600081116110205760405162461bcd60e51b815260206004820152600c60248201526b46494420696e76616c69646f60a01b60448201526064016107ce565b6002546040516323b872dd60e01b8152336004820152306024820152620f424060448201526000916001600160a01b0316906323b872dd906064016020604051808303816000875af115801561107a573d6000803e3d6000fd5b505050506040513d601f19601f8201168201806040525081019061109e9190612791565b9050806110ed5760405162461bcd60e51b815260206004820152601e60248201527f46616c6c6f206c61207472616e73666572656e6369612064652055534443000060448201526064016107ce565b60058054600091826110fe83612803565b909155506040805160e08101825282815233602080830191825282840189815260045460608501526000608085018190524260a086015260c085018a9052868152600a8352949094208351815591516001830180546001600160a01b0319166001600160a01b03909216919091179055925180519495509193909261118a92600285019291019061228b565b506060820151600382015560808201516004808301805460ff19169215159290921790915560a083015160058084019190915560c09093015160069092019190915580546000908152600b602090815260408083208054600181810183559185528385200187905533808552600c8452828520805480840182559086528486200188905594548452600d8352818420948452938252822080549384018155825281209091018390559060649061124390620f424061281c565b61124d9190612833565b905060006064611261600a620f424061281c565b61126b9190612833565b905060008161127d84620f4240612855565b6112879190612855565b905080600e6000600454815260200190815260200160002060008282546112ae9190612868565b9250508190555082600760008282546112c79190612868565b9250508190555081600860008282546112e09190612868565b9091555050600680549060006112f583612803565b9190505550336001600160a01b0316847f8f30b489b7eb0548883c9fade87751e457ad778e15262c1e54f2038d676501bb888a60045460405161133a939291906128f5565b60405180910390a3505050505061135060018055565b5050565b61135c611f54565b60048251146113bf5760405162461bcd60e51b815260206004820152602960248201527f44656265206861626572206578616374616d656e7465203420656d6f6a69732060448201526867616e61646f72657360b81b60648201526084016107ce565b6004546000818152600e6020908152604080832054600b83528184208054835181860281018601909452808452919493849384938493849390919083018282801561142957602002820191906000526020600020905b815481526020019060010190808311611415575b5050505050905060005b81518110156117b65760008282815181106114505761145061291e565b602002602001015190506000600a60008381526020019081526020016000209050600061155082600201805480602002602001604051908101604052809291908181526020016000905b828210156115465783829060005260206000200180546114b9906127b3565b80601f01602080910402602001604051908101604052809291908181526020018280546114e5906127b3565b80156115325780601f1061150757610100808354040283529160200191611532565b820191906000526020600020905b81548152906001019060200180831161151557829003601f168201915b50505050508152602001906001019061149a565b505050508e611fab565b9050600061163183600201805480602002602001604051908101604052809291908181526020016000905b8282101561162757838290600052602060002001805461159a906127b3565b80601f01602080910402602001604051908101604052809291908181526020018280546115c6906127b3565b80156116135780601f106115e857610100808354040283529160200191611613565b820191906000526020600020905b8154815290600101906020018083116115f657829003601f168201915b50505050508152602001906001019061157b565b505050508f612084565b90508160040361168f5760008c8152600f60209081526040822060018087015482549182018355918452919092200180546001600160a01b0319166001600160a01b039092169190911790558961168781612803565b9a505061179f565b806004036116eb5760008c8152601060209081526040822060018087015482549182018355918452919092200180546001600160a01b0319166001600160a01b03909216919091179055886116e381612803565b99505061179f565b816003036117475760008c8152601160209081526040822060018087015482549182018355918452919092200180546001600160a01b0319166001600160a01b039092169190911790558761173f81612803565b98505061179f565b8060030361179f5760008c8152601260209081526040822060018087015482549182018355918452919092200180546001600160a01b0319166001600160a01b039092169190911790558661179b81612803565b9750505b5050505080806117ae90612803565b915050611433565b506040518061012001604052808881526020018a8152602001878152602001428152602001600115158152602001868152602001858152602001848152602001838152506009600089815260200190815260200160002060008201518160000155602082015181600101908051906020019061183392919061228b565b50604082015160028201556060820151600382015560808201516004808301805460ff19169215159290921790915560a0830151600583015560c0830151600683015560e0830151600783015561010090920151600890910155805490600061189b83612803565b91905055506000851180156118b257506000600854115b15611908576008546004546000908152600e602090815260408083209390935591519081527f0de3badf77c9ace4411e7fa20ed2e5e76927d886d5d0fbbfc49c7a12b6e47bdc910160405180910390a160006008555b867fbda39ed4dc5bbef986f196e14b57c8077120a47b4f195d52a6edb54e730d617a8a884260405161193c93929190612934565b60405180910390a2505050505050505050565b600c6020528160005260406000208181548110610ec157600080fd5b6119bc60405180610120016040528060008152602001606081526020016000815260200160008152602001600015158152602001600081526020016000815260200160008152602001600081525090565b60096000838152602001908152602001600020604051806101200160405290816000820154815260200160018201805480602002602001604051908101604052809291908181526020016000905b82821015611ab6578382906000526020600020018054611a29906127b3565b80601f0160208091040260200160405190810160405280929190818152602001828054611a55906127b3565b8015611aa25780601f10611a7757610100808354040283529160200191611aa2565b820191906000526020600020905b815481529060010190602001808311611a8557829003601f168201915b505050505081526020019060010190611a0a565b505050908252506002820154602082015260038201546040820152600482015460ff161515606082015260058201546080820152600682015460a0820152600782015460c082015260089091015460e09091015292915050565b611b18611f81565b6000818152600a6020526040902060018101546001600160a01b03163314611b825760405162461bcd60e51b815260206004820152601b60248201527f4e6f206572657320656c206475656e6f2064656c207469636b6574000000000060448201526064016107ce565b600481015460ff1615611bcd5760405162461bcd60e51b81526020600482015260136024820152725072656d696f207961207265636c616d61646f60681b60448201526064016107ce565b600381015460009081526009602052604090206004015460ff16611c2e5760405162461bcd60e51b8152602060048201526018602482015277536f7274656f2061756e206e6f20636f6d706c657461646f60401b60448201526064016107ce565b6003810154600090815260136020908152604080832033845290915290205460ff1615611cae5760405162461bcd60e51b815260206004820152602860248201527f5961207265636c616d6173746520756e207072656d696f2070617261206573746044820152676520736f7274656f60c01b60648201526084016107ce565b6000611cb983610ae9565b905060008111611cff5760405162461bcd60e51b81526020600482015260116024820152702a34b1b5b2ba1037379033b0b730b237b960791b60448201526064016107ce565b60038201546000908152600960205260408120600281015490600184148015611d2c575060008160050154115b15611d5e5760058101546064611d4360468561281c565b611d4d9190612833565b611d579190612833565b9250611dc3565b836002148015611d72575060008160060154115b15611d895760068101546064611d43600a8561281c565b836003148015611d9d575060008160070154115b15611db45760078101546064611d4360058561281c565b83600403611dc357620f424092505b60048581018054600160ff19918216811790925560038801546000908152601360209081526040808320338085529252918290208054909316909317909155600254905163a9059cbb60e01b815292830191909152602482018590526001600160a01b03169063a9059cbb906044016020604051808303816000875af1158015611e51573d6000803e3d6000fd5b505050506040513d601f19601f82011682018060405250810190611e759190612791565b611ecb5760405162461bcd60e51b815260206004820152602160248201527f46616c6c6f206c61207472616e73666572656e6369612064656c207072656d696044820152606f60f81b60648201526084016107ce565b6040805184815260208101869052339188917f64da964e036dd66a7be792791f60a47ec5378950b9d12795de3f453aa3940eb0910160405180910390a35050505050611f1660018055565b50565b611f21611f54565b6001600160a01b038116611f4b57604051631e4fbdf760e01b8152600060048201526024016107ce565b611f168161223b565b6000546001600160a01b031633146108ea5760405163118cdaa760e01b81523360048201526024016107ce565b600260015403611fa457604051633ee5aeb560e01b815260040160405180910390fd5b6002600155565b6000815183511461200a5760405162461bcd60e51b8152602060048201526024808201527f41727261797320646562656e2074656e6572206c61206d69736d61206c6f6e676044820152631a5d1d5960e21b60648201526084016107ce565b60005b835181101561207d578281815181106120285761202861291e565b6020026020010151805190602001208482815181106120495761204961291e565b6020026020010151805190602001200361206b578161206781612803565b9250505b8061207581612803565b91505061200d565b5092915050565b600080835167ffffffffffffffff8111156120a1576120a161255d565b6040519080825280602002602001820160405280156120ca578160200160208202803683370190505b5090506000835167ffffffffffffffff8111156120e9576120e961255d565b604051908082528060200260200182016040528015612112578160200160208202803683370190505b50905060005b8551811015612232578281815181106121335761213361291e565b60200260200101516122205760005b855181101561221e5782818151811061215d5761215d61291e565b602002602001015161220c5785818151811061217b5761217b61291e565b60200260200101518051906020012087838151811061219c5761219c61291e565b6020026020010151805190602001200361220c57846121ba81612803565b95505060018483815181106121d1576121d161291e565b60200260200101901515908115158152505060018382815181106121f7576121f761291e565b9115156020928302919091019091015261221e565b8061221681612803565b915050612142565b505b8061222a81612803565b915050612118565b50505092915050565b600080546001600160a01b038381166001600160a01b0319831681178455604051919092169283917f8be0079c531659141344cd1fd0a4f28419497f9722a3daafe3b4186f6b6457e09190a35050565b8280548282559060005260206000209081019282156122d1579160200282015b828111156122d157825182906122c190826129a8565b50916020019190600101906122ab565b506122dd9291506122e1565b5090565b808211156122dd5760006122f582826122fe565b506001016122e1565b50805461230a906127b3565b6000825580601f1061231a575050565b601f016020900490600052602060002090810190611f1691905b808211156122dd5760008155600101612334565b6000806040838503121561235b57600080fd5b50508035926020909101359150565b80356001600160a01b038116811461238157600080fd5b919050565b60006020828403121561239857600080fd5b6123a18261236a565b9392505050565b6020808252825182820181905260009190848201906040850190845b818110156123e0578351835292840192918401916001016123c4565b50909695505050505050565b600080604083850312156123ff57600080fd5b8235915061240f6020840161236a565b90509250929050565b60006020828403121561242a57600080fd5b5035919050565b600082825180855260208086019550808260051b8401018186016000805b858110156124ab57601f1980888603018b5283518051808752845b81811015612485578281018901518882018a0152880161246a565b5086810188018590529b87019b601f01909116909401850193509184019160010161244f565b509198975050505050505050565b602081528151602082015260018060a01b0360208301511660408201526000604083015160e060608401526124f2610100840182612431565b9050606084015160808401526080840151151560a084015260a084015160c084015260c084015160e08401528091505092915050565b60008060006060848603121561253d57600080fd5b8335925061254d6020850161236a565b9150604084013590509250925092565b634e487b7160e01b600052604160045260246000fd5b604051601f8201601f1916810167ffffffffffffffff8111828210171561259c5761259c61255d565b604052919050565b6000601f83818401126125b657600080fd5b8235602067ffffffffffffffff808311156125d3576125d361255d565b8260051b6125e2838201612573565b93845286810183019383810190898611156125fc57600080fd5b84890192505b8583101561268c5782358481111561261a5760008081fd5b8901603f81018b1361262c5760008081fd5b858101356040868211156126425761264261255d565b612653828b01601f19168901612573565b8281528d828486010111156126685760008081fd5b828285018a8301376000928101890192909252508352509184019190840190612602565b9998505050505050505050565b600080604083850312156126ac57600080fd5b823567ffffffffffffffff8111156126c357600080fd5b6126cf858286016125a4565b95602094909401359450505050565b600080604083850312156126f157600080fd5b6126fa8361236a565b946020939093013593505050565b602081528151602082015260006020830151610120806040850152612731610140850183612431565b91506040850151606085015260608501516080850152608085015161275a60a086018215159052565b5060a085015160c085015260c085015160e085015260e0850151610100818187015280870151838701525050508091505092915050565b6000602082840312156127a357600080fd5b815180151581146123a157600080fd5b600181811c908216806127c757607f821691505b6020821081036127e757634e487b7160e01b600052602260045260246000fd5b50919050565b634e487b7160e01b600052601160045260246000fd5b600060018201612815576128156127ed565b5060010190565b808202811582820484141761076c5761076c6127ed565b60008261285057634e487b7160e01b600052601260045260246000fd5b500490565b8181038181111561076c5761076c6127ed565b8082018082111561076c5761076c6127ed565b600082825180855260208086019550808260051b8401018186016000805b858110156124ab57601f1980888603018b5283518051808752845b818110156128cf578281018901518882018a015288016128b4565b5086810188018590529b87019b601f019091169094018501935091840191600101612899565b83815260606020820152600061290e606083018561287b565b9050826040830152949350505050565b634e487b7160e01b600052603260045260246000fd5b606081526000612947606083018661287b565b60208301949094525060400152919050565b601f8211156129a357600081815260208120601f850160051c810160208610156129805750805b601f850160051c820191505b8181101561299f5782815560010161298c565b5050505b505050565b815167ffffffffffffffff8111156129c2576129c261255d565b6129d6816129d084546127b3565b84612959565b602080601f831160018114612a0b57600084156129f35750858301515b600019600386901b1c1916600185901b17855561299f565b600085815260208120601f198616915b82811015612a3a57888601518255948401946001909101908401612a1b565b5085821015612a585787850151600019600388901b60f8161c191681555b5050505050600190811b0190555056fea26469706673582212204a8e57ddbbc5b257776e9f741ce10ac2b7223b4276e53dc15d88e103f9271fd064736f6c63430008140033","opcodes":"PUSH1 0x80 PUSH1 0x40 MSTORE CALLVALUE DUP1 ISZERO PUSH3 0x11 JUMPI PUSH1 0x0 DUP1 REVERT JUMPDEST POP PUSH1 0x40 MLOAD PUSH3 0x2C02 CODESIZE SUB DUP1 PUSH3 0x2C02 DUP4 CODECOPY DUP2 ADD PUSH1 0x40 DUP2 SWAP1 MSTORE PUSH3 0x34 SWAP2 PUSH3 0x11C JUMP JUMPDEST CALLER DUP1 PUSH3 0x5B JUMPI PUSH1 0x40 MLOAD PUSH4 0x1E4FBDF7 PUSH1 0xE0 SHL DUP2 MSTORE PUSH1 0x0 PUSH1 0x4 DUP3 ADD MSTORE PUSH1 0x24 ADD PUSH1 0x40 MLOAD DUP1 SWAP2 SUB SWAP1 REVERT JUMPDEST PUSH3 0x66 DUP2 PUSH3 0xAF JUMP JUMPDEST POP PUSH1 0x1 DUP1 DUP1 SSTORE PUSH1 0x2 DUP1 SLOAD PUSH1 0x1 PUSH1 0x1 PUSH1 0xA0 SHL SUB SWAP5 DUP6 AND PUSH1 0x1 PUSH1 0x1 PUSH1 0xA0 SHL SUB NOT SWAP2 DUP3 AND OR SWAP1 SWAP2 SSTORE PUSH1 0x3 DUP1 SLOAD SWAP4 SWAP1 SWAP5 AND SWAP3 AND SWAP2 SWAP1 SWAP2 OR SWAP1 SWAP2 SSTORE PUSH1 0x4 DUP2 SWAP1 SSTORE PUSH1 0x5 SSTORE PUSH1 0x0 PUSH1 0x8 SSTORE PUSH3 0x154 JUMP JUMPDEST PUSH1 0x0 DUP1 SLOAD PUSH1 0x1 PUSH1 0x1 PUSH1 0xA0 SHL SUB DUP4 DUP2 AND PUSH1 0x1 PUSH1 0x1 PUSH1 0xA0 SHL SUB NOT DUP4 AND DUP2 OR DUP5 SSTORE PUSH1 0x40 MLOAD SWAP2 SWAP1 SWAP3 AND SWAP3 DUP4 SWAP2 PUSH32 0x8BE0079C531659141344CD1FD0A4F28419497F9722A3DAAFE3B4186F6B6457E0 SWAP2 SWAP1 LOG3 POP POP JUMP JUMPDEST DUP1 MLOAD PUSH1 0x1 PUSH1 0x1 PUSH1 0xA0 SHL SUB DUP2 AND DUP2 EQ PUSH3 0x117 JUMPI PUSH1 0x0 DUP1 REVERT JUMPDEST SWAP2 SWAP1 POP JUMP JUMPDEST PUSH1 0x0 DUP1 PUSH1 0x40 DUP4 DUP6 SUB SLT ISZERO PUSH3 0x130 JUMPI PUSH1 0x0 DUP1 REVERT JUMPDEST PUSH3 0x13B DUP4 PUSH3 0xFF JUMP JUMPDEST SWAP2 POP PUSH3 0x14B PUSH1 0x20 DUP5 ADD PUSH3 0xFF JUMP JUMPDEST SWAP1 POP SWAP3 POP SWAP3 SWAP1 POP JUMP JUMPDEST PUSH2 0x2A9E DUP1 PUSH3 0x164 PUSH1 0x0 CODECOPY PUSH1 0x0 RETURN INVALID PUSH1 0x80 PUSH1 0x40 MSTORE CALLVALUE DUP1 ISZERO PUSH2 0x10 JUMPI PUSH1 0x0 DUP1 REVERT JUMPDEST POP PUSH1 0x4 CALLDATASIZE LT PUSH2 0x248 JUMPI PUSH1 0x0 CALLDATALOAD PUSH1 0xE0 SHR DUP1 PUSH4 0x782A51AE GT PUSH2 0x13B JUMPI DUP1 PUSH4 0xBAB75629 GT PUSH2 0xB8 JUMPI DUP1 PUSH4 0xC08F53D3 GT PUSH2 0x7C JUMPI DUP1 PUSH4 0xC08F53D3 EQ PUSH2 0x5C2 JUMPI DUP1 PUSH4 0xCF260BAF EQ PUSH2 0x600 JUMPI DUP1 PUSH4 0xD5A962E4 EQ PUSH2 0x613 JUMPI DUP1 PUSH4 0xD7098154 EQ PUSH2 0x633 JUMPI DUP1 PUSH4 0xF2FDE38B EQ PUSH2 0x646 JUMPI PUSH1 0x0 DUP1 REVERT JUMPDEST DUP1 PUSH4 0xBAB75629 EQ PUSH2 0x57E JUMPI DUP1 PUSH4 0xBB0F0621 EQ PUSH2 0x591 JUMPI DUP1 PUSH4 0xBCA78FAB EQ PUSH2 0x599 JUMPI DUP1 PUSH4 0xBE92D868 EQ PUSH2 0x591 JUMPI DUP1 PUSH4 0xBEB26DC2 EQ PUSH2 0x5A2 JUMPI PUSH1 0x0 DUP1 REVERT JUMPDEST DUP1 PUSH4 0x8DA5CB5B GT PUSH2 0xFF JUMPI DUP1 PUSH4 0x8DA5CB5B EQ PUSH2 0x53F JUMPI DUP1 PUSH4 0x8EA5220F EQ PUSH2 0x550 JUMPI DUP1 PUSH4 0x9F92F4B6 EQ PUSH2 0x563 JUMPI DUP1 PUSH4 0xA051E53D EQ PUSH2 0x483 JUMPI DUP1 PUSH4 0xA2D9890B EQ PUSH2 0x56B JUMPI PUSH1 0x0 DUP1 REVERT JUMPDEST DUP1 PUSH4 0x782A51AE EQ PUSH2 0x4F5 JUMPI DUP1 PUSH4 0x7CDD2093 EQ PUSH2 0x508 JUMPI DUP1 PUSH4 0x7F368B9B EQ PUSH2 0x510 JUMPI DUP1 PUSH4 0x8A3748AE EQ PUSH2 0x519 JUMPI DUP1 PUSH4 0x8BEEE7B4 EQ PUSH2 0x52C JUMPI PUSH1 0x0 DUP1 REVERT JUMPDEST DUP1 PUSH4 0x2B4C45C2 GT PUSH2 0x1C9 JUMPI DUP1 PUSH4 0x54F06B18 GT PUSH2 0x18D JUMPI DUP1 PUSH4 0x54F06B18 EQ PUSH2 0x470 JUMPI DUP1 PUSH4 0x5E6A645E EQ PUSH2 0x483 JUMPI DUP1 PUSH4 0x6031A52F EQ PUSH2 0x48B JUMPI DUP1 PUSH4 0x69894CF7 EQ PUSH2 0x494 JUMPI DUP1 PUSH4 0x715018A6 EQ PUSH2 0x4ED JUMPI PUSH1 0x0 DUP1 REVERT JUMPDEST DUP1 PUSH4 0x2B4C45C2 EQ PUSH2 0x3B1 JUMPI DUP1 PUSH4 0x34701DB8 EQ PUSH2 0x3C4 JUMPI DUP1 PUSH4 0x376C2BBE EQ PUSH2 0x3CD JUMPI DUP1 PUSH4 0x3B8D5B86 EQ PUSH2 0x3E0 JUMPI DUP1 PUSH4 0x50B44712 EQ PUSH2 0x3E8 JUMPI PUSH1 0x0 DUP1 REVERT JUMPDEST DUP1 PUSH4 0xDA590D4 GT PUSH2 0x210 JUMPI DUP1 PUSH4 0xDA590D4 EQ PUSH2 0x357 JUMPI DUP1 PUSH4 0x11EAC855 EQ PUSH2 0x361 JUMPI DUP1 PUSH4 0x1A95F15F EQ PUSH2 0x374 JUMPI DUP1 PUSH4 0x1F53AC02 EQ PUSH2 0x37E JUMPI DUP1 PUSH4 0x24C14160 EQ PUSH2 0x391 JUMPI PUSH1 0x0 DUP1 REVERT JUMPDEST DUP1 PUSH4 0x266F044 EQ PUSH2 0x24D JUMPI DUP1 PUSH4 0x3B8E18C EQ PUSH2 0x269 JUMPI DUP1 PUSH4 0x484A22F EQ PUSH2 0x294 JUMPI DUP1 PUSH4 0xA0D8587 EQ PUSH2 0x2B4 JUMPI DUP1 PUSH4 0xCC36C36 EQ PUSH2 0x2C7 JUMPI JUMPDEST PUSH1 0x0 DUP1 REVERT JUMPDEST PUSH2 0x256 PUSH1 0x8 SLOAD DUP2 JUMP JUMPDEST PUSH1 0x40 MLOAD SWAP1 DUP2 MSTORE PUSH1 0x20 ADD JUMPDEST PUSH1 0x40 MLOAD DUP1 SWAP2 SUB SWAP1 RETURN JUMPDEST PUSH2 0x27C PUSH2 0x277 CALLDATASIZE PUSH1 0x4 PUSH2 0x2348 JUMP JUMPDEST PUSH2 0x659 JUMP JUMPDEST PUSH1 0x40 MLOAD PUSH1 0x1 PUSH1 0x1 PUSH1 0xA0 SHL SUB SWAP1 SWAP2 AND DUP2 MSTORE PUSH1 0x20 ADD PUSH2 0x260 JUMP JUMPDEST PUSH2 0x2A7 PUSH2 0x2A2 CALLDATASIZE PUSH1 0x4 PUSH2 0x2386 JUMP JUMPDEST PUSH2 0x691 JUMP JUMPDEST PUSH1 0x40 MLOAD PUSH2 0x260 SWAP2 SWAP1 PUSH2 0x23A8 JUMP JUMPDEST PUSH2 0x2A7 PUSH2 0x2C2 CALLDATASIZE PUSH1 0x4 PUSH2 0x23EC JUMP JUMPDEST PUSH2 0x6FD JUMP JUMPDEST PUSH2 0x31C PUSH2 0x2D5 CALLDATASIZE PUSH1 0x4 PUSH2 0x2418 JUMP JUMPDEST PUSH1 0x9 PUSH1 0x20 MSTORE PUSH1 0x0 SWAP1 DUP2 MSTORE PUSH1 0x40 SWAP1 KECCAK256 DUP1 SLOAD PUSH1 0x2 DUP3 ADD SLOAD PUSH1 0x3 DUP4 ADD SLOAD PUSH1 0x4 DUP5 ADD SLOAD PUSH1 0x5 DUP6 ADD SLOAD PUSH1 0x6 DUP7 ADD SLOAD PUSH1 0x7 DUP8 ADD SLOAD PUSH1 0x8 SWAP1 SWAP8 ADD SLOAD SWAP6 SWAP7 SWAP5 SWAP6 SWAP4 SWAP5 PUSH1 0xFF SWAP1 SWAP4 AND SWAP4 SWAP2 SWAP3 SWAP1 SWAP2 DUP9 JUMP JUMPDEST PUSH1 0x40 DUP1 MLOAD SWAP9 DUP10 MSTORE PUSH1 0x20 DUP10 ADD SWAP8 SWAP1 SWAP8 MSTORE SWAP6 DUP8 ADD SWAP5 SWAP1 SWAP5 MSTORE SWAP2 ISZERO ISZERO PUSH1 0x60 DUP7 ADD MSTORE PUSH1 0x80 DUP6 ADD MSTORE PUSH1 0xA0 DUP5 ADD MSTORE PUSH1 0xC0 DUP4 ADD MSTORE PUSH1 0xE0 DUP3 ADD MSTORE PUSH2 0x100 ADD PUSH2 0x260 JUMP JUMPDEST PUSH2 0x35F PUSH2 0x772 JUMP JUMPDEST STOP JUMPDEST PUSH1 0x2 SLOAD PUSH2 0x27C SWAP1 PUSH1 0x1 PUSH1 0x1 PUSH1 0xA0 SHL SUB AND DUP2 JUMP JUMPDEST PUSH2 0x256 PUSH3 0xF4240 DUP2 JUMP JUMPDEST PUSH2 0x35F PUSH2 0x38C CALLDATASIZE PUSH1 0x4 PUSH2 0x2386 JUMP JUMPDEST PUSH2 0x8EC JUMP JUMPDEST PUSH2 0x3A4 PUSH2 0x39F CALLDATASIZE PUSH1 0x4 PUSH2 0x2418 JUMP JUMPDEST PUSH2 0x961 JUMP JUMPDEST PUSH1 0x40 MLOAD PUSH2 0x260 SWAP2 SWAP1 PUSH2 0x24B9 JUMP JUMPDEST PUSH2 0x256 PUSH2 0x3BF CALLDATASIZE PUSH1 0x4 PUSH2 0x2418 JUMP JUMPDEST PUSH2 0xAE9 JUMP JUMPDEST PUSH2 0x256 PUSH1 0x6 SLOAD DUP2 JUMP JUMPDEST PUSH2 0x256 PUSH2 0x3DB CALLDATASIZE PUSH1 0x4 PUSH2 0x2348 JUMP JUMPDEST PUSH2 0xEA5 JUMP JUMPDEST PUSH1 0x8 SLOAD PUSH2 0x256 JUMP JUMPDEST PUSH2 0x439 PUSH2 0x3F6 CALLDATASIZE PUSH1 0x4 PUSH2 0x2418 JUMP JUMPDEST PUSH1 0xA PUSH1 0x20 MSTORE PUSH1 0x0 SWAP1 DUP2 MSTORE PUSH1 0x40 SWAP1 KECCAK256 DUP1 SLOAD PUSH1 0x1 DUP3 ADD SLOAD PUSH1 0x3 DUP4 ADD SLOAD PUSH1 0x4 DUP5 ADD SLOAD PUSH1 0x5 DUP6 ADD SLOAD PUSH1 0x6 SWAP1 SWAP6 ADD SLOAD SWAP4 SWAP5 PUSH1 0x1 PUSH1 0x1 PUSH1 0xA0 SHL SUB SWAP1 SWAP4 AND SWAP4 SWAP2 SWAP3 PUSH1 0xFF SWAP1 SWAP2 AND SWAP2 DUP7 JUMP JUMPDEST PUSH1 0x40 DUP1 MLOAD SWAP7 DUP8 MSTORE PUSH1 0x1 PUSH1 0x1 PUSH1 0xA0 SHL SUB SWAP1 SWAP6 AND PUSH1 0x20 DUP8 ADD MSTORE SWAP4 DUP6 ADD SWAP3 SWAP1 SWAP3 MSTORE ISZERO ISZERO PUSH1 0x60 DUP5 ADD MSTORE PUSH1 0x80 DUP4 ADD MSTORE PUSH1 0xA0 DUP3 ADD MSTORE PUSH1 0xC0 ADD PUSH2 0x260 JUMP JUMPDEST PUSH2 0x27C PUSH2 0x47E CALLDATASIZE PUSH1 0x4 PUSH2 0x2348 JUMP JUMPDEST PUSH2 0xED6 JUMP JUMPDEST PUSH2 0x256 PUSH1 0x5 DUP2 JUMP JUMPDEST PUSH2 0x256 PUSH1 0x5 SLOAD DUP2 JUMP JUMPDEST PUSH2 0x4CD PUSH2 0x4A2 CALLDATASIZE PUSH1 0x4 PUSH2 0x2418 JUMP JUMPDEST PUSH1 0x0 SWAP1 DUP2 MSTORE PUSH1 0x9 PUSH1 0x20 MSTORE PUSH1 0x40 SWAP1 KECCAK256 PUSH1 0x5 DUP2 ADD SLOAD PUSH1 0x6 DUP3 ADD SLOAD PUSH1 0x7 DUP4 ADD SLOAD PUSH1 0x8 SWAP1 SWAP4 ADD SLOAD SWAP2 SWAP4 SWAP1 SWAP3 SWAP2 SWAP1 JUMP JUMPDEST PUSH1 0x40 DUP1 MLOAD SWAP5 DUP6 MSTORE PUSH1 0x20 DUP6 ADD SWAP4 SWAP1 SWAP4 MSTORE SWAP2 DUP4 ADD MSTORE PUSH1 0x60 DUP3 ADD MSTORE PUSH1 0x80 ADD PUSH2 0x260 JUMP JUMPDEST PUSH2 0x35F PUSH2 0xEF2 JUMP JUMPDEST PUSH2 0x27C PUSH2 0x503 CALLDATASIZE PUSH1 0x4 PUSH2 0x2348 JUMP JUMPDEST PUSH2 0xF04 JUMP JUMPDEST PUSH2 0x256 PUSH1 0x4 DUP2 JUMP JUMPDEST PUSH2 0x256 PUSH1 0x7 SLOAD DUP2 JUMP JUMPDEST PUSH2 0x27C PUSH2 0x527 CALLDATASIZE PUSH1 0x4 PUSH2 0x2348 JUMP JUMPDEST PUSH2 0xF20 JUMP JUMPDEST PUSH2 0x256 PUSH2 0x53A CALLDATASIZE PUSH1 0x4 PUSH2 0x2528 JUMP JUMPDEST PUSH2 0xF3C JUMP JUMPDEST PUSH1 0x0 SLOAD PUSH1 0x1 PUSH1 0x1 PUSH1 0xA0 SHL SUB AND PUSH2 0x27C JUMP JUMPDEST PUSH1 0x3 SLOAD PUSH2 0x27C SWAP1 PUSH1 0x1 PUSH1 0x1 PUSH1 0xA0 SHL SUB AND DUP2 JUMP JUMPDEST PUSH2 0x256 PUSH1 0x46 DUP2 JUMP JUMPDEST PUSH2 0x35F PUSH2 0x579 CALLDATASIZE PUSH1 0x4 PUSH2 0x2699 JUMP JUMPDEST PUSH2 0xF7A JUMP JUMPDEST PUSH2 0x35F PUSH2 0x58C CALLDATASIZE PUSH1 0x4 PUSH2 0x2699 JUMP JUMPDEST PUSH2 0x1354 JUMP JUMPDEST PUSH2 0x256 PUSH1 0xA DUP2 JUMP JUMPDEST PUSH2 0x256 PUSH1 0x4 SLOAD DUP2 JUMP JUMPDEST PUSH2 0x256 PUSH2 0x5B0 CALLDATASIZE PUSH1 0x4 PUSH2 0x2418 JUMP JUMPDEST PUSH1 0xE PUSH1 0x20 MSTORE PUSH1 0x0 SWAP1 DUP2 MSTORE PUSH1 0x40 SWAP1 KECCAK256 SLOAD DUP2 JUMP JUMPDEST PUSH2 0x5F0 PUSH2 0x5D0 CALLDATASIZE PUSH1 0x4 PUSH2 0x23EC JUMP JUMPDEST PUSH1 0x13 PUSH1 0x20 SWAP1 DUP2 MSTORE PUSH1 0x0 SWAP3 DUP4 MSTORE PUSH1 0x40 DUP1 DUP5 KECCAK256 SWAP1 SWAP2 MSTORE SWAP1 DUP3 MSTORE SWAP1 KECCAK256 SLOAD PUSH1 0xFF AND DUP2 JUMP JUMPDEST PUSH1 0x40 MLOAD SWAP1 ISZERO ISZERO DUP2 MSTORE PUSH1 0x20 ADD PUSH2 0x260 JUMP JUMPDEST PUSH2 0x256 PUSH2 0x60E CALLDATASIZE PUSH1 0x4 PUSH2 0x26DE JUMP JUMPDEST PUSH2 0x194F JUMP JUMPDEST PUSH2 0x626 PUSH2 0x621 CALLDATASIZE PUSH1 0x4 PUSH2 0x2418 JUMP JUMPDEST PUSH2 0x196B JUMP JUMPDEST PUSH1 0x40 MLOAD PUSH2 0x260 SWAP2 SWAP1 PUSH2 0x2708 JUMP JUMPDEST PUSH2 0x35F PUSH2 0x641 CALLDATASIZE PUSH1 0x4 PUSH2 0x2418 JUMP JUMPDEST PUSH2 0x1B10 JUMP JUMPDEST PUSH2 0x35F PUSH2 0x654 CALLDATASIZE PUSH1 0x4 PUSH2 0x2386 JUMP JUMPDEST PUSH2 0x1F19 JUMP JUMPDEST PUSH1 0x11 PUSH1 0x20 MSTORE DUP2 PUSH1 0x0 MSTORE PUSH1 0x40 PUSH1 0x0 KECCAK256 DUP2 DUP2 SLOAD DUP2 LT PUSH2 0x675 JUMPI PUSH1 0x0 DUP1 REVERT JUMPDEST PUSH1 0x0 SWAP2 DUP3 MSTORE PUSH1 0x20 SWAP1 SWAP2 KECCAK256 ADD SLOAD PUSH1 0x1 PUSH1 0x1 PUSH1 0xA0 SHL SUB AND SWAP2 POP DUP3 SWAP1 POP JUMP JUMPDEST PUSH1 0x1 PUSH1 0x1 PUSH1 0xA0 SHL SUB DUP2 AND PUSH1 0x0 SWAP1 DUP2 MSTORE PUSH1 0xC PUSH1 0x20 SWAP1 DUP2 MSTORE PUSH1 0x40 SWAP2 DUP3 SWAP1 KECCAK256 DUP1 SLOAD DUP4 MLOAD DUP2 DUP5 MUL DUP2 ADD DUP5 ADD SWAP1 SWAP5 MSTORE DUP1 DUP5 MSTORE PUSH1 0x60 SWAP4 SWAP3 DUP4 ADD DUP3 DUP3 DUP1 ISZERO PUSH2 0x6F1 JUMPI PUSH1 0x20 MUL DUP3 ADD SWAP2 SWAP1 PUSH1 0x0 MSTORE PUSH1 0x20 PUSH1 0x0 KECCAK256 SWAP1 JUMPDEST DUP2 SLOAD DUP2 MSTORE PUSH1 0x20 ADD SWAP1 PUSH1 0x1 ADD SWAP1 DUP1 DUP4 GT PUSH2 0x6DD JUMPI JUMPDEST POP POP POP POP POP SWAP1 POP SWAP2 SWAP1 POP JUMP JUMPDEST PUSH1 0x0 DUP3 DUP2 MSTORE PUSH1 0xD PUSH1 0x20 SWAP1 DUP2 MSTORE PUSH1 0x40 DUP1 DUP4 KECCAK256 PUSH1 0x1 PUSH1 0x1 PUSH1 0xA0 SHL SUB DUP6 AND DUP5 MSTORE DUP3 MSTORE SWAP2 DUP3 SWAP1 KECCAK256 DUP1 SLOAD DUP4 MLOAD DUP2 DUP5 MUL DUP2 ADD DUP5 ADD SWAP1 SWAP5 MSTORE DUP1 DUP5 MSTORE PUSH1 0x60 SWAP4 SWAP3 DUP4 ADD DUP3 DUP3 DUP1 ISZERO PUSH2 0x764 JUMPI PUSH1 0x20 MUL DUP3 ADD SWAP2 SWAP1 PUSH1 0x0 MSTORE PUSH1 0x20 PUSH1 0x0 KECCAK256 SWAP1 JUMPDEST DUP2 SLOAD DUP2 MSTORE PUSH1 0x20 ADD SWAP1 PUSH1 0x1 ADD SWAP1 DUP1 DUP4 GT PUSH2 0x750 JUMPI JUMPDEST POP POP POP POP POP SWAP1 POP JUMPDEST SWAP3 SWAP2 POP POP JUMP JUMPDEST PUSH2 0x77A PUSH2 0x1F54 JUMP JUMPDEST PUSH2 0x782 PUSH2 0x1F81 JUMP JUMPDEST PUSH1 0x7 SLOAD DUP1 PUSH2 0x7D7 JUMPI PUSH1 0x40 MLOAD PUSH3 0x461BCD PUSH1 0xE5 SHL DUP2 MSTORE PUSH1 0x20 PUSH1 0x4 DUP3 ADD MSTORE PUSH1 0x1E PUSH1 0x24 DUP3 ADD MSTORE PUSH32 0x4E6F2068617920636F6D6973696F6E6573207061726120726574697261720000 PUSH1 0x44 DUP3 ADD MSTORE PUSH1 0x64 ADD JUMPDEST PUSH1 0x40 MLOAD DUP1 SWAP2 SUB SWAP1 REVERT JUMPDEST PUSH1 0x0 PUSH1 0x7 SSTORE PUSH1 0x2 SLOAD PUSH1 0x3 SLOAD PUSH1 0x40 MLOAD PUSH4 0xA9059CBB PUSH1 0xE0 SHL DUP2 MSTORE PUSH1 0x1 PUSH1 0x1 PUSH1 0xA0 SHL SUB SWAP2 DUP3 AND PUSH1 0x4 DUP3 ADD MSTORE PUSH1 0x24 DUP2 ADD DUP5 SWAP1 MSTORE SWAP2 AND SWAP1 PUSH4 0xA9059CBB SWAP1 PUSH1 0x44 ADD PUSH1 0x20 PUSH1 0x40 MLOAD DUP1 DUP4 SUB DUP2 PUSH1 0x0 DUP8 GAS CALL ISZERO DUP1 ISZERO PUSH2 0x831 JUMPI RETURNDATASIZE PUSH1 0x0 DUP1 RETURNDATACOPY RETURNDATASIZE PUSH1 0x0 REVERT JUMPDEST POP POP POP POP PUSH1 0x40 MLOAD RETURNDATASIZE PUSH1 0x1F NOT PUSH1 0x1F DUP3 ADD AND DUP3 ADD DUP1 PUSH1 0x40 MSTORE POP DUP2 ADD SWAP1 PUSH2 0x855 SWAP2 SWAP1 PUSH2 0x2791 JUMP JUMPDEST PUSH2 0x8AD JUMPI PUSH1 0x40 MLOAD PUSH3 0x461BCD PUSH1 0xE5 SHL DUP2 MSTORE PUSH1 0x20 PUSH1 0x4 DUP3 ADD MSTORE PUSH1 0x24 DUP1 DUP3 ADD MSTORE PUSH32 0x46616C6C6F206C61207472616E73666572656E63696120646520636F6D697369 PUSH1 0x44 DUP3 ADD MSTORE PUSH4 0x6F6E6573 PUSH1 0xE0 SHL PUSH1 0x64 DUP3 ADD MSTORE PUSH1 0x84 ADD PUSH2 0x7CE JUMP JUMPDEST PUSH1 0x40 MLOAD DUP2 DUP2 MSTORE PUSH32 0x5EE59E571657DE6134A3216F04D5E881A8FC74CE6AD9EEE2A9B26243270DBF88 SWAP1 PUSH1 0x20 ADD PUSH1 0x40 MLOAD DUP1 SWAP2 SUB SWAP1 LOG1 POP PUSH2 0x8EA PUSH1 0x1 DUP1 SSTORE JUMP JUMPDEST JUMP JUMPDEST PUSH2 0x8F4 PUSH2 0x1F54 JUMP JUMPDEST PUSH1 0x1 PUSH1 0x1 PUSH1 0xA0 SHL SUB DUP2 AND PUSH2 0x93F JUMPI PUSH1 0x40 MLOAD PUSH3 0x461BCD PUSH1 0xE5 SHL DUP2 MSTORE PUSH1 0x20 PUSH1 0x4 DUP3 ADD MSTORE PUSH1 0x12 PUSH1 0x24 DUP3 ADD MSTORE PUSH18 0x446972656363696F6E20696E76616C696461 PUSH1 0x70 SHL PUSH1 0x44 DUP3 ADD MSTORE PUSH1 0x64 ADD PUSH2 0x7CE JUMP JUMPDEST PUSH1 0x3 DUP1 SLOAD PUSH1 0x1 PUSH1 0x1 PUSH1 0xA0 SHL SUB NOT AND PUSH1 0x1 PUSH1 0x1 PUSH1 0xA0 SHL SUB SWAP3 SWAP1 SWAP3 AND SWAP2 SWAP1 SWAP2 OR SWAP1 SSTORE JUMP JUMPDEST PUSH2 0x9AC PUSH1 0x40 MLOAD DUP1 PUSH1 0xE0 ADD PUSH1 0x40 MSTORE DUP1 PUSH1 0x0 DUP2 MSTORE PUSH1 0x20 ADD PUSH1 0x0 PUSH1 0x1 PUSH1 0x1 PUSH1 0xA0 SHL SUB AND DUP2 MSTORE PUSH1 0x20 ADD PUSH1 0x60 DUP2 MSTORE PUSH1 0x20 ADD PUSH1 0x0 DUP2 MSTORE PUSH1 0x20 ADD PUSH1 0x0 ISZERO ISZERO DUP2 MSTORE PUSH1 0x20 ADD PUSH1 0x0 DUP2 MSTORE PUSH1 0x20 ADD PUSH1 0x0 DUP2 MSTORE POP SWAP1 JUMP JUMPDEST PUSH1 0x0 DUP3 DUP2 MSTORE PUSH1 0xA PUSH1 0x20 SWAP1 DUP2 MSTORE PUSH1 0x40 DUP1 DUP4 KECCAK256 DUP2 MLOAD PUSH1 0xE0 DUP2 ADD DUP4 MSTORE DUP2 SLOAD DUP2 MSTORE PUSH1 0x1 DUP3 ADD SLOAD PUSH1 0x1 PUSH1 0x1 PUSH1 0xA0 SHL SUB AND DUP2 DUP6 ADD MSTORE PUSH1 0x2 DUP3 ADD DUP1 SLOAD DUP5 MLOAD DUP2 DUP8 MUL DUP2 ADD DUP8 ADD DUP7 MSTORE DUP2 DUP2 MSTORE SWAP3 SWAP7 SWAP4 SWAP6 SWAP5 DUP8 ADD SWAP5 SWAP3 SWAP4 SWAP2 SWAP3 SWAP1 SWAP2 SWAP1 DUP5 ADD JUMPDEST DUP3 DUP3 LT ISZERO PUSH2 0xAAD JUMPI DUP4 DUP3 SWAP1 PUSH1 0x0 MSTORE PUSH1 0x20 PUSH1 0x0 KECCAK256 ADD DUP1 SLOAD PUSH2 0xA20 SWAP1 PUSH2 0x27B3 JUMP JUMPDEST DUP1 PUSH1 0x1F ADD PUSH1 0x20 DUP1 SWAP2 DIV MUL PUSH1 0x20 ADD PUSH1 0x40 MLOAD SWAP1 DUP2 ADD PUSH1 0x40 MSTORE DUP1 SWAP3 SWAP2 SWAP1 DUP2 DUP2 MSTORE PUSH1 0x20 ADD DUP3 DUP1 SLOAD PUSH2 0xA4C SWAP1 PUSH2 0x27B3 JUMP JUMPDEST DUP1 ISZERO PUSH2 0xA99 JUMPI DUP1 PUSH1 0x1F LT PUSH2 0xA6E JUMPI PUSH2 0x100 DUP1 DUP4 SLOAD DIV MUL DUP4 MSTORE SWAP2 PUSH1 0x20 ADD SWAP2 PUSH2 0xA99 JUMP JUMPDEST DUP3 ADD SWAP2 SWAP1 PUSH1 0x0 MSTORE PUSH1 0x20 PUSH1 0x0 KECCAK256 SWAP1 JUMPDEST DUP2 SLOAD DUP2 MSTORE SWAP1 PUSH1 0x1 ADD SWAP1 PUSH1 0x20 ADD DUP1 DUP4 GT PUSH2 0xA7C JUMPI DUP3 SWAP1 SUB PUSH1 0x1F AND DUP3 ADD SWAP2 JUMPDEST POP POP POP POP POP DUP2 MSTORE PUSH1 0x20 ADD SWAP1 PUSH1 0x1 ADD SWAP1 PUSH2 0xA01 JUMP JUMPDEST POP POP POP SWAP1 DUP3 MSTORE POP PUSH1 0x3 DUP3 ADD SLOAD PUSH1 0x20 DUP3 ADD MSTORE PUSH1 0x4 DUP3 ADD SLOAD PUSH1 0xFF AND ISZERO ISZERO PUSH1 0x40 DUP3 ADD MSTORE PUSH1 0x5 DUP3 ADD SLOAD PUSH1 0x60 DUP3 ADD MSTORE PUSH1 0x6 SWAP1 SWAP2 ADD SLOAD PUSH1 0x80 SWAP1 SWAP2 ADD MSTORE SWAP3 SWAP2 POP POP JUMP JUMPDEST PUSH1 0x0 DUP2 DUP2 MSTORE PUSH1 0xA PUSH1 0x20 MSTORE PUSH1 0x40 DUP2 KECCAK256 DUP1 SLOAD PUSH2 0xB38 JUMPI PUSH1 0x40 MLOAD PUSH3 0x461BCD PUSH1 0xE5 SHL DUP2 MSTORE PUSH1 0x20 PUSH1 0x4 DUP3 ADD MSTORE PUSH1 0x10 PUSH1 0x24 DUP3 ADD MSTORE PUSH16 0x5469636B6574206E6F20657869737465 PUSH1 0x80 SHL PUSH1 0x44 DUP3 ADD MSTORE PUSH1 0x64 ADD PUSH2 0x7CE JUMP JUMPDEST PUSH1 0x3 DUP2 ADD SLOAD PUSH1 0x0 SWAP1 DUP2 MSTORE PUSH1 0x9 PUSH1 0x20 MSTORE PUSH1 0x40 SWAP1 KECCAK256 PUSH1 0x4 ADD SLOAD PUSH1 0xFF AND PUSH2 0xB99 JUMPI PUSH1 0x40 MLOAD PUSH3 0x461BCD PUSH1 0xE5 SHL DUP2 MSTORE PUSH1 0x20 PUSH1 0x4 DUP3 ADD MSTORE PUSH1 0x18 PUSH1 0x24 DUP3 ADD MSTORE PUSH24 0x536F7274656F2061756E206E6F20636F6D706C657461646F PUSH1 0x40 SHL PUSH1 0x44 DUP3 ADD MSTORE PUSH1 0x64 ADD PUSH2 0x7CE JUMP JUMPDEST PUSH1 0x0 PUSH1 0x9 PUSH1 0x0 DUP4 PUSH1 0x3 ADD SLOAD DUP2 MSTORE PUSH1 0x20 ADD SWAP1 DUP2 MSTORE PUSH1 0x20 ADD PUSH1 0x0 KECCAK256 PUSH1 0x1 ADD DUP1 SLOAD DUP1 PUSH1 0x20 MUL PUSH1 0x20 ADD PUSH1 0x40 MLOAD SWAP1 DUP2 ADD PUSH1 0x40 MSTORE DUP1 SWAP3 SWAP2 SWAP1 DUP2 DUP2 MSTORE PUSH1 0x20 ADD PUSH1 0x0 SWAP1 JUMPDEST DUP3 DUP3 LT ISZERO PUSH2 0xC81 JUMPI DUP4 DUP3 SWAP1 PUSH1 0x0 MSTORE PUSH1 0x20 PUSH1 0x0 KECCAK256 ADD DUP1 SLOAD PUSH2 0xBF4 SWAP1 PUSH2 0x27B3 JUMP JUMPDEST DUP1 PUSH1 0x1F ADD PUSH1 0x20 DUP1 SWAP2 DIV MUL PUSH1 0x20 ADD PUSH1 0x40 MLOAD SWAP1 DUP2 ADD PUSH1 0x40 MSTORE DUP1 SWAP3 SWAP2 SWAP1 DUP2 DUP2 MSTORE PUSH1 0x20 ADD DUP3 DUP1 SLOAD PUSH2 0xC20 SWAP1 PUSH2 0x27B3 JUMP JUMPDEST DUP1 ISZERO PUSH2 0xC6D JUMPI DUP1 PUSH1 0x1F LT PUSH2 0xC42 JUMPI PUSH2 0x100 DUP1 DUP4 SLOAD DIV MUL DUP4 MSTORE SWAP2 PUSH1 0x20 ADD SWAP2 PUSH2 0xC6D JUMP JUMPDEST DUP3 ADD SWAP2 SWAP1 PUSH1 0x0 MSTORE PUSH1 0x20 PUSH1 0x0 KECCAK256 SWAP1 JUMPDEST DUP2 SLOAD DUP2 MSTORE SWAP1 PUSH1 0x1 ADD SWAP1 PUSH1 0x20 ADD DUP1 DUP4 GT PUSH2 0xC50 JUMPI DUP3 SWAP1 SUB PUSH1 0x1F AND DUP3 ADD SWAP2 JUMPDEST POP POP POP POP POP DUP2 MSTORE PUSH1 0x20 ADD SWAP1 PUSH1 0x1 ADD SWAP1 PUSH2 0xBD5 JUMP JUMPDEST POP POP POP POP SWAP1 POP PUSH1 0x0 PUSH2 0xD66 DUP4 PUSH1 0x2 ADD DUP1 SLOAD DUP1 PUSH1 0x20 MUL PUSH1 0x20 ADD PUSH1 0x40 MLOAD SWAP1 DUP2 ADD PUSH1 0x40 MSTORE DUP1 SWAP3 SWAP2 SWAP1 DUP2 DUP2 MSTORE PUSH1 0x20 ADD PUSH1 0x0 SWAP1 JUMPDEST DUP3 DUP3 LT ISZERO PUSH2 0xD5C JUMPI DUP4 DUP3 SWAP1 PUSH1 0x0 MSTORE PUSH1 0x20 PUSH1 0x0 KECCAK256 ADD DUP1 SLOAD PUSH2 0xCCF SWAP1 PUSH2 0x27B3 JUMP JUMPDEST DUP1 PUSH1 0x1F ADD PUSH1 0x20 DUP1 SWAP2 DIV MUL PUSH1 0x20 ADD PUSH1 0x40 MLOAD SWAP1 DUP2 ADD PUSH1 0x40 MSTORE DUP1 SWAP3 SWAP2 SWAP1 DUP2 DUP2 MSTORE PUSH1 0x20 ADD DUP3 DUP1 SLOAD PUSH2 0xCFB SWAP1 PUSH2 0x27B3 JUMP JUMPDEST DUP1 ISZERO PUSH2 0xD48 JUMPI DUP1 PUSH1 0x1F LT PUSH2 0xD1D JUMPI PUSH2 0x100 DUP1 DUP4 SLOAD DIV MUL DUP4 MSTORE SWAP2 PUSH1 0x20 ADD SWAP2 PUSH2 0xD48 JUMP JUMPDEST DUP3 ADD SWAP2 SWAP1 PUSH1 0x0 MSTORE PUSH1 0x20 PUSH1 0x0 KECCAK256 SWAP1 JUMPDEST DUP2 SLOAD DUP2 MSTORE SWAP1 PUSH1 0x1 ADD SWAP1 PUSH1 0x20 ADD DUP1 DUP4 GT PUSH2 0xD2B JUMPI DUP3 SWAP1 SUB PUSH1 0x1F AND DUP3 ADD SWAP2 JUMPDEST POP POP POP POP POP DUP2 MSTORE PUSH1 0x20 ADD SWAP1 PUSH1 0x1 ADD SWAP1 PUSH2 0xCB0 JUMP JUMPDEST POP POP POP POP DUP4 PUSH2 0x1FAB JUMP JUMPDEST SWAP1 POP PUSH1 0x0 PUSH2 0xE47 DUP5 PUSH1 0x2 ADD DUP1 SLOAD DUP1 PUSH1 0x20 MUL PUSH1 0x20 ADD PUSH1 0x40 MLOAD SWAP1 DUP2 ADD PUSH1 0x40 MSTORE DUP1 SWAP3 SWAP2 SWAP1 DUP2 DUP2 MSTORE PUSH1 0x20 ADD PUSH1 0x0 SWAP1 JUMPDEST DUP3 DUP3 LT ISZERO PUSH2 0xE3D JUMPI DUP4 DUP3 SWAP1 PUSH1 0x0 MSTORE PUSH1 0x20 PUSH1 0x0 KECCAK256 ADD DUP1 SLOAD PUSH2 0xDB0 SWAP1 PUSH2 0x27B3 JUMP JUMPDEST DUP1 PUSH1 0x1F ADD PUSH1 0x20 DUP1 SWAP2 DIV MUL PUSH1 0x20 ADD PUSH1 0x40 MLOAD SWAP1 DUP2 ADD PUSH1 0x40 MSTORE DUP1 SWAP3 SWAP2 SWAP1 DUP2 DUP2 MSTORE PUSH1 0x20 ADD DUP3 DUP1 SLOAD PUSH2 0xDDC SWAP1 PUSH2 0x27B3 JUMP JUMPDEST DUP1 ISZERO PUSH2 0xE29 JUMPI DUP1 PUSH1 0x1F LT PUSH2 0xDFE JUMPI PUSH2 0x100 DUP1 DUP4 SLOAD DIV MUL DUP4 MSTORE SWAP2 PUSH1 0x20 ADD SWAP2 PUSH2 0xE29 JUMP JUMPDEST DUP3 ADD SWAP2 SWAP1 PUSH1 0x0 MSTORE PUSH1 0x20 PUSH1 0x0 KECCAK256 SWAP1 JUMPDEST DUP2 SLOAD DUP2 MSTORE SWAP1 PUSH1 0x1 ADD SWAP1 PUSH1 0x20 ADD DUP1 DUP4 GT PUSH2 0xE0C JUMPI DUP3 SWAP1 SUB PUSH1 0x1F AND DUP3 ADD SWAP2 JUMPDEST POP POP POP POP POP DUP2 MSTORE PUSH1 0x20 ADD SWAP1 PUSH1 0x1 ADD SWAP1 PUSH2 0xD91 JUMP JUMPDEST POP POP POP POP DUP5 PUSH2 0x2084 JUMP JUMPDEST SWAP1 POP DUP2 PUSH1 0x4 SUB PUSH2 0xE5D JUMPI POP PUSH1 0x1 SWAP6 SWAP5 POP POP POP POP POP JUMP JUMPDEST DUP1 PUSH1 0x4 SUB PUSH2 0xE71 JUMPI POP PUSH1 0x2 SWAP6 SWAP5 POP POP POP POP POP JUMP JUMPDEST DUP2 PUSH1 0x3 SUB PUSH2 0xE85 JUMPI POP PUSH1 0x3 SWAP6 SWAP5 POP POP POP POP POP JUMP JUMPDEST DUP1 PUSH1 0x3 SUB PUSH2 0xE99 JUMPI POP PUSH1 0x4 SWAP6 SWAP5 POP POP POP POP POP JUMP JUMPDEST POP PUSH1 0x0 SWAP6 SWAP5 POP POP POP POP POP JUMP JUMPDEST PUSH1 0xB PUSH1 0x20 MSTORE DUP2 PUSH1 0x0 MSTORE PUSH1 0x40 PUSH1 0x0 KECCAK256 DUP2 DUP2 SLOAD DUP2 LT PUSH2 0xEC1 JUMPI PUSH1 0x0 DUP1 REVERT JUMPDEST SWAP1 PUSH1 0x0 MSTORE PUSH1 0x20 PUSH1 0x0 KECCAK256 ADD PUSH1 0x0 SWAP2 POP SWAP2 POP POP SLOAD DUP2 JUMP JUMPDEST PUSH1 0x10 PUSH1 0x20 MSTORE DUP2 PUSH1 0x0 MSTORE PUSH1 0x40 PUSH1 0x0 KECCAK256 DUP2 DUP2 SLOAD DUP2 LT PUSH2 0x675 JUMPI PUSH1 0x0 DUP1 REVERT JUMPDEST PUSH2 0xEFA PUSH2 0x1F54 JUMP JUMPDEST PUSH2 0x8EA PUSH1 0x0 PUSH2 0x223B JUMP JUMPDEST PUSH1 0x12 PUSH1 0x20 MSTORE DUP2 PUSH1 0x0 MSTORE PUSH1 0x40 PUSH1 0x0 KECCAK256 DUP2 DUP2 SLOAD DUP2 LT PUSH2 0x675 JUMPI PUSH1 0x0 DUP1 REVERT JUMPDEST PUSH1 0xF PUSH1 0x20 MSTORE DUP2 PUSH1 0x0 MSTORE PUSH1 0x40 PUSH1 0x0 KECCAK256 DUP2 DUP2 SLOAD DUP2 LT PUSH2 0x675 JUMPI PUSH1 0x0 DUP1 REVERT JUMPDEST PUSH1 0xD PUSH1 0x20 MSTORE DUP3 PUSH1 0x0 MSTORE PUSH1 0x40 PUSH1 0x0 KECCAK256 PUSH1 0x20 MSTORE DUP2 PUSH1 0x0 MSTORE PUSH1 0x40 PUSH1 0x0 KECCAK256 DUP2 DUP2 SLOAD DUP2 LT PUSH2 0xF64 JUMPI PUSH1 0x0 DUP1 REVERT JUMPDEST SWAP1 PUSH1 0x0 MSTORE PUSH1 0x20 PUSH1 0x0 KECCAK256 ADD PUSH1 0x0 SWAP3 POP SWAP3 POP POP POP SLOAD DUP2 JUMP JUMPDEST PUSH2 0xF82 PUSH2 0x1F81 JUMP JUMPDEST PUSH1 0x4 DUP3 MLOAD EQ PUSH2 0xFE1 JUMPI PUSH1 0x40 MLOAD PUSH3 0x461BCD PUSH1 0xE5 SHL DUP2 MSTORE PUSH1 0x20 PUSH1 0x4 DUP3 ADD MSTORE PUSH1 0x25 PUSH1 0x24 DUP3 ADD MSTORE PUSH32 0x446562652073656C656363696F6E6172206578616374616D656E746520342065 PUSH1 0x44 DUP3 ADD MSTORE PUSH5 0x6D6F6A6973 PUSH1 0xD8 SHL PUSH1 0x64 DUP3 ADD MSTORE PUSH1 0x84 ADD PUSH2 0x7CE JUMP JUMPDEST PUSH1 0x0 DUP2 GT PUSH2 0x1020 JUMPI PUSH1 0x40 MLOAD PUSH3 0x461BCD PUSH1 0xE5 SHL DUP2 MSTORE PUSH1 0x20 PUSH1 0x4 DUP3 ADD MSTORE PUSH1 0xC PUSH1 0x24 DUP3 ADD MSTORE PUSH12 0x46494420696E76616C69646F PUSH1 0xA0 SHL PUSH1 0x44 DUP3 ADD MSTORE PUSH1 0x64 ADD PUSH2 0x7CE JUMP JUMPDEST PUSH1 0x2 SLOAD PUSH1 0x40 MLOAD PUSH4 0x23B872DD PUSH1 0xE0 SHL DUP2 MSTORE CALLER PUSH1 0x4 DUP3 ADD MSTORE ADDRESS PUSH1 0x24 DUP3 ADD MSTORE PUSH3 0xF4240 PUSH1 0x44 DUP3 ADD MSTORE PUSH1 0x0 SWAP2 PUSH1 0x1 PUSH1 0x1 PUSH1 0xA0 SHL SUB AND SWAP1 PUSH4 0x23B872DD SWAP1 PUSH1 0x64 ADD PUSH1 0x20 PUSH1 0x40 MLOAD DUP1 DUP4 SUB DUP2 PUSH1 0x0 DUP8 GAS CALL ISZERO DUP1 ISZERO PUSH2 0x107A JUMPI RETURNDATASIZE PUSH1 0x0 DUP1 RETURNDATACOPY RETURNDATASIZE PUSH1 0x0 REVERT JUMPDEST POP POP POP POP PUSH1 0x40 MLOAD RETURNDATASIZE PUSH1 0x1F NOT PUSH1 0x1F DUP3 ADD AND DUP3 ADD DUP1 PUSH1 0x40 MSTORE POP DUP2 ADD SWAP1 PUSH2 0x109E SWAP2 SWAP1 PUSH2 0x2791 JUMP JUMPDEST SWAP1 POP DUP1 PUSH2 0x10ED JUMPI PUSH1 0x40 MLOAD PUSH3 0x461BCD PUSH1 0xE5 SHL DUP2 MSTORE PUSH1 0x20 PUSH1 0x4 DUP3 ADD MSTORE PUSH1 0x1E PUSH1 0x24 DUP3 ADD MSTORE PUSH32 0x46616C6C6F206C61207472616E73666572656E63696120646520555344430000 PUSH1 0x44 DUP3 ADD MSTORE PUSH1 0x64 ADD PUSH2 0x7CE JUMP JUMPDEST PUSH1 0x5 DUP1 SLOAD PUSH1 0x0 SWAP2 DUP3 PUSH2 0x10FE DUP4 PUSH2 0x2803 JUMP JUMPDEST SWAP1 SWAP2 SSTORE POP PUSH1 0x40 DUP1 MLOAD PUSH1 0xE0 DUP2 ADD DUP3 MSTORE DUP3 DUP2 MSTORE CALLER PUSH1 0x20 DUP1 DUP4 ADD SWAP2 DUP3 MSTORE DUP3 DUP5 ADD DUP10 DUP2 MSTORE PUSH1 0x4 SLOAD PUSH1 0x60 DUP6 ADD MSTORE PUSH1 0x0 PUSH1 0x80 DUP6 ADD DUP2 SWAP1 MSTORE TIMESTAMP PUSH1 0xA0 DUP7 ADD MSTORE PUSH1 0xC0 DUP6 ADD DUP11 SWAP1 MSTORE DUP7 DUP2 MSTORE PUSH1 0xA DUP4 MSTORE SWAP5 SWAP1 SWAP5 KECCAK256 DUP4 MLOAD DUP2 SSTORE SWAP2 MLOAD PUSH1 0x1 DUP4 ADD DUP1 SLOAD PUSH1 0x1 PUSH1 0x1 PUSH1 0xA0 SHL SUB NOT AND PUSH1 0x1 PUSH1 0x1 PUSH1 0xA0 SHL SUB SWAP1 SWAP3 AND SWAP2 SWAP1 SWAP2 OR SWAP1 SSTORE SWAP3 MLOAD DUP1 MLOAD SWAP5 SWAP6 POP SWAP2 SWAP4 SWAP1 SWAP3 PUSH2 0x118A SWAP3 PUSH1 0x2 DUP6 ADD SWAP3 SWAP2 ADD SWAP1 PUSH2 0x228B JUMP JUMPDEST POP PUSH1 0x60 DUP3 ADD MLOAD PUSH1 0x3 DUP3 ADD SSTORE PUSH1 0x80 DUP3 ADD MLOAD PUSH1 0x4 DUP1 DUP4 ADD DUP1 SLOAD PUSH1 0xFF NOT AND SWAP3 ISZERO ISZERO SWAP3 SWAP1 SWAP3 OR SWAP1 SWAP2 SSTORE PUSH1 0xA0 DUP4 ADD MLOAD PUSH1 0x5 DUP1 DUP5 ADD SWAP2 SWAP1 SWAP2 SSTORE PUSH1 0xC0 SWAP1 SWAP4 ADD MLOAD PUSH1 0x6 SWAP1 SWAP3 ADD SWAP2 SWAP1 SWAP2 SSTORE DUP1 SLOAD PUSH1 0x0 SWAP1 DUP2 MSTORE PUSH1 0xB PUSH1 0x20 SWAP1 DUP2 MSTORE PUSH1 0x40 DUP1 DUP4 KECCAK256 DUP1 SLOAD PUSH1 0x1 DUP2 DUP2 ADD DUP4 SSTORE SWAP2 DUP6 MSTORE DUP4 DUP6 KECCAK256 ADD DUP8 SWAP1 SSTORE CALLER DUP1 DUP6 MSTORE PUSH1 0xC DUP5 MSTORE DUP3 DUP6 KECCAK256 DUP1 SLOAD DUP1 DUP5 ADD DUP3 SSTORE SWAP1 DUP7 MSTORE DUP5 DUP7 KECCAK256 ADD DUP9 SWAP1 SSTORE SWAP5 SLOAD DUP5 MSTORE PUSH1 0xD DUP4 MSTORE DUP2 DUP5 KECCAK256 SWAP5 DUP5 MSTORE SWAP4 DUP3 MSTORE DUP3 KECCAK256 DUP1 SLOAD SWAP4 DUP5 ADD DUP2 SSTORE DUP3 MSTORE DUP2 KECCAK256 SWAP1 SWAP2 ADD DUP4 SWAP1 SSTORE SWAP1 PUSH1 0x64 SWAP1 PUSH2 0x1243 SWAP1 PUSH3 0xF4240 PUSH2 0x281C JUMP JUMPDEST PUSH2 0x124D SWAP2 SWAP1 PUSH2 0x2833 JUMP JUMPDEST SWAP1 POP PUSH1 0x0 PUSH1 0x64 PUSH2 0x1261 PUSH1 0xA PUSH3 0xF4240 PUSH2 0x281C JUMP JUMPDEST PUSH2 0x126B SWAP2 SWAP1 PUSH2 0x2833 JUMP JUMPDEST SWAP1 POP PUSH1 0x0 DUP2 PUSH2 0x127D DUP5 PUSH3 0xF4240 PUSH2 0x2855 JUMP JUMPDEST PUSH2 0x1287 SWAP2 SWAP1 PUSH2 0x2855 JUMP JUMPDEST SWAP1 POP DUP1 PUSH1 0xE PUSH1 0x0 PUSH1 0x4 SLOAD DUP2 MSTORE PUSH1 0x20 ADD SWAP1 DUP2 MSTORE PUSH1 0x20 ADD PUSH1 0x0 KECCAK256 PUSH1 0x0 DUP3 DUP3 SLOAD PUSH2 0x12AE SWAP2 SWAP1 PUSH2 0x2868 JUMP JUMPDEST SWAP3 POP POP DUP2 SWAP1 SSTORE POP DUP3 PUSH1 0x7 PUSH1 0x0 DUP3 DUP3 SLOAD PUSH2 0x12C7 SWAP2 SWAP1 PUSH2 0x2868 JUMP JUMPDEST SWAP3 POP POP DUP2 SWAP1 SSTORE POP DUP2 PUSH1 0x8 PUSH1 0x0 DUP3 DUP3 SLOAD PUSH2 0x12E0 SWAP2 SWAP1 PUSH2 0x2868 JUMP JUMPDEST SWAP1 SWAP2 SSTORE POP POP PUSH1 0x6 DUP1 SLOAD SWAP1 PUSH1 0x0 PUSH2 0x12F5 DUP4 PUSH2 0x2803 JUMP JUMPDEST SWAP2 SWAP1 POP SSTORE POP CALLER PUSH1 0x1 PUSH1 0x1 PUSH1 0xA0 SHL SUB AND DUP5 PUSH32 0x8F30B489B7EB0548883C9FADE87751E457AD778E15262C1E54F2038D676501BB DUP9 DUP11 PUSH1 0x4 SLOAD PUSH1 0x40 MLOAD PUSH2 0x133A SWAP4 SWAP3 SWAP2 SWAP1 PUSH2 0x28F5 JUMP JUMPDEST PUSH1 0x40 MLOAD DUP1 SWAP2 SUB SWAP1 LOG3 POP POP POP POP POP PUSH2 0x1350 PUSH1 0x1 DUP1 SSTORE JUMP JUMPDEST POP POP JUMP JUMPDEST PUSH2 0x135C PUSH2 0x1F54 JUMP JUMPDEST PUSH1 0x4 DUP3 MLOAD EQ PUSH2 0x13BF JUMPI PUSH1 0x40 MLOAD PUSH3 0x461BCD PUSH1 0xE5 SHL DUP2 MSTORE PUSH1 0x20 PUSH1 0x4 DUP3 ADD MSTORE PUSH1 0x29 PUSH1 0x24 DUP3 ADD MSTORE PUSH32 0x44656265206861626572206578616374616D656E7465203420656D6F6A697320 PUSH1 0x44 DUP3 ADD MSTORE PUSH9 0x67616E61646F726573 PUSH1 0xB8 SHL PUSH1 0x64 DUP3 ADD MSTORE PUSH1 0x84 ADD PUSH2 0x7CE JUMP JUMPDEST PUSH1 0x4 SLOAD PUSH1 0x0 DUP2 DUP2 MSTORE PUSH1 0xE PUSH1 0x20 SWAP1 DUP2 MSTORE PUSH1 0x40 DUP1 DUP4 KECCAK256 SLOAD PUSH1 0xB DUP4 MSTORE DUP2 DUP5 KECCAK256 DUP1 SLOAD DUP4 MLOAD DUP2 DUP7 MUL DUP2 ADD DUP7 ADD SWAP1 SWAP5 MSTORE DUP1 DUP5 MSTORE SWAP2 SWAP5 SWAP4 DUP5 SWAP4 DUP5 SWAP4 DUP5 SWAP4 DUP5 SWAP4 SWAP1 SWAP2 SWAP1 DUP4 ADD DUP3 DUP3 DUP1 ISZERO PUSH2 0x1429 JUMPI PUSH1 0x20 MUL DUP3 ADD SWAP2 SWAP1 PUSH1 0x0 MSTORE PUSH1 0x20 PUSH1 0x0 KECCAK256 SWAP1 JUMPDEST DUP2 SLOAD DUP2 MSTORE PUSH1 0x20 ADD SWAP1 PUSH1 0x1 ADD SWAP1 DUP1 DUP4 GT PUSH2 0x1415 JUMPI JUMPDEST POP POP POP POP POP SWAP1 POP PUSH1 0x0 JUMPDEST DUP2 MLOAD DUP2 LT ISZERO PUSH2 0x17B6 JUMPI PUSH1 0x0 DUP3 DUP3 DUP2 MLOAD DUP2 LT PUSH2 0x1450 JUMPI PUSH2 0x1450 PUSH2 0x291E JUMP JUMPDEST PUSH1 0x20 MUL PUSH1 0x20 ADD ADD MLOAD SWAP1 POP PUSH1 0x0 PUSH1 0xA PUSH1 0x0 DUP4 DUP2 MSTORE PUSH1 0x20 ADD SWAP1 DUP2 MSTORE PUSH1 0x20 ADD PUSH1 0x0 KECCAK256 SWAP1 POP PUSH1 0x0 PUSH2 0x1550 DUP3 PUSH1 0x2 ADD DUP1 SLOAD DUP1 PUSH1 0x20 MUL PUSH1 0x20 ADD PUSH1 0x40 MLOAD SWAP1 DUP2 ADD PUSH1 0x40 MSTORE DUP1 SWAP3 SWAP2 SWAP1 DUP2 DUP2 MSTORE PUSH1 0x20 ADD PUSH1 0x0 SWAP1 JUMPDEST DUP3 DUP3 LT ISZERO PUSH2 0x1546 JUMPI DUP4 DUP3 SWAP1 PUSH1 0x0 MSTORE PUSH1 0x20 PUSH1 0x0 KECCAK256 ADD DUP1 SLOAD PUSH2 0x14B9 SWAP1 PUSH2 0x27B3 JUMP JUMPDEST DUP1 PUSH1 0x1F ADD PUSH1 0x20 DUP1 SWAP2 DIV MUL PUSH1 0x20 ADD PUSH1 0x40 MLOAD SWAP1 DUP2 ADD PUSH1 0x40 MSTORE DUP1 SWAP3 SWAP2 SWAP1 DUP2 DUP2 MSTORE PUSH1 0x20 ADD DUP3 DUP1 SLOAD PUSH2 0x14E5 SWAP1 PUSH2 0x27B3 JUMP JUMPDEST DUP1 ISZERO PUSH2 0x1532 JUMPI DUP1 PUSH1 0x1F LT PUSH2 0x1507 JUMPI PUSH2 0x100 DUP1 DUP4 SLOAD DIV MUL DUP4 MSTORE SWAP2 PUSH1 0x20 ADD SWAP2 PUSH2 0x1532 JUMP JUMPDEST DUP3 ADD SWAP2 SWAP1 PUSH1 0x0 MSTORE PUSH1 0x20 PUSH1 0x0 KECCAK256 SWAP1 JUMPDEST DUP2 SLOAD DUP2 MSTORE SWAP1 PUSH1 0x1 ADD SWAP1 PUSH1 0x20 ADD DUP1 DUP4 GT PUSH2 0x1515 JUMPI DUP3 SWAP1 SUB PUSH1 0x1F AND DUP3 ADD SWAP2 JUMPDEST POP POP POP POP POP DUP2 MSTORE PUSH1 0x20 ADD SWAP1 PUSH1 0x1 ADD SWAP1 PUSH2 0x149A JUMP JUMPDEST POP POP POP POP DUP15 PUSH2 0x1FAB JUMP JUMPDEST SWAP1 POP PUSH1 0x0 PUSH2 0x1631 DUP4 PUSH1 0x2 ADD DUP1 SLOAD DUP1 PUSH1 0x20 MUL PUSH1 0x20 ADD PUSH1 0x40 MLOAD SWAP1 DUP2 ADD PUSH1 0x40 MSTORE DUP1 SWAP3 SWAP2 SWAP1 DUP2 DUP2 MSTORE PUSH1 0x20 ADD PUSH1 0x0 SWAP1 JUMPDEST DUP3 DUP3 LT ISZERO PUSH2 0x1627 JUMPI DUP4 DUP3 SWAP1 PUSH1 0x0 MSTORE PUSH1 0x20 PUSH1 0x0 KECCAK256 ADD DUP1 SLOAD PUSH2 0x159A SWAP1 PUSH2 0x27B3 JUMP JUMPDEST DUP1 PUSH1 0x1F ADD PUSH1 0x20 DUP1 SWAP2 DIV MUL PUSH1 0x20 ADD PUSH1 0x40 MLOAD SWAP1 DUP2 ADD PUSH1 0x40 MSTORE DUP1 SWAP3 SWAP2 SWAP1 DUP2 DUP2 MSTORE PUSH1 0x20 ADD DUP3 DUP1 SLOAD PUSH2 0x15C6 SWAP1 PUSH2 0x27B3 JUMP JUMPDEST DUP1 ISZERO PUSH2 0x1613 JUMPI DUP1 PUSH1 0x1F LT PUSH2 0x15E8 JUMPI PUSH2 0x100 DUP1 DUP4 SLOAD DIV MUL DUP4 MSTORE SWAP2 PUSH1 0x20 ADD SWAP2 PUSH2 0x1613 JUMP JUMPDEST DUP3 ADD SWAP2 SWAP1 PUSH1 0x0 MSTORE PUSH1 0x20 PUSH1 0x0 KECCAK256 SWAP1 JUMPDEST DUP2 SLOAD DUP2 MSTORE SWAP1 PUSH1 0x1 ADD SWAP1 PUSH1 0x20 ADD DUP1 DUP4 GT PUSH2 0x15F6 JUMPI DUP3 SWAP1 SUB PUSH1 0x1F AND DUP3 ADD SWAP2 JUMPDEST POP POP POP POP POP DUP2 MSTORE PUSH1 0x20 ADD SWAP1 PUSH1 0x1 ADD SWAP1 PUSH2 0x157B JUMP JUMPDEST POP POP POP POP DUP16 PUSH2 0x2084 JUMP JUMPDEST SWAP1 POP DUP2 PUSH1 0x4 SUB PUSH2 0x168F JUMPI PUSH1 0x0 DUP13 DUP2 MSTORE PUSH1 0xF PUSH1 0x20 SWAP1 DUP2 MSTORE PUSH1 0x40 DUP3 KECCAK256 PUSH1 0x1 DUP1 DUP8 ADD SLOAD DUP3 SLOAD SWAP2 DUP3 ADD DUP4 SSTORE SWAP2 DUP5 MSTORE SWAP2 SWAP1 SWAP3 KECCAK256 ADD DUP1 SLOAD PUSH1 0x1 PUSH1 0x1 PUSH1 0xA0 SHL SUB NOT AND PUSH1 0x1 PUSH1 0x1 PUSH1 0xA0 SHL SUB SWAP1 SWAP3 AND SWAP2 SWAP1 SWAP2 OR SWAP1 SSTORE DUP10 PUSH2 0x1687 DUP2 PUSH2 0x2803 JUMP JUMPDEST SWAP11 POP POP PUSH2 0x179F JUMP JUMPDEST DUP1 PUSH1 0x4 SUB PUSH2 0x16EB JUMPI PUSH1 0x0 DUP13 DUP2 MSTORE PUSH1 0x10 PUSH1 0x20 SWAP1 DUP2 MSTORE PUSH1 0x40 DUP3 KECCAK256 PUSH1 0x1 DUP1 DUP8 ADD SLOAD DUP3 SLOAD SWAP2 DUP3 ADD DUP4 SSTORE SWAP2 DUP5 MSTORE SWAP2 SWAP1 SWAP3 KECCAK256 ADD DUP1 SLOAD PUSH1 0x1 PUSH1 0x1 PUSH1 0xA0 SHL SUB NOT AND PUSH1 0x1 PUSH1 0x1 PUSH1 0xA0 SHL SUB SWAP1 SWAP3 AND SWAP2 SWAP1 SWAP2 OR SWAP1 SSTORE DUP9 PUSH2 0x16E3 DUP2 PUSH2 0x2803 JUMP JUMPDEST SWAP10 POP POP PUSH2 0x179F JUMP JUMPDEST DUP2 PUSH1 0x3 SUB PUSH2 0x1747 JUMPI PUSH1 0x0 DUP13 DUP2 MSTORE PUSH1 0x11 PUSH1 0x20 SWAP1 DUP2 MSTORE PUSH1 0x40 DUP3 KECCAK256 PUSH1 0x1 DUP1 DUP8 ADD SLOAD DUP3 SLOAD SWAP2 DUP3 ADD DUP4 SSTORE SWAP2 DUP5 MSTORE SWAP2 SWAP1 SWAP3 KECCAK256 ADD DUP1 SLOAD PUSH1 0x1 PUSH1 0x1 PUSH1 0xA0 SHL SUB NOT AND PUSH1 0x1 PUSH1 0x1 PUSH1 0xA0 SHL SUB SWAP1 SWAP3 AND SWAP2 SWAP1 SWAP2 OR SWAP1 SSTORE DUP8 PUSH2 0x173F DUP2 PUSH2 0x2803 JUMP JUMPDEST SWAP9 POP POP PUSH2 0x179F JUMP JUMPDEST DUP1 PUSH1 0x3 SUB PUSH2 0x179F JUMPI PUSH1 0x0 DUP13 DUP2 MSTORE PUSH1 0x12 PUSH1 0x20 SWAP1 DUP2 MSTORE PUSH1 0x40 DUP3 KECCAK256 PUSH1 0x1 DUP1 DUP8 ADD SLOAD DUP3 SLOAD SWAP2 DUP3 ADD DUP4 SSTORE SWAP2 DUP5 MSTORE SWAP2 SWAP1 SWAP3 KECCAK256 ADD DUP1 SLOAD PUSH1 0x1 PUSH1 0x1 PUSH1 0xA0 SHL SUB NOT AND PUSH1 0x1 PUSH1 0x1 PUSH1 0xA0 SHL SUB SWAP1 SWAP3 AND SWAP2 SWAP1 SWAP2 OR SWAP1 SSTORE DUP7 PUSH2 0x179B DUP2 PUSH2 0x2803 JUMP JUMPDEST SWAP8 POP POP JUMPDEST POP POP POP POP DUP1 DUP1 PUSH2 0x17AE SWAP1 PUSH2 0x2803 JUMP JUMPDEST SWAP2 POP POP PUSH2 0x1433 JUMP JUMPDEST POP PUSH1 0x40 MLOAD DUP1 PUSH2 0x120 ADD PUSH1 0x40 MSTORE DUP1 DUP9 DUP2 MSTORE PUSH1 0x20 ADD DUP11 DUP2 MSTORE PUSH1 0x20 ADD DUP8 DUP2 MSTORE PUSH1 0x20 ADD TIMESTAMP DUP2 MSTORE PUSH1 0x20 ADD PUSH1 0x1 ISZERO ISZERO DUP2 MSTORE PUSH1 0x20 ADD DUP7 DUP2 MSTORE PUSH1 0x20 ADD DUP6 DUP2 MSTORE PUSH1 0x20 ADD DUP5 DUP2 MSTORE PUSH1 0x20 ADD DUP4 DUP2 MSTORE POP PUSH1 0x9 PUSH1 0x0 DUP10 DUP2 MSTORE PUSH1 0x20 ADD SWAP1 DUP2 MSTORE PUSH1 0x20 ADD PUSH1 0x0 KECCAK256 PUSH1 0x0 DUP3 ADD MLOAD DUP2 PUSH1 0x0 ADD SSTORE PUSH1 0x20 DUP3 ADD MLOAD DUP2 PUSH1 0x1 ADD SWAP1 DUP1 MLOAD SWAP1 PUSH1 0x20 ADD SWAP1 PUSH2 0x1833 SWAP3 SWAP2 SWAP1 PUSH2 0x228B JUMP JUMPDEST POP PUSH1 0x40 DUP3 ADD MLOAD PUSH1 0x2 DUP3 ADD SSTORE PUSH1 0x60 DUP3 ADD MLOAD PUSH1 0x3 DUP3 ADD SSTORE PUSH1 0x80 DUP3 ADD MLOAD PUSH1 0x4 DUP1 DUP4 ADD DUP1 SLOAD PUSH1 0xFF NOT AND SWAP3 ISZERO ISZERO SWAP3 SWAP1 SWAP3 OR SWAP1 SWAP2 SSTORE PUSH1 0xA0 DUP4 ADD MLOAD PUSH1 0x5 DUP4 ADD SSTORE PUSH1 0xC0 DUP4 ADD MLOAD PUSH1 0x6 DUP4 ADD SSTORE PUSH1 0xE0 DUP4 ADD MLOAD PUSH1 0x7 DUP4 ADD SSTORE PUSH2 0x100 SWAP1 SWAP3 ADD MLOAD PUSH1 0x8 SWAP1 SWAP2 ADD SSTORE DUP1 SLOAD SWAP1 PUSH1 0x0 PUSH2 0x189B DUP4 PUSH2 0x2803 JUMP JUMPDEST SWAP2 SWAP1 POP SSTORE POP PUSH1 0x0 DUP6 GT DUP1 ISZERO PUSH2 0x18B2 JUMPI POP PUSH1 0x0 PUSH1 0x8 SLOAD GT JUMPDEST ISZERO PUSH2 0x1908 JUMPI PUSH1 0x8 SLOAD PUSH1 0x4 SLOAD PUSH1 0x0 SWAP1 DUP2 MSTORE PUSH1 0xE PUSH1 0x20 SWAP1 DUP2 MSTORE PUSH1 0x40 DUP1 DUP4 KECCAK256 SWAP4 SWAP1 SWAP4 SSTORE SWAP2 MLOAD SWAP1 DUP2 MSTORE PUSH32 0xDE3BADF77C9ACE4411E7FA20ED2E5E76927D886D5D0FBBFC49C7A12B6E47BDC SWAP2 ADD PUSH1 0x40 MLOAD DUP1 SWAP2 SUB SWAP1 LOG1 PUSH1 0x0 PUSH1 0x8 SSTORE JUMPDEST DUP7 PUSH32 0xBDA39ED4DC5BBEF986F196E14B57C8077120A47B4F195D52A6EDB54E730D617A DUP11 DUP9 TIMESTAMP PUSH1 0x40 MLOAD PUSH2 0x193C SWAP4 SWAP3 SWAP2 SWAP1 PUSH2 0x2934 JUMP JUMPDEST PUSH1 0x40 MLOAD DUP1 SWAP2 SUB SWAP1 LOG2 POP POP POP POP POP POP POP POP POP JUMP JUMPDEST PUSH1 0xC PUSH1 0x20 MSTORE DUP2 PUSH1 0x0 MSTORE PUSH1 0x40 PUSH1 0x0 KECCAK256 DUP2 DUP2 SLOAD DUP2 LT PUSH2 0xEC1 JUMPI PUSH1 0x0 DUP1 REVERT JUMPDEST PUSH2 0x19BC PUSH1 0x40 MLOAD DUP1 PUSH2 0x120 ADD PUSH1 0x40 MSTORE DUP1 PUSH1 0x0 DUP2 MSTORE PUSH1 0x20 ADD PUSH1 0x60 DUP2 MSTORE PUSH1 0x20 ADD PUSH1 0x0 DUP2 MSTORE PUSH1 0x20 ADD PUSH1 0x0 DUP2 MSTORE PUSH1 0x20 ADD PUSH1 0x0 ISZERO ISZERO DUP2 MSTORE PUSH1 0x20 ADD PUSH1 0x0 DUP2 MSTORE PUSH1 0x20 ADD PUSH1 0x0 DUP2 MSTORE PUSH1 0x20 ADD PUSH1 0x0 DUP2 MSTORE PUSH1 0x20 ADD PUSH1 0x0 DUP2 MSTORE POP SWAP1 JUMP JUMPDEST PUSH1 0x9 PUSH1 0x0 DUP4 DUP2 MSTORE PUSH1 0x20 ADD SWAP1 DUP2 MSTORE PUSH1 0x20 ADD PUSH1 0x0 KECCAK256 PUSH1 0x40 MLOAD DUP1 PUSH2 0x120 ADD PUSH1 0x40 MSTORE SWAP1 DUP2 PUSH1 0x0 DUP3 ADD SLOAD DUP2 MSTORE PUSH1 0x20 ADD PUSH1 0x1 DUP3 ADD DUP1 SLOAD DUP1 PUSH1 0x20 MUL PUSH1 0x20 ADD PUSH1 0x40 MLOAD SWAP1 DUP2 ADD PUSH1 0x40 MSTORE DUP1 SWAP3 SWAP2 SWAP1 DUP2 DUP2 MSTORE PUSH1 0x20 ADD PUSH1 0x0 SWAP1 JUMPDEST DUP3 DUP3 LT ISZERO PUSH2 0x1AB6 JUMPI DUP4 DUP3 SWAP1 PUSH1 0x0 MSTORE PUSH1 0x20 PUSH1 0x0 KECCAK256 ADD DUP1 SLOAD PUSH2 0x1A29 SWAP1 PUSH2 0x27B3 JUMP JUMPDEST DUP1 PUSH1 0x1F ADD PUSH1 0x20 DUP1 SWAP2 DIV MUL PUSH1 0x20 ADD PUSH1 0x40 MLOAD SWAP1 DUP2 ADD PUSH1 0x40 MSTORE DUP1 SWAP3 SWAP2 SWAP1 DUP2 DUP2 MSTORE PUSH1 0x20 ADD DUP3 DUP1 SLOAD PUSH2 0x1A55 SWAP1 PUSH2 0x27B3 JUMP JUMPDEST DUP1 ISZERO PUSH2 0x1AA2 JUMPI DUP1 PUSH1 0x1F LT PUSH2 0x1A77 JUMPI PUSH2 0x100 DUP1 DUP4 SLOAD DIV MUL DUP4 MSTORE SWAP2 PUSH1 0x20 ADD SWAP2 PUSH2 0x1AA2 JUMP JUMPDEST DUP3 ADD SWAP2 SWAP1 PUSH1 0x0 MSTORE PUSH1 0x20 PUSH1 0x0 KECCAK256 SWAP1 JUMPDEST DUP2 SLOAD DUP2 MSTORE SWAP1 PUSH1 0x1 ADD SWAP1 PUSH1 0x20 ADD DUP1 DUP4 GT PUSH2 0x1A85 JUMPI DUP3 SWAP1 SUB PUSH1 0x1F AND DUP3 ADD SWAP2 JUMPDEST POP POP POP POP POP DUP2 MSTORE PUSH1 0x20 ADD SWAP1 PUSH1 0x1 ADD SWAP1 PUSH2 0x1A0A JUMP JUMPDEST POP POP POP SWAP1 DUP3 MSTORE POP PUSH1 0x2 DUP3 ADD SLOAD PUSH1 0x20 DUP3 ADD MSTORE PUSH1 0x3 DUP3 ADD SLOAD PUSH1 0x40 DUP3 ADD MSTORE PUSH1 0x4 DUP3 ADD SLOAD PUSH1 0xFF AND ISZERO ISZERO PUSH1 0x60 DUP3 ADD MSTORE PUSH1 0x5 DUP3 ADD SLOAD PUSH1 0x80 DUP3 ADD MSTORE PUSH1 0x6 DUP3 ADD SLOAD PUSH1 0xA0 DUP3 ADD MSTORE PUSH1 0x7 DUP3 ADD SLOAD PUSH1 0xC0 DUP3 ADD MSTORE PUSH1 0x8 SWAP1 SWAP2 ADD SLOAD PUSH1 0xE0 SWAP1 SWAP2 ADD MSTORE SWAP3 SWAP2 POP POP JUMP JUMPDEST PUSH2 0x1B18 PUSH2 0x1F81 JUMP JUMPDEST PUSH1 0x0 DUP2 DUP2 MSTORE PUSH1 0xA PUSH1 0x20 MSTORE PUSH1 0x40 SWAP1 KECCAK256 PUSH1 0x1 DUP2 ADD SLOAD PUSH1 0x1 PUSH1 0x1 PUSH1 0xA0 SHL SUB AND CALLER EQ PUSH2 0x1B82 JUMPI PUSH1 0x40 MLOAD PUSH3 0x461BCD PUSH1 0xE5 SHL DUP2 MSTORE PUSH1 0x20 PUSH1 0x4 DUP3 ADD MSTORE PUSH1 0x1B PUSH1 0x24 DUP3 ADD MSTORE PUSH32 0x4E6F206572657320656C206475656E6F2064656C207469636B65740000000000 PUSH1 0x44 DUP3 ADD MSTORE PUSH1 0x64 ADD PUSH2 0x7CE JUMP JUMPDEST PUSH1 0x4 DUP2 ADD SLOAD PUSH1 0xFF AND ISZERO PUSH2 0x1BCD JUMPI PUSH1 0x40 MLOAD PUSH3 0x461BCD PUSH1 0xE5 SHL DUP2 MSTORE PUSH1 0x20 PUSH1 0x4 DUP3 ADD MSTORE PUSH1 0x13 PUSH1 0x24 DUP3 ADD MSTORE PUSH19 0x5072656D696F207961207265636C616D61646F PUSH1 0x68 SHL PUSH1 0x44 DUP3 ADD MSTORE PUSH1 0x64 ADD PUSH2 0x7CE JUMP JUMPDEST PUSH1 0x3 DUP2 ADD SLOAD PUSH1 0x0 SWAP1 DUP2 MSTORE PUSH1 0x9 PUSH1 0x20 MSTORE PUSH1 0x40 SWAP1 KECCAK256 PUSH1 0x4 ADD SLOAD PUSH1 0xFF AND PUSH2 0x1C2E JUMPI PUSH1 0x40 MLOAD PUSH3 0x461BCD PUSH1 0xE5 SHL DUP2 MSTORE PUSH1 0x20 PUSH1 0x4 DUP3 ADD MSTORE PUSH1 0x18 PUSH1 0x24 DUP3 ADD MSTORE PUSH24 0x536F7274656F2061756E206E6F20636F6D706C657461646F PUSH1 0x40 SHL PUSH1 0x44 DUP3 ADD MSTORE PUSH1 0x64 ADD PUSH2 0x7CE JUMP JUMPDEST PUSH1 0x3 DUP2 ADD SLOAD PUSH1 0x0 SWAP1 DUP2 MSTORE PUSH1 0x13 PUSH1 0x20 SWAP1 DUP2 MSTORE PUSH1 0x40 DUP1 DUP4 KECCAK256 CALLER DUP5 MSTORE SWAP1 SWAP2 MSTORE SWAP1 KECCAK256 SLOAD PUSH1 0xFF AND ISZERO PUSH2 0x1CAE JUMPI PUSH1 0x40 MLOAD PUSH3 0x461BCD PUSH1 0xE5 SHL DUP2 MSTORE PUSH1 0x20 PUSH1 0x4 DUP3 ADD MSTORE PUSH1 0x28 PUSH1 0x24 DUP3 ADD MSTORE PUSH32 0x5961207265636C616D6173746520756E207072656D696F207061726120657374 PUSH1 0x44 DUP3 ADD MSTORE PUSH8 0x6520736F7274656F PUSH1 0xC0 SHL PUSH1 0x64 DUP3 ADD MSTORE PUSH1 0x84 ADD PUSH2 0x7CE JUMP JUMPDEST PUSH1 0x0 PUSH2 0x1CB9 DUP4 PUSH2 0xAE9 JUMP JUMPDEST SWAP1 POP PUSH1 0x0 DUP2 GT PUSH2 0x1CFF JUMPI PUSH1 0x40 MLOAD PUSH3 0x461BCD PUSH1 0xE5 SHL DUP2 MSTORE PUSH1 0x20 PUSH1 0x4 DUP3 ADD MSTORE PUSH1 0x11 PUSH1 0x24 DUP3 ADD MSTORE PUSH17 0x2A34B1B5B2BA1037379033B0B730B237B9 PUSH1 0x79 SHL PUSH1 0x44 DUP3 ADD MSTORE PUSH1 0x64 ADD PUSH2 0x7CE JUMP JUMPDEST PUSH1 0x3 DUP3 ADD SLOAD PUSH1 0x0 SWAP1 DUP2 MSTORE PUSH1 0x9 PUSH1 0x20 MSTORE PUSH1 0x40 DUP2 KECCAK256 PUSH1 0x2 DUP2 ADD SLOAD SWAP1 PUSH1 0x1 DUP5 EQ DUP1 ISZERO PUSH2 0x1D2C JUMPI POP PUSH1 0x0 DUP2 PUSH1 0x5 ADD SLOAD GT JUMPDEST ISZERO PUSH2 0x1D5E JUMPI PUSH1 0x5 DUP2 ADD SLOAD PUSH1 0x64 PUSH2 0x1D43 PUSH1 0x46 DUP6 PUSH2 0x281C JUMP JUMPDEST PUSH2 0x1D4D SWAP2 SWAP1 PUSH2 0x2833 JUMP JUMPDEST PUSH2 0x1D57 SWAP2 SWAP1 PUSH2 0x2833 JUMP JUMPDEST SWAP3 POP PUSH2 0x1DC3 JUMP JUMPDEST DUP4 PUSH1 0x2 EQ DUP1 ISZERO PUSH2 0x1D72 JUMPI POP PUSH1 0x0 DUP2 PUSH1 0x6 ADD SLOAD GT JUMPDEST ISZERO PUSH2 0x1D89 JUMPI PUSH1 0x6 DUP2 ADD SLOAD PUSH1 0x64 PUSH2 0x1D43 PUSH1 0xA DUP6 PUSH2 0x281C JUMP JUMPDEST DUP4 PUSH1 0x3 EQ DUP1 ISZERO PUSH2 0x1D9D JUMPI POP PUSH1 0x0 DUP2 PUSH1 0x7 ADD SLOAD GT JUMPDEST ISZERO PUSH2 0x1DB4 JUMPI PUSH1 0x7 DUP2 ADD SLOAD PUSH1 0x64 PUSH2 0x1D43 PUSH1 0x5 DUP6 PUSH2 0x281C JUMP JUMPDEST DUP4 PUSH1 0x4 SUB PUSH2 0x1DC3 JUMPI PUSH3 0xF4240 SWAP3 POP JUMPDEST PUSH1 0x4 DUP6 DUP2 ADD DUP1 SLOAD PUSH1 0x1 PUSH1 0xFF NOT SWAP2 DUP3 AND DUP2 OR SWAP1 SWAP3 SSTORE PUSH1 0x3 DUP9 ADD SLOAD PUSH1 0x0 SWAP1 DUP2 MSTORE PUSH1 0x13 PUSH1 0x20 SWAP1 DUP2 MSTORE PUSH1 0x40 DUP1 DUP4 KECCAK256 CALLER DUP1 DUP6 MSTORE SWAP3 MSTORE SWAP2 DUP3 SWAP1 KECCAK256 DUP1 SLOAD SWAP1 SWAP4 AND SWAP1 SWAP4 OR SWAP1 SWAP2 SSTORE PUSH1 0x2 SLOAD SWAP1 MLOAD PUSH4 0xA9059CBB PUSH1 0xE0 SHL DUP2 MSTORE SWAP3 DUP4 ADD SWAP2 SWAP1 SWAP2 MSTORE PUSH1 0x24 DUP3 ADD DUP6 SWAP1 MSTORE PUSH1 0x1 PUSH1 0x1 PUSH1 0xA0 SHL SUB AND SWAP1 PUSH4 0xA9059CBB SWAP1 PUSH1 0x44 ADD PUSH1 0x20 PUSH1 0x40 MLOAD DUP1 DUP4 SUB DUP2 PUSH1 0x0 DUP8 GAS CALL ISZERO DUP1 ISZERO PUSH2 0x1E51 JUMPI RETURNDATASIZE PUSH1 0x0 DUP1 RETURNDATACOPY RETURNDATASIZE PUSH1 0x0 REVERT JUMPDEST POP POP POP POP PUSH1 0x40 MLOAD RETURNDATASIZE PUSH1 0x1F NOT PUSH1 0x1F DUP3 ADD AND DUP3 ADD DUP1 PUSH1 0x40 MSTORE POP DUP2 ADD SWAP1 PUSH2 0x1E75 SWAP2 SWAP1 PUSH2 0x2791 JUMP JUMPDEST PUSH2 0x1ECB JUMPI PUSH1 0x40 MLOAD PUSH3 0x461BCD PUSH1 0xE5 SHL DUP2 MSTORE PUSH1 0x20 PUSH1 0x4 DUP3 ADD MSTORE PUSH1 0x21 PUSH1 0x24 DUP3 ADD MSTORE PUSH32 0x46616C6C6F206C61207472616E73666572656E6369612064656C207072656D69 PUSH1 0x44 DUP3 ADD MSTORE PUSH1 0x6F PUSH1 0xF8 SHL PUSH1 0x64 DUP3 ADD MSTORE PUSH1 0x84 ADD PUSH2 0x7CE JUMP JUMPDEST PUSH1 0x40 DUP1 MLOAD DUP5 DUP2 MSTORE PUSH1 0x20 DUP2 ADD DUP7 SWAP1 MSTORE CALLER SWAP2 DUP9 SWAP2 PUSH32 0x64DA964E036DD66A7BE792791F60A47EC5378950B9D12795DE3F453AA3940EB0 SWAP2 ADD PUSH1 0x40 MLOAD DUP1 SWAP2 SUB SWAP1 LOG3 POP POP POP POP POP PUSH2 0x1F16 PUSH1 0x1 DUP1 SSTORE JUMP JUMPDEST POP JUMP JUMPDEST PUSH2 0x1F21 PUSH2 0x1F54 JUMP JUMPDEST PUSH1 0x1 PUSH1 0x1 PUSH1 0xA0 SHL SUB DUP2 AND PUSH2 0x1F4B JUMPI PUSH1 0x40 MLOAD PUSH4 0x1E4FBDF7 PUSH1 0xE0 SHL DUP2 MSTORE PUSH1 0x0 PUSH1 0x4 DUP3 ADD MSTORE PUSH1 0x24 ADD PUSH2 0x7CE JUMP JUMPDEST PUSH2 0x1F16 DUP2 PUSH2 0x223B JUMP JUMPDEST PUSH1 0x0 SLOAD PUSH1 0x1 PUSH1 0x1 PUSH1 0xA0 SHL SUB AND CALLER EQ PUSH2 0x8EA JUMPI PUSH1 0x40 MLOAD PUSH4 0x118CDAA7 PUSH1 0xE0 SHL DUP2 MSTORE CALLER PUSH1 0x4 DUP3 ADD MSTORE PUSH1 0x24 ADD PUSH2 0x7CE JUMP JUMPDEST PUSH1 0x2 PUSH1 0x1 SLOAD SUB PUSH2 0x1FA4 JUMPI PUSH1 0x40 MLOAD PUSH4 0x3EE5AEB5 PUSH1 0xE0 SHL DUP2 MSTORE PUSH1 0x4 ADD PUSH1 0x40 MLOAD DUP1 SWAP2 SUB SWAP1 REVERT JUMPDEST PUSH1 0x2 PUSH1 0x1 SSTORE JUMP JUMPDEST PUSH1 0x0 DUP2 MLOAD DUP4 MLOAD EQ PUSH2 0x200A JUMPI PUSH1 0x40 MLOAD PUSH3 0x461BCD PUSH1 0xE5 SHL DUP2 MSTORE PUSH1 0x20 PUSH1 0x4 DUP3 ADD MSTORE PUSH1 0x24 DUP1 DUP3 ADD MSTORE PUSH32 0x41727261797320646562656E2074656E6572206C61206D69736D61206C6F6E67 PUSH1 0x44 DUP3 ADD MSTORE PUSH4 0x1A5D1D59 PUSH1 0xE2 SHL PUSH1 0x64 DUP3 ADD MSTORE PUSH1 0x84 ADD PUSH2 0x7CE JUMP JUMPDEST PUSH1 0x0 JUMPDEST DUP4 MLOAD DUP2 LT ISZERO PUSH2 0x207D JUMPI DUP3 DUP2 DUP2 MLOAD DUP2 LT PUSH2 0x2028 JUMPI PUSH2 0x2028 PUSH2 0x291E JUMP JUMPDEST PUSH1 0x20 MUL PUSH1 0x20 ADD ADD MLOAD DUP1 MLOAD SWAP1 PUSH1 0x20 ADD KECCAK256 DUP5 DUP3 DUP2 MLOAD DUP2 LT PUSH2 0x2049 JUMPI PUSH2 0x2049 PUSH2 0x291E JUMP JUMPDEST PUSH1 0x20 MUL PUSH1 0x20 ADD ADD MLOAD DUP1 MLOAD SWAP1 PUSH1 0x20 ADD KECCAK256 SUB PUSH2 0x206B JUMPI DUP2 PUSH2 0x2067 DUP2 PUSH2 0x2803 JUMP JUMPDEST SWAP3 POP POP JUMPDEST DUP1 PUSH2 0x2075 DUP2 PUSH2 0x2803 JUMP JUMPDEST SWAP2 POP POP PUSH2 0x200D JUMP JUMPDEST POP SWAP3 SWAP2 POP POP JUMP JUMPDEST PUSH1 0x0 DUP1 DUP4 MLOAD PUSH8 0xFFFFFFFFFFFFFFFF DUP2 GT ISZERO PUSH2 0x20A1 JUMPI PUSH2 0x20A1 PUSH2 0x255D JUMP JUMPDEST PUSH1 0x40 MLOAD SWAP1 DUP1 DUP3 MSTORE DUP1 PUSH1 0x20 MUL PUSH1 0x20 ADD DUP3 ADD PUSH1 0x40 MSTORE DUP1 ISZERO PUSH2 0x20CA JUMPI DUP2 PUSH1 0x20 ADD PUSH1 0x20 DUP3 MUL DUP1 CALLDATASIZE DUP4 CALLDATACOPY ADD SWAP1 POP JUMPDEST POP SWAP1 POP PUSH1 0x0 DUP4 MLOAD PUSH8 0xFFFFFFFFFFFFFFFF DUP2 GT ISZERO PUSH2 0x20E9 JUMPI PUSH2 0x20E9 PUSH2 0x255D JUMP JUMPDEST PUSH1 0x40 MLOAD SWAP1 DUP1 DUP3 MSTORE DUP1 PUSH1 0x20 MUL PUSH1 0x20 ADD DUP3 ADD PUSH1 0x40 MSTORE DUP1 ISZERO PUSH2 0x2112 JUMPI DUP2 PUSH1 0x20 ADD PUSH1 0x20 DUP3 MUL DUP1 CALLDATASIZE DUP4 CALLDATACOPY ADD SWAP1 POP JUMPDEST POP SWAP1 POP PUSH1 0x0 JUMPDEST DUP6 MLOAD DUP2 LT ISZERO PUSH2 0x2232 JUMPI DUP3 DUP2 DUP2 MLOAD DUP2 LT PUSH2 0x2133 JUMPI PUSH2 0x2133 PUSH2 0x291E JUMP JUMPDEST PUSH1 0x20 MUL PUSH1 0x20 ADD ADD MLOAD PUSH2 0x2220 JUMPI PUSH1 0x0 JUMPDEST DUP6 MLOAD DUP2 LT ISZERO PUSH2 0x221E JUMPI DUP3 DUP2 DUP2 MLOAD DUP2 LT PUSH2 0x215D JUMPI PUSH2 0x215D PUSH2 0x291E JUMP JUMPDEST PUSH1 0x20 MUL PUSH1 0x20 ADD ADD MLOAD PUSH2 0x220C JUMPI DUP6 DUP2 DUP2 MLOAD DUP2 LT PUSH2 0x217B JUMPI PUSH2 0x217B PUSH2 0x291E JUMP JUMPDEST PUSH1 0x20 MUL PUSH1 0x20 ADD ADD MLOAD DUP1 MLOAD SWAP1 PUSH1 0x20 ADD KECCAK256 DUP8 DUP4 DUP2 MLOAD DUP2 LT PUSH2 0x219C JUMPI PUSH2 0x219C PUSH2 0x291E JUMP JUMPDEST PUSH1 0x20 MUL PUSH1 0x20 ADD ADD MLOAD DUP1 MLOAD SWAP1 PUSH1 0x20 ADD KECCAK256 SUB PUSH2 0x220C JUMPI DUP5 PUSH2 0x21BA DUP2 PUSH2 0x2803 JUMP JUMPDEST SWAP6 POP POP PUSH1 0x1 DUP5 DUP4 DUP2 MLOAD DUP2 LT PUSH2 0x21D1 JUMPI PUSH2 0x21D1 PUSH2 0x291E JUMP JUMPDEST PUSH1 0x20 MUL PUSH1 0x20 ADD ADD SWAP1 ISZERO ISZERO SWAP1 DUP2 ISZERO ISZERO DUP2 MSTORE POP POP PUSH1 0x1 DUP4 DUP3 DUP2 MLOAD DUP2 LT PUSH2 0x21F7 JUMPI PUSH2 0x21F7 PUSH2 0x291E JUMP JUMPDEST SWAP2 ISZERO ISZERO PUSH1 0x20 SWAP3 DUP4 MUL SWAP2 SWAP1 SWAP2 ADD SWAP1 SWAP2 ADD MSTORE PUSH2 0x221E JUMP JUMPDEST DUP1 PUSH2 0x2216 DUP2 PUSH2 0x2803 JUMP JUMPDEST SWAP2 POP POP PUSH2 0x2142 JUMP JUMPDEST POP JUMPDEST DUP1 PUSH2 0x222A DUP2 PUSH2 0x2803 JUMP JUMPDEST SWAP2 POP POP PUSH2 0x2118 JUMP JUMPDEST POP POP POP SWAP3 SWAP2 POP POP JUMP JUMPDEST PUSH1 0x0 DUP1 SLOAD PUSH1 0x1 PUSH1 0x1 PUSH1 0xA0 SHL SUB DUP4 DUP2 AND PUSH1 0x1 PUSH1 0x1 PUSH1 0xA0 SHL SUB NOT DUP4 AND DUP2 OR DUP5 SSTORE PUSH1 0x40 MLOAD SWAP2 SWAP1 SWAP3 AND SWAP3 DUP4 SWAP2 PUSH32 0x8BE0079C531659141344CD1FD0A4F28419497F9722A3DAAFE3B4186F6B6457E0 SWAP2 SWAP1 LOG3 POP POP JUMP JUMPDEST DUP3 DUP1 SLOAD DUP3 DUP3 SSTORE SWAP1 PUSH1 0x0 MSTORE PUSH1 0x20 PUSH1 0x0 KECCAK256 SWAP1 DUP2 ADD SWAP3 DUP3 ISZERO PUSH2 0x22D1 JUMPI SWAP2 PUSH1 0x20 MUL DUP3 ADD JUMPDEST DUP3 DUP2 GT ISZERO PUSH2 0x22D1 JUMPI DUP3 MLOAD DUP3 SWAP1 PUSH2 0x22C1 SWAP1 DUP3 PUSH2 0x29A8 JUMP JUMPDEST POP SWAP2 PUSH1 0x20 ADD SWAP2 SWAP1 PUSH1 0x1 ADD SWAP1 PUSH2 0x22AB JUMP JUMPDEST POP PUSH2 0x22DD SWAP3 SWAP2 POP PUSH2 0x22E1 JUMP JUMPDEST POP SWAP1 JUMP JUMPDEST DUP1 DUP3 GT ISZERO PUSH2 0x22DD JUMPI PUSH1 0x0 PUSH2 0x22F5 DUP3 DUP3 PUSH2 0x22FE JUMP JUMPDEST POP PUSH1 0x1 ADD PUSH2 0x22E1 JUMP JUMPDEST POP DUP1 SLOAD PUSH2 0x230A SWAP1 PUSH2 0x27B3 JUMP JUMPDEST PUSH1 0x0 DUP3 SSTORE DUP1 PUSH1 0x1F LT PUSH2 0x231A JUMPI POP POP JUMP JUMPDEST PUSH1 0x1F ADD PUSH1 0x20 SWAP1 DIV SWAP1 PUSH1 0x0 MSTORE PUSH1 0x20 PUSH1 0x0 KECCAK256 SWAP1 DUP2 ADD SWAP1 PUSH2 0x1F16 SWAP2 SWAP1 JUMPDEST DUP1 DUP3 GT ISZERO PUSH2 0x22DD JUMPI PUSH1 0x0 DUP2 SSTORE PUSH1 0x1 ADD PUSH2 0x2334 JUMP JUMPDEST PUSH1 0x0 DUP1 PUSH1 0x40 DUP4 DUP6 SUB SLT ISZERO PUSH2 0x235B JUMPI PUSH1 0x0 DUP1 REVERT JUMPDEST POP POP DUP1 CALLDATALOAD SWAP3 PUSH1 0x20 SWAP1 SWAP2 ADD CALLDATALOAD SWAP2 POP JUMP JUMPDEST DUP1 CALLDATALOAD PUSH1 0x1 PUSH1 0x1 PUSH1 0xA0 SHL SUB DUP2 AND DUP2 EQ PUSH2 0x2381 JUMPI PUSH1 0x0 DUP1 REVERT JUMPDEST SWAP2 SWAP1 POP JUMP JUMPDEST PUSH1 0x0 PUSH1 0x20 DUP3 DUP5 SUB SLT ISZERO PUSH2 0x2398 JUMPI PUSH1 0x0 DUP1 REVERT JUMPDEST PUSH2 0x23A1 DUP3 PUSH2 0x236A JUMP JUMPDEST SWAP4 SWAP3 POP POP POP JUMP JUMPDEST PUSH1 0x20 DUP1 DUP3 MSTORE DUP3 MLOAD DUP3 DUP3 ADD DUP2 SWAP1 MSTORE PUSH1 0x0 SWAP2 SWAP1 DUP5 DUP3 ADD SWAP1 PUSH1 0x40 DUP6 ADD SWAP1 DUP5 JUMPDEST DUP2 DUP2 LT ISZERO PUSH2 0x23E0 JUMPI DUP4 MLOAD DUP4 MSTORE SWAP3 DUP5 ADD SWAP3 SWAP2 DUP5 ADD SWAP2 PUSH1 0x1 ADD PUSH2 0x23C4 JUMP JUMPDEST POP SWAP1 SWAP7 SWAP6 POP POP POP POP POP POP JUMP JUMPDEST PUSH1 0x0 DUP1 PUSH1 0x40 DUP4 DUP6 SUB SLT ISZERO PUSH2 0x23FF JUMPI PUSH1 0x0 DUP1 REVERT JUMPDEST DUP3 CALLDATALOAD SWAP2 POP PUSH2 0x240F PUSH1 0x20 DUP5 ADD PUSH2 0x236A JUMP JUMPDEST SWAP1 POP SWAP3 POP SWAP3 SWAP1 POP JUMP JUMPDEST PUSH1 0x0 PUSH1 0x20 DUP3 DUP5 SUB SLT ISZERO PUSH2 0x242A JUMPI PUSH1 0x0 DUP1 REVERT JUMPDEST POP CALLDATALOAD SWAP2 SWAP1 POP JUMP JUMPDEST PUSH1 0x0 DUP3 DUP3 MLOAD DUP1 DUP6 MSTORE PUSH1 0x20 DUP1 DUP7 ADD SWAP6 POP DUP1 DUP3 PUSH1 0x5 SHL DUP5 ADD ADD DUP2 DUP7 ADD PUSH1 0x0 DUP1 JUMPDEST DUP6 DUP2 LT ISZERO PUSH2 0x24AB JUMPI PUSH1 0x1F NOT DUP1 DUP9 DUP7 SUB ADD DUP12 MSTORE DUP4 MLOAD DUP1 MLOAD DUP1 DUP8 MSTORE DUP5 JUMPDEST DUP2 DUP2 LT ISZERO PUSH2 0x2485 JUMPI DUP3 DUP2 ADD DUP10 ADD MLOAD DUP9 DUP3 ADD DUP11 ADD MSTORE DUP9 ADD PUSH2 0x246A JUMP JUMPDEST POP DUP7 DUP2 ADD DUP9 ADD DUP6 SWAP1 MSTORE SWAP12 DUP8 ADD SWAP12 PUSH1 0x1F ADD SWAP1 SWAP2 AND SWAP1 SWAP5 ADD DUP6 ADD SWAP4 POP SWAP2 DUP5 ADD SWAP2 PUSH1 0x1 ADD PUSH2 0x244F JUMP JUMPDEST POP SWAP2 SWAP9 SWAP8 POP POP POP POP POP POP POP POP JUMP JUMPDEST PUSH1 0x20 DUP2 MSTORE DUP2 MLOAD PUSH1 0x20 DUP3 ADD MSTORE PUSH1 0x1 DUP1 PUSH1 0xA0 SHL SUB PUSH1 0x20 DUP4 ADD MLOAD AND PUSH1 0x40 DUP3 ADD MSTORE PUSH1 0x0 PUSH1 0x40 DUP4 ADD MLOAD PUSH1 0xE0 PUSH1 0x60 DUP5 ADD MSTORE PUSH2 0x24F2 PUSH2 0x100 DUP5 ADD DUP3 PUSH2 0x2431 JUMP JUMPDEST SWAP1 POP PUSH1 0x60 DUP5 ADD MLOAD PUSH1 0x80 DUP5 ADD MSTORE PUSH1 0x80 DUP5 ADD MLOAD ISZERO ISZERO PUSH1 0xA0 DUP5 ADD MSTORE PUSH1 0xA0 DUP5 ADD MLOAD PUSH1 0xC0 DUP5 ADD MSTORE PUSH1 0xC0 DUP5 ADD MLOAD PUSH1 0xE0 DUP5 ADD MSTORE DUP1 SWAP2 POP POP SWAP3 SWAP2 POP POP JUMP JUMPDEST PUSH1 0x0 DUP1 PUSH1 0x0 PUSH1 0x60 DUP5 DUP7 SUB SLT ISZERO PUSH2 0x253D JUMPI PUSH1 0x0 DUP1 REVERT JUMPDEST DUP4 CALLDATALOAD SWAP3 POP PUSH2 0x254D PUSH1 0x20 DUP6 ADD PUSH2 0x236A JUMP JUMPDEST SWAP2 POP PUSH1 0x40 DUP5 ADD CALLDATALOAD SWAP1 POP SWAP3 POP SWAP3 POP SWAP3 JUMP JUMPDEST PUSH4 0x4E487B71 PUSH1 0xE0 SHL PUSH1 0x0 MSTORE PUSH1 0x41 PUSH1 0x4 MSTORE PUSH1 0x24 PUSH1 0x0 REVERT JUMPDEST PUSH1 0x40 MLOAD PUSH1 0x1F DUP3 ADD PUSH1 0x1F NOT AND DUP2 ADD PUSH8 0xFFFFFFFFFFFFFFFF DUP2 GT DUP3 DUP3 LT OR ISZERO PUSH2 0x259C JUMPI PUSH2 0x259C PUSH2 0x255D JUMP JUMPDEST PUSH1 0x40 MSTORE SWAP2 SWAP1 POP JUMP JUMPDEST PUSH1 0x0 PUSH1 0x1F DUP4 DUP2 DUP5 ADD SLT PUSH2 0x25B6 JUMPI PUSH1 0x0 DUP1 REVERT JUMPDEST DUP3 CALLDATALOAD PUSH1 0x20 PUSH8 0xFFFFFFFFFFFFFFFF DUP1 DUP4 GT ISZERO PUSH2 0x25D3 JUMPI PUSH2 0x25D3 PUSH2 0x255D JUMP JUMPDEST DUP3 PUSH1 0x5 SHL PUSH2 0x25E2 DUP4 DUP3 ADD PUSH2 0x2573 JUMP JUMPDEST SWAP4 DUP5 MSTORE DUP7 DUP2 ADD DUP4 ADD SWAP4 DUP4 DUP2 ADD SWAP1 DUP10 DUP7 GT ISZERO PUSH2 0x25FC JUMPI PUSH1 0x0 DUP1 REVERT JUMPDEST DUP5 DUP10 ADD SWAP3 POP JUMPDEST DUP6 DUP4 LT ISZERO PUSH2 0x268C JUMPI DUP3 CALLDATALOAD DUP5 DUP2 GT ISZERO PUSH2 0x261A JUMPI PUSH1 0x0 DUP1 DUP2 REVERT JUMPDEST DUP10 ADD PUSH1 0x3F DUP2 ADD DUP12 SGT PUSH2 0x262C JUMPI PUSH1 0x0 DUP1 DUP2 REVERT JUMPDEST DUP6 DUP2 ADD CALLDATALOAD PUSH1 0x40 DUP7 DUP3 GT ISZERO PUSH2 0x2642 JUMPI PUSH2 0x2642 PUSH2 0x255D JUMP JUMPDEST PUSH2 0x2653 DUP3 DUP12 ADD PUSH1 0x1F NOT AND DUP10 ADD PUSH2 0x2573 JUMP JUMPDEST DUP3 DUP2 MSTORE DUP14 DUP3 DUP5 DUP7 ADD ADD GT ISZERO PUSH2 0x2668 JUMPI PUSH1 0x0 DUP1 DUP2 REVERT JUMPDEST DUP3 DUP3 DUP6 ADD DUP11 DUP4 ADD CALLDATACOPY PUSH1 0x0 SWAP3 DUP2 ADD DUP10 ADD SWAP3 SWAP1 SWAP3 MSTORE POP DUP4 MSTORE POP SWAP2 DUP5 ADD SWAP2 SWAP1 DUP5 ADD SWAP1 PUSH2 0x2602 JUMP JUMPDEST SWAP10 SWAP9 POP POP POP POP POP POP POP POP POP JUMP JUMPDEST PUSH1 0x0 DUP1 PUSH1 0x40 DUP4 DUP6 SUB SLT ISZERO PUSH2 0x26AC JUMPI PUSH1 0x0 DUP1 REVERT JUMPDEST DUP3 CALLDATALOAD PUSH8 0xFFFFFFFFFFFFFFFF DUP2 GT ISZERO PUSH2 0x26C3 JUMPI PUSH1 0x0 DUP1 REVERT JUMPDEST PUSH2 0x26CF DUP6 DUP3 DUP7 ADD PUSH2 0x25A4 JUMP JUMPDEST SWAP6 PUSH1 0x20 SWAP5 SWAP1 SWAP5 ADD CALLDATALOAD SWAP5 POP POP POP POP JUMP JUMPDEST PUSH1 0x0 DUP1 PUSH1 0x40 DUP4 DUP6 SUB SLT ISZERO PUSH2 0x26F1 JUMPI PUSH1 0x0 DUP1 REVERT JUMPDEST PUSH2 0x26FA DUP4 PUSH2 0x236A JUMP JUMPDEST SWAP5 PUSH1 0x20 SWAP4 SWAP1 SWAP4 ADD CALLDATALOAD SWAP4 POP POP POP JUMP JUMPDEST PUSH1 0x20 DUP2 MSTORE DUP2 MLOAD PUSH1 0x20 DUP3 ADD MSTORE PUSH1 0x0 PUSH1 0x20 DUP4 ADD MLOAD PUSH2 0x120 DUP1 PUSH1 0x40 DUP6 ADD MSTORE PUSH2 0x2731 PUSH2 0x140 DUP6 ADD DUP4 PUSH2 0x2431 JUMP JUMPDEST SWAP2 POP PUSH1 0x40 DUP6 ADD MLOAD PUSH1 0x60 DUP6 ADD MSTORE PUSH1 0x60 DUP6 ADD MLOAD PUSH1 0x80 DUP6 ADD MSTORE PUSH1 0x80 DUP6 ADD MLOAD PUSH2 0x275A PUSH1 0xA0 DUP7 ADD DUP3 ISZERO ISZERO SWAP1 MSTORE JUMP JUMPDEST POP PUSH1 0xA0 DUP6 ADD MLOAD PUSH1 0xC0 DUP6 ADD MSTORE PUSH1 0xC0 DUP6 ADD MLOAD PUSH1 0xE0 DUP6 ADD MSTORE PUSH1 0xE0 DUP6 ADD MLOAD PUSH2 0x100 DUP2 DUP2 DUP8 ADD MSTORE DUP1 DUP8 ADD MLOAD DUP4 DUP8 ADD MSTORE POP POP POP DUP1 SWAP2 POP POP SWAP3 SWAP2 POP POP JUMP JUMPDEST PUSH1 0x0 PUSH1 0x20 DUP3 DUP5 SUB SLT ISZERO PUSH2 0x27A3 JUMPI PUSH1 0x0 DUP1 REVERT JUMPDEST DUP2 MLOAD DUP1 ISZERO ISZERO DUP2 EQ PUSH2 0x23A1 JUMPI PUSH1 0x0 DUP1 REVERT JUMPDEST PUSH1 0x1 DUP2 DUP2 SHR SWAP1 DUP3 AND DUP1 PUSH2 0x27C7 JUMPI PUSH1 0x7F DUP3 AND SWAP2 POP JUMPDEST PUSH1 0x20 DUP3 LT DUP2 SUB PUSH2 0x27E7 JUMPI PUSH4 0x4E487B71 PUSH1 0xE0 SHL PUSH1 0x0 MSTORE PUSH1 0x22 PUSH1 0x4 MSTORE PUSH1 0x24 PUSH1 0x0 REVERT JUMPDEST POP SWAP2 SWAP1 POP JUMP JUMPDEST PUSH4 0x4E487B71 PUSH1 0xE0 SHL PUSH1 0x0 MSTORE PUSH1 0x11 PUSH1 0x4 MSTORE PUSH1 0x24 PUSH1 0x0 REVERT JUMPDEST PUSH1 0x0 PUSH1 0x1 DUP3 ADD PUSH2 0x2815 JUMPI PUSH2 0x2815 PUSH2 0x27ED JUMP JUMPDEST POP PUSH1 0x1 ADD SWAP1 JUMP JUMPDEST DUP1 DUP3 MUL DUP2 ISZERO DUP3 DUP3 DIV DUP5 EQ OR PUSH2 0x76C JUMPI PUSH2 0x76C PUSH2 0x27ED JUMP JUMPDEST PUSH1 0x0 DUP3 PUSH2 0x2850 JUMPI PUSH4 0x4E487B71 PUSH1 0xE0 SHL PUSH1 0x0 MSTORE PUSH1 0x12 PUSH1 0x4 MSTORE PUSH1 0x24 PUSH1 0x0 REVERT JUMPDEST POP DIV SWAP1 JUMP JUMPDEST DUP2 DUP2 SUB DUP2 DUP2 GT ISZERO PUSH2 0x76C JUMPI PUSH2 0x76C PUSH2 0x27ED JUMP JUMPDEST DUP1 DUP3 ADD DUP1 DUP3 GT ISZERO PUSH2 0x76C JUMPI PUSH2 0x76C PUSH2 0x27ED JUMP JUMPDEST PUSH1 0x0 DUP3 DUP3 MLOAD DUP1 DUP6 MSTORE PUSH1 0x20 DUP1 DUP7 ADD SWAP6 POP DUP1 DUP3 PUSH1 0x5 SHL DUP5 ADD ADD DUP2 DUP7 ADD PUSH1 0x0 DUP1 JUMPDEST DUP6 DUP2 LT ISZERO PUSH2 0x24AB JUMPI PUSH1 0x1F NOT DUP1 DUP9 DUP7 SUB ADD DUP12 MSTORE DUP4 MLOAD DUP1 MLOAD DUP1 DUP8 MSTORE DUP5 JUMPDEST DUP2 DUP2 LT ISZERO PUSH2 0x28CF JUMPI DUP3 DUP2 ADD DUP10 ADD MLOAD DUP9 DUP3 ADD DUP11 ADD MSTORE DUP9 ADD PUSH2 0x28B4 JUMP JUMPDEST POP DUP7 DUP2 ADD DUP9 ADD DUP6 SWAP1 MSTORE SWAP12 DUP8 ADD SWAP12 PUSH1 0x1F ADD SWAP1 SWAP2 AND SWAP1 SWAP5 ADD DUP6 ADD SWAP4 POP SWAP2 DUP5 ADD SWAP2 PUSH1 0x1 ADD PUSH2 0x2899 JUMP JUMPDEST DUP4 DUP2 MSTORE PUSH1 0x60 PUSH1 0x20 DUP3 ADD MSTORE PUSH1 0x0 PUSH2 0x290E PUSH1 0x60 DUP4 ADD DUP6 PUSH2 0x287B JUMP JUMPDEST SWAP1 POP DUP3 PUSH1 0x40 DUP4 ADD MSTORE SWAP5 SWAP4 POP POP POP POP JUMP JUMPDEST PUSH4 0x4E487B71 PUSH1 0xE0 SHL PUSH1 0x0 MSTORE PUSH1 0x32 PUSH1 0x4 MSTORE PUSH1 0x24 PUSH1 0x0 REVERT JUMPDEST PUSH1 0x60 DUP2 MSTORE PUSH1 0x0 PUSH2 0x2947 PUSH1 0x60 DUP4 ADD DUP7 PUSH2 0x287B JUMP JUMPDEST PUSH1 0x20 DUP4 ADD SWAP5 SWAP1 SWAP5 MSTORE POP PUSH1 0x40 ADD MSTORE SWAP2 SWAP1 POP JUMP JUMPDEST PUSH1 0x1F DUP3 GT ISZERO PUSH2 0x29A3 JUMPI PUSH1 0x0 DUP2 DUP2 MSTORE PUSH1 0x20 DUP2 KECCAK256 PUSH1 0x1F DUP6 ADD PUSH1 0x5 SHR DUP2 ADD PUSH1 0x20 DUP7 LT ISZERO PUSH2 0x2980 JUMPI POP DUP1 JUMPDEST PUSH1 0x1F DUP6 ADD PUSH1 0x5 SHR DUP3 ADD SWAP2 POP JUMPDEST DUP2 DUP2 LT ISZERO PUSH2 0x299F JUMPI DUP3 DUP2 SSTORE PUSH1 0x1 ADD PUSH2 0x298C JUMP JUMPDEST POP POP POP JUMPDEST POP POP POP JUMP JUMPDEST DUP2 MLOAD PUSH8 0xFFFFFFFFFFFFFFFF DUP2 GT ISZERO PUSH2 0x29C2 JUMPI PUSH2 0x29C2 PUSH2 0x255D JUMP JUMPDEST PUSH2 0x29D6 DUP2 PUSH2 0x29D0 DUP5 SLOAD PUSH2 0x27B3 JUMP JUMPDEST DUP5 PUSH2 0x2959 JUMP JUMPDEST PUSH1 0x20 DUP1 PUSH1 0x1F DUP4 GT PUSH1 0x1 DUP2 EQ PUSH2 0x2A0B JUMPI PUSH1 0x0 DUP5 ISZERO PUSH2 0x29F3 JUMPI POP DUP6 DUP4 ADD MLOAD JUMPDEST PUSH1 0x0 NOT PUSH1 0x3 DUP7 SWAP1 SHL SHR NOT AND PUSH1 0x1 DUP6 SWAP1 SHL OR DUP6 SSTORE PUSH2 0x299F JUMP JUMPDEST PUSH1 0x0 DUP6 DUP2 MSTORE PUSH1 0x20 DUP2 KECCAK256 PUSH1 0x1F NOT DUP7 AND SWAP2 JUMPDEST DUP3 DUP2 LT ISZERO PUSH2 0x2A3A JUMPI DUP9 DUP7 ADD MLOAD DUP3 SSTORE SWAP5 DUP5 ADD SWAP5 PUSH1 0x1 SWAP1 SWAP2 ADD SWAP1 DUP5 ADD PUSH2 0x2A1B JUMP JUMPDEST POP DUP6 DUP3 LT ISZERO PUSH2 0x2A58 JUMPI DUP8 DUP6 ADD MLOAD PUSH1 0x0 NOT PUSH1 0x3 DUP9 SWAP1 SHL PUSH1 0xF8 AND SHR NOT AND DUP2 SSTORE JUMPDEST POP POP POP POP POP PUSH1 0x1 SWAP1 DUP2 SHL ADD SWAP1 SSTORE POP JUMP INVALID LOG2 PUSH5 0x6970667358 0x22 SLT KECCAK256 0x4A DUP15 JUMPI 0xDD 0xBB 0xC5 0xB2 JUMPI PUSH24 0x6E9F741CE10AC2B7223B4276E53DC15D88E103F9271FD064 PUSH20 0x6F6C634300081400330000000000000000000000 "},"methodIdentifiers":{"DEV_FEE_PERCENT()":"5e6a645e","FIRST_PRIZE_PERCENT()":"9f92f4b6","MAX_EMOJIS_PER_TICKET()":"7cdd2093","RESERVE_POOL_PERCENT()":"bb0f0621","SECOND_PRIZE_PERCENT()":"be92d868","THIRD_PRIZE_PERCENT()":"a051e53d","TICKET_PRICE()":"1a95f15f","accumulatedDevFees()":"7f368b9b","buyTicket(string[],uint256)":"a2d9890b","checkTicketPrizeCategory(uint256)":"2b4c45c2","claimPrize(uint256)":"d7098154","completeDraw(string[],bytes32)":"bab75629","currentDrawId()":"bca78fab","devWallet()":"8ea5220f","drawTickets(uint256,uint256)":"376c2bbe","draws(uint256)":"0cc36c36","firstPrizeWinners(uint256,uint256)":"8a3748ae","fourthPrizeWinners(uint256,uint256)":"782a51ae","getDrawDetails(uint256)":"d5a962e4","getReservePoolBalance()":"3b8d5b86","getTicketDetails(uint256)":"24c14160","getUserDrawTickets(uint256,address)":"0a0d8587","getUserTickets(address)":"0484a22f","getWinnersCount(uint256)":"69894cf7","hasClaimedPrize(uint256,address)":"c08f53d3","nextTicketId()":"6031a52f","owner()":"8da5cb5b","prizePoolForDraw(uint256)":"beb26dc2","renounceOwnership()":"715018a6","reservePool()":"0266f044","secondPrizeWinners(uint256,uint256)":"54f06b18","setDevWallet(address)":"1f53ac02","thirdPrizeWinners(uint256,uint256)":"03b8e18c","tickets(uint256)":"50b44712","totalTicketsSold()":"34701db8","transferOwnership(address)":"f2fde38b","usdcToken()":"11eac855","userDrawTickets(uint256,address,uint256)":"8beee7b4","userTickets(address,uint256)":"cf260baf","withdrawDevFees()":"0da590d4"}},"storageLayout":{"storage":[{"astId":8,"contract":"src/contracts/LottoMojiFun.sol:LottoMojiFun","label":"_owner","offset":0,"slot":"0","type":"t_address"},{"astId":318,"contract":"src/contracts/LottoMojiFun.sol:LottoMojiFun","label":"_status","offset":0,"slot":"1","type":"t_uint256"},{"astId":5735,"contract":"src/contracts/LottoMojiFun.sol:LottoMojiFun","label":"usdcToken","offset":0,"slot":"2","type":"t_contract(IERC20)225"},{"astId":5737,"contract":"src/contracts/LottoMojiFun.sol:LottoMojiFun","label":"devWallet","offset":0,"slot":"3","type":"t_address"},{"astId":5739,"contract":"src/contracts/LottoMojiFun.sol:LottoMojiFun","label":"currentDrawId","offset":0,"slot":"4","type":"t_uint256"},{"astId":5741,"contract":"src/contracts/LottoMojiFun.sol:LottoMojiFun","label":"nextTicketId","offset":0,"slot":"5","type":"t_uint256"},{"astId":5743,"contract":"src/contracts/LottoMojiFun.sol:LottoMojiFun","label":"totalTicketsSold","offset":0,"slot":"6","type":"t_uint256"},{"astId":5745,"contract":"src/contracts/LottoMojiFun.sol:LottoMojiFun","label":"accumulatedDevFees","offset":0,"slot":"7","type":"t_uint256"},{"astId":5747,"contract":"src/contracts/LottoMojiFun.sol:LottoMojiFun","label":"reservePool","offset":0,"slot":"8","type":"t_uint256"},{"astId":5752,"contract":"src/contracts/LottoMojiFun.sol:LottoMojiFun","label":"draws","offset":0,"slot":"9","type":"t_mapping(t_uint256,t_struct(DrawResult)5732_storage)"},{"astId":5757,"contract":"src/contracts/LottoMojiFun.sol:LottoMojiFun","label":"tickets","offset":0,"slot":"10","type":"t_mapping(t_uint256,t_struct(Ticket)5712_storage)"},{"astId":5762,"contract":"src/contracts/LottoMojiFun.sol:LottoMojiFun","label":"drawTickets","offset":0,"slot":"11","type":"t_mapping(t_uint256,t_array(t_uint256)dyn_storage)"},{"astId":5767,"contract":"src/contracts/LottoMojiFun.sol:LottoMojiFun","label":"userTickets","offset":0,"slot":"12","type":"t_mapping(t_address,t_array(t_uint256)dyn_storage)"},{"astId":5774,"contract":"src/contracts/LottoMojiFun.sol:LottoMojiFun","label":"userDrawTickets","offset":0,"slot":"13","type":"t_mapping(t_uint256,t_mapping(t_address,t_array(t_uint256)dyn_storage))"},{"astId":5778,"contract":"src/contracts/LottoMojiFun.sol:LottoMojiFun","label":"prizePoolForDraw","offset":0,"slot":"14","type":"t_mapping(t_uint256,t_uint256)"},{"astId":5783,"contract":"src/contracts/LottoMojiFun.sol:LottoMojiFun","label":"firstPrizeWinners","offset":0,"slot":"15","type":"t_mapping(t_uint256,t_array(t_address)dyn_storage)"},{"astId":5788,"contract":"src/contracts/LottoMojiFun.sol:LottoMojiFun","label":"secondPrizeWinners","offset":0,"slot":"16","type":"t_mapping(t_uint256,t_array(t_address)dyn_storage)"},{"astId":5793,"contract":"src/contracts/LottoMojiFun.sol:LottoMojiFun","label":"thirdPrizeWinners","offset":0,"slot":"17","type":"t_mapping(t_uint256,t_array(t_address)dyn_storage)"},{"astId":5798,"contract":"src/contracts/LottoMojiFun.sol:LottoMojiFun","label":"fourthPrizeWinners","offset":0,"slot":"18","type":"t_mapping(t_uint256,t_array(t_address)dyn_storage)"},{"astId":5804,"contract":"src/contracts/LottoMojiFun.sol:LottoMojiFun","label":"hasClaimedPrize","offset":0,"slot":"19","type":"t_mapping(t_uint256,t_mapping(t_address,t_bool))"}],"types":{"t_address":{"encoding":"inplace","label":"address","numberOfBytes":"20"},"t_array(t_address)dyn_storage":{"base":"t_address","encoding":"dynamic_array","label":"address[]","numberOfBytes":"32"},"t_array(t_string_storage)dyn_storage":{"base":"t_string_storage","encoding":"dynamic_array","label":"string[]","numberOfBytes":"32"},"t_array(t_uint256)dyn_storage":{"base":"t_uint256","encoding":"dynamic_array","label":"uint256[]","numberOfBytes":"32"},"t_bool":{"encoding":"inplace","label":"bool","numberOfBytes":"1"},"t_contract(IERC20)225":{"encoding":"inplace","label":"contract IERC20","numberOfBytes":"20"},"t_mapping(t_address,t_array(t_uint256)dyn_storage)":{"encoding":"mapping","key":"t_address","label":"mapping(address => uint256[])","numberOfBytes":"32","value":"t_array(t_uint256)dyn_storage"},"t_mapping(t_address,t_bool)":{"encoding":"mapping","key":"t_address","label":"mapping(address => bool)","numberOfBytes":"32","value":"t_bool"},"t_mapping(t_uint256,t_array(t_address)dyn_storage)":{"encoding":"mapping","key":"t_uint256","label":"mapping(uint256 => address[])","numberOfBytes":"32","value":"t_array(t_address)dyn_storage"},"t_mapping(t_uint256,t_array(t_uint256)dyn_storage)":{"encoding":"mapping","key":"t_uint256","label":"mapping(uint256 => uint256[])","numberOfBytes":"32","value":"t_array(t_uint256)dyn_storage"},"t_mapping(t_uint256,t_mapping(t_address,t_array(t_uint256)dyn_storage))":{"encoding":"mapping","key":"t_uint256","label":"mapping(uint256 => mapping(address => uint256[]))","numberOfBytes":"32","value":"t_mapping(t_address,t_array(t_uint256)dyn_storage)"},"t_mapping(t_uint256,t_mapping(t_address,t_bool))":{"encoding":"mapping","key":"t_uint256","label":"mapping(uint256 => mapping(address => bool))","numberOfBytes":"32","value":"t_mapping(t_address,t_bool)"},"t_mapping(t_uint256,t_struct(DrawResult)5732_storage)":{"encoding":"mapping","key":"t_uint256","label":"mapping(uint256 => struct LottoMojiFun.DrawResult)","numberOfBytes":"32","value":"t_struct(DrawResult)5732_storage"},"t_mapping(t_uint256,t_struct(Ticket)5712_storage)":{"encoding":"mapping","key":"t_uint256","label":"mapping(uint256 => struct LottoMojiFun.Ticket)","numberOfBytes":"32","value":"t_struct(Ticket)5712_storage"},"t_mapping(t_uint256,t_uint256)":{"encoding":"mapping","key":"t_uint256","label":"mapping(uint256 => uint256)","numberOfBytes":"32","value":"t_uint256"},"t_string_storage":{"encoding":"bytes","label":"string","numberOfBytes":"32"},"t_struct(DrawResult)5732_storage":{"encoding":"inplace","label":"struct LottoMojiFun.DrawResult","members":[{"astId":5714,"contract":"src/contracts/LottoMojiFun.sol:LottoMojiFun","label":"id","offset":0,"slot":"0","type":"t_uint256"},{"astId":5717,"contract":"src/contracts/LottoMojiFun.sol:LottoMojiFun","label":"winningEmojis","offset":0,"slot":"1","type":"t_array(t_string_storage)dyn_storage"},{"astId":5719,"contract":"src/contracts/LottoMojiFun.sol:LottoMojiFun","label":"prizePool","offset":0,"slot":"2","type":"t_uint256"},{"astId":5721,"contract":"src/contracts/LottoMojiFun.sol:LottoMojiFun","label":"timestamp","offset":0,"slot":"3","type":"t_uint256"},{"astId":5723,"contract":"src/contracts/LottoMojiFun.sol:LottoMojiFun","label":"completed","offset":0,"slot":"4","type":"t_bool"},{"astId":5725,"contract":"src/contracts/LottoMojiFun.sol:LottoMojiFun","label":"firstPrizeWinners","offset":0,"slot":"5","type":"t_uint256"},{"astId":5727,"contract":"src/contracts/LottoMojiFun.sol:LottoMojiFun","label":"secondPrizeWinners","offset":0,"slot":"6","type":"t_uint256"},{"astId":5729,"contract":"src/contracts/LottoMojiFun.sol:LottoMojiFun","label":"thirdPrizeWinners","offset":0,"slot":"7","type":"t_uint256"},{"astId":5731,"contract":"src/contracts/LottoMojiFun.sol:LottoMojiFun","label":"fourthPrizeWinners","offset":0,"slot":"8","type":"t_uint256"}],"numberOfBytes":"288"},"t_struct(Ticket)5712_storage":{"encoding":"inplace","label":"struct LottoMojiFun.Ticket","members":[{"astId":5698,"contract":"src/contracts/LottoMojiFun.sol:LottoMojiFun","label":"id","offset":0,"slot":"0","type":"t_uint256"},{"astId":5700,"contract":"src/contracts/LottoMojiFun.sol:LottoMojiFun","label":"owner","offset":0,"slot":"1","type":"t_address"},{"astId":5703,"contract":"src/contracts/LottoMojiFun.sol:LottoMojiFun","label":"emojis","offset":0,"slot":"2","type":"t_array(t_string_storage)dyn_storage"},{"astId":5705,"contract":"src/contracts/LottoMojiFun.sol:LottoMojiFun","label":"drawId","offset":0,"slot":"3","type":"t_uint256"},{"astId":5707,"contract":"src/contracts/LottoMojiFun.sol:LottoMojiFun","label":"claimed","offset":0,"slot":"4","type":"t_bool"},{"astId":5709,"contract":"src/contracts/LottoMojiFun.sol:LottoMojiFun","label":"timestamp","offset":0,"slot":"5","type":"t_uint256"},{"astId":5711,"contract":"src/contracts/LottoMojiFun.sol:LottoMojiFun","label":"fid","offset":0,"slot":"6","type":"t_uint256"}],"numberOfBytes":"224"},"t_uint256":{"encoding":"inplace","label":"uint256","numberOfBytes":"32"}}}}}}