{
  "_format": "hh-sol-artifact-1",
  "contractName": "LottoMojiFun",
  "sourceName": "src/contracts/LottoMojiFun.sol",
  "abi": [
    {
      "inputs": [
        {
          "internalType": "address",
          "name": "_usdcToken",
          "type": "address"
        },
        {
          "internalType": "address",
          "name": "_devWallet",
          "type": "address"
        }
      ],
      "stateMutability": "nonpayable",
      "type": "constructor"
    },
    {
      "inputs": [
        {
          "internalType": "address",
          "name": "owner",
          "type": "address"
        }
      ],
      "name": "OwnableInvalidOwner",
      "type": "error"
    },
    {
      "inputs": [
        {
          "internalType": "address",
          "name": "account",
          "type": "address"
        }
      ],
      "name": "OwnableUnauthorizedAccount",
      "type": "error"
    },
    {
      "inputs": [],
      "name": "ReentrancyGuardReentrantCall",
      "type": "error"
    },
    {
      "anonymous": false,
      "inputs": [
        {
          "indexed": false,
          "internalType": "uint256",
          "name": "amount",
          "type": "uint256"
        }
      ],
      "name": "DevFeesWithdrawn",
      "type": "event"
    },
    {
      "anonymous": false,
      "inputs": [
        {
          "indexed": true,
          "internalType": "uint256",
          "name": "drawId",
          "type": "uint256"
        },
        {
          "indexed": false,
          "internalType": "string[]",
          "name": "winningEmojis",
          "type": "string[]"
        },
        {
          "indexed": false,
          "internalType": "uint256",
          "name": "prizePool",
          "type": "uint256"
        },
        {
          "indexed": false,
          "internalType": "uint256",
          "name": "timestamp",
          "type": "uint256"
        }
      ],
      "name": "DrawCompleted",
      "type": "event"
    },
    {
      "anonymous": false,
      "inputs": [
        {
          "indexed": true,
          "internalType": "address",
          "name": "previousOwner",
          "type": "address"
        },
        {
          "indexed": true,
          "internalType": "address",
          "name": "newOwner",
          "type": "address"
        }
      ],
      "name": "OwnershipTransferred",
      "type": "event"
    },
    {
      "anonymous": false,
      "inputs": [
        {
          "indexed": true,
          "internalType": "uint256",
          "name": "ticketId",
          "type": "uint256"
        },
        {
          "indexed": true,
          "internalType": "address",
          "name": "winner",
          "type": "address"
        },
        {
          "indexed": false,
          "internalType": "uint256",
          "name": "amount",
          "type": "uint256"
        },
        {
          "indexed": false,
          "internalType": "uint256",
          "name": "prizeCategory",
          "type": "uint256"
        }
      ],
      "name": "PrizeClaimed",
      "type": "event"
    },
    {
      "anonymous": false,
      "inputs": [
        {
          "indexed": false,
          "internalType": "uint256",
          "name": "amount",
          "type": "uint256"
        }
      ],
      "name": "ReservePoolUpdated",
      "type": "event"
    },
    {
      "anonymous": false,
      "inputs": [
        {
          "indexed": true,
          "internalType": "uint256",
          "name": "ticketId",
          "type": "uint256"
        },
        {
          "indexed": true,
          "internalType": "address",
          "name": "buyer",
          "type": "address"
        },
        {
          "indexed": false,
          "internalType": "uint256",
          "name": "fid",
          "type": "uint256"
        },
        {
          "indexed": false,
          "internalType": "string[]",
          "name": "emojis",
          "type": "string[]"
        },
        {
          "indexed": false,
          "internalType": "uint256",
          "name": "drawId",
          "type": "uint256"
        }
      ],
      "name": "TicketPurchased",
      "type": "event"
    },
    {
      "inputs": [],
      "name": "DEV_FEE_PERCENT",
      "outputs": [
        {
          "internalType": "uint256",
          "name": "",
          "type": "uint256"
        }
      ],
      "stateMutability": "view",
      "type": "function"
    },
    {
      "inputs": [],
      "name": "FIRST_PRIZE_PERCENT",
      "outputs": [
        {
          "internalType": "uint256",
          "name": "",
          "type": "uint256"
        }
      ],
      "stateMutability": "view",
      "type": "function"
    },
    {
      "inputs": [],
      "name": "MAX_EMOJIS_PER_TICKET",
      "outputs": [
        {
          "internalType": "uint256",
          "name": "",
          "type": "uint256"
        }
      ],
      "stateMutability": "view",
      "type": "function"
    },
    {
      "inputs": [],
      "name": "RESERVE_POOL_PERCENT",
      "outputs": [
        {
          "internalType": "uint256",
          "name": "",
          "type": "uint256"
        }
      ],
      "stateMutability": "view",
      "type": "function"
    },
    {
      "inputs": [],
      "name": "SECOND_PRIZE_PERCENT",
      "outputs": [
        {
          "internalType": "uint256",
          "name": "",
          "type": "uint256"
        }
      ],
      "stateMutability": "view",
      "type": "function"
    },
    {
      "inputs": [],
      "name": "THIRD_PRIZE_PERCENT",
      "outputs": [
        {
          "internalType": "uint256",
          "name": "",
          "type": "uint256"
        }
      ],
      "stateMutability": "view",
      "type": "function"
    },
    {
      "inputs": [],
      "name": "TICKET_PRICE",
      "outputs": [
        {
          "internalType": "uint256",
          "name": "",
          "type": "uint256"
        }
      ],
      "stateMutability": "view",
      "type": "function"
    },
    {
      "inputs": [],
      "name": "accumulatedDevFees",
      "outputs": [
        {
          "internalType": "uint256",
          "name": "",
          "type": "uint256"
        }
      ],
      "stateMutability": "view",
      "type": "function"
    },
    {
      "inputs": [
        {
          "internalType": "string[]",
          "name": "emojis",
          "type": "string[]"
        },
        {
          "internalType": "uint256",
          "name": "fid",
          "type": "uint256"
        }
      ],
      "name": "buyTicket",
      "outputs": [],
      "stateMutability": "nonpayable",
      "type": "function"
    },
    {
      "inputs": [
        {
          "internalType": "uint256",
          "name": "ticketId",
          "type": "uint256"
        }
      ],
      "name": "checkTicketPrizeCategory",
      "outputs": [
        {
          "internalType": "uint256",
          "name": "prizeCategory",
          "type": "uint256"
        }
      ],
      "stateMutability": "view",
      "type": "function"
    },
    {
      "inputs": [
        {
          "internalType": "uint256",
          "name": "ticketId",
          "type": "uint256"
        }
      ],
      "name": "claimPrize",
      "outputs": [],
      "stateMutability": "nonpayable",
      "type": "function"
    },
    {
      "inputs": [
        {
          "internalType": "string[]",
          "name": "winningEmojis",
          "type": "string[]"
        },
        {
          "internalType": "bytes32",
          "name": "randomSeed",
          "type": "bytes32"
        }
      ],
      "name": "completeDraw",
      "outputs": [],
      "stateMutability": "nonpayable",
      "type": "function"
    },
    {
      "inputs": [],
      "name": "currentDrawId",
      "outputs": [
        {
          "internalType": "uint256",
          "name": "",
          "type": "uint256"
        }
      ],
      "stateMutability": "view",
      "type": "function"
    },
    {
      "inputs": [],
      "name": "devWallet",
      "outputs": [
        {
          "internalType": "address",
          "name": "",
          "type": "address"
        }
      ],
      "stateMutability": "view",
      "type": "function"
    },
    {
      "inputs": [
        {
          "internalType": "uint256",
          "name": "",
          "type": "uint256"
        },
        {
          "internalType": "uint256",
          "name": "",
          "type": "uint256"
        }
      ],
      "name": "drawTickets",
      "outputs": [
        {
          "internalType": "uint256",
          "name": "",
          "type": "uint256"
        }
      ],
      "stateMutability": "view",
      "type": "function"
    },
    {
      "inputs": [
        {
          "internalType": "uint256",
          "name": "",
          "type": "uint256"
        }
      ],
      "name": "draws",
      "outputs": [
        {
          "internalType": "uint256",
          "name": "id",
          "type": "uint256"
        },
        {
          "internalType": "uint256",
          "name": "prizePool",
          "type": "uint256"
        },
        {
          "internalType": "uint256",
          "name": "timestamp",
          "type": "uint256"
        },
        {
          "internalType": "bool",
          "name": "completed",
          "type": "bool"
        },
        {
          "internalType": "uint256",
          "name": "firstPrizeWinners",
          "type": "uint256"
        },
        {
          "internalType": "uint256",
          "name": "secondPrizeWinners",
          "type": "uint256"
        },
        {
          "internalType": "uint256",
          "name": "thirdPrizeWinners",
          "type": "uint256"
        },
        {
          "internalType": "uint256",
          "name": "fourthPrizeWinners",
          "type": "uint256"
        }
      ],
      "stateMutability": "view",
      "type": "function"
    },
    {
      "inputs": [
        {
          "internalType": "uint256",
          "name": "",
          "type": "uint256"
        },
        {
          "internalType": "uint256",
          "name": "",
          "type": "uint256"
        }
      ],
      "name": "firstPrizeWinners",
      "outputs": [
        {
          "internalType": "address",
          "name": "",
          "type": "address"
        }
      ],
      "stateMutability": "view",
      "type": "function"
    },
    {
      "inputs": [
        {
          "internalType": "uint256",
          "name": "",
          "type": "uint256"
        },
        {
          "internalType": "uint256",
          "name": "",
          "type": "uint256"
        }
      ],
      "name": "fourthPrizeWinners",
      "outputs": [
        {
          "internalType": "address",
          "name": "",
          "type": "address"
        }
      ],
      "stateMutability": "view",
      "type": "function"
    },
    {
      "inputs": [
        {
          "internalType": "uint256",
          "name": "drawId",
          "type": "uint256"
        }
      ],
      "name": "getDrawDetails",
      "outputs": [
        {
          "components": [
            {
              "internalType": "uint256",
              "name": "id",
              "type": "uint256"
            },
            {
              "internalType": "string[]",
              "name": "winningEmojis",
              "type": "string[]"
            },
            {
              "internalType": "uint256",
              "name": "prizePool",
              "type": "uint256"
            },
            {
              "internalType": "uint256",
              "name": "timestamp",
              "type": "uint256"
            },
            {
              "internalType": "bool",
              "name": "completed",
              "type": "bool"
            },
            {
              "internalType": "uint256",
              "name": "firstPrizeWinners",
              "type": "uint256"
            },
            {
              "internalType": "uint256",
              "name": "secondPrizeWinners",
              "type": "uint256"
            },
            {
              "internalType": "uint256",
              "name": "thirdPrizeWinners",
              "type": "uint256"
            },
            {
              "internalType": "uint256",
              "name": "fourthPrizeWinners",
              "type": "uint256"
            }
          ],
          "internalType": "struct LottoMojiFun.DrawResult",
          "name": "",
          "type": "tuple"
        }
      ],
      "stateMutability": "view",
      "type": "function"
    },
    {
      "inputs": [],
      "name": "getReservePoolBalance",
      "outputs": [
        {
          "internalType": "uint256",
          "name": "",
          "type": "uint256"
        }
      ],
      "stateMutability": "view",
      "type": "function"
    },
    {
      "inputs": [
        {
          "internalType": "uint256",
          "name": "ticketId",
          "type": "uint256"
        }
      ],
      "name": "getTicketDetails",
      "outputs": [
        {
          "components": [
            {
              "internalType": "uint256",
              "name": "id",
              "type": "uint256"
            },
            {
              "internalType": "address",
              "name": "owner",
              "type": "address"
            },
            {
              "internalType": "string[]",
              "name": "emojis",
              "type": "string[]"
            },
            {
              "internalType": "uint256",
              "name": "drawId",
              "type": "uint256"
            },
            {
              "internalType": "bool",
              "name": "claimed",
              "type": "bool"
            },
            {
              "internalType": "uint256",
              "name": "timestamp",
              "type": "uint256"
            },
            {
              "internalType": "uint256",
              "name": "fid",
              "type": "uint256"
            }
          ],
          "internalType": "struct LottoMojiFun.Ticket",
          "name": "",
          "type": "tuple"
        }
      ],
      "stateMutability": "view",
      "type": "function"
    },
    {
      "inputs": [
        {
          "internalType": "uint256",
          "name": "drawId",
          "type": "uint256"
        },
        {
          "internalType": "address",
          "name": "user",
          "type": "address"
        }
      ],
      "name": "getUserDrawTickets",
      "outputs": [
        {
          "internalType": "uint256[]",
          "name": "",
          "type": "uint256[]"
        }
      ],
      "stateMutability": "view",
      "type": "function"
    },
    {
      "inputs": [
        {
          "internalType": "address",
          "name": "user",
          "type": "address"
        }
      ],
      "name": "getUserTickets",
      "outputs": [
        {
          "internalType": "uint256[]",
          "name": "",
          "type": "uint256[]"
        }
      ],
      "stateMutability": "view",
      "type": "function"
    },
    {
      "inputs": [
        {
          "internalType": "uint256",
          "name": "drawId",
          "type": "uint256"
        }
      ],
      "name": "getWinnersCount",
      "outputs": [
        {
          "internalType": "uint256",
          "name": "firstWinners",
          "type": "uint256"
        },
        {
          "internalType": "uint256",
          "name": "secondWinners",
          "type": "uint256"
        },
        {
          "internalType": "uint256",
          "name": "thirdWinners",
          "type": "uint256"
        },
        {
          "internalType": "uint256",
          "name": "fourthWinners",
          "type": "uint256"
        }
      ],
      "stateMutability": "view",
      "type": "function"
    },
    {
      "inputs": [
        {
          "internalType": "uint256",
          "name": "",
          "type": "uint256"
        },
        {
          "internalType": "address",
          "name": "",
          "type": "address"
        }
      ],
      "name": "hasClaimedPrize",
      "outputs": [
        {
          "internalType": "bool",
          "name": "",
          "type": "bool"
        }
      ],
      "stateMutability": "view",
      "type": "function"
    },
    {
      "inputs": [],
      "name": "nextTicketId",
      "outputs": [
        {
          "internalType": "uint256",
          "name": "",
          "type": "uint256"
        }
      ],
      "stateMutability": "view",
      "type": "function"
    },
    {
      "inputs": [],
      "name": "owner",
      "outputs": [
        {
          "internalType": "address",
          "name": "",
          "type": "address"
        }
      ],
      "stateMutability": "view",
      "type": "function"
    },
    {
      "inputs": [
        {
          "internalType": "uint256",
          "name": "",
          "type": "uint256"
        }
      ],
      "name": "prizePoolForDraw",
      "outputs": [
        {
          "internalType": "uint256",
          "name": "",
          "type": "uint256"
        }
      ],
      "stateMutability": "view",
      "type": "function"
    },
    {
      "inputs": [],
      "name": "renounceOwnership",
      "outputs": [],
      "stateMutability": "nonpayable",
      "type": "function"
    },
    {
      "inputs": [],
      "name": "reservePool",
      "outputs": [
        {
          "internalType": "uint256",
          "name": "",
          "type": "uint256"
        }
      ],
      "stateMutability": "view",
      "type": "function"
    },
    {
      "inputs": [
        {
          "internalType": "uint256",
          "name": "",
          "type": "uint256"
        },
        {
          "internalType": "uint256",
          "name": "",
          "type": "uint256"
        }
      ],
      "name": "secondPrizeWinners",
      "outputs": [
        {
          "internalType": "address",
          "name": "",
          "type": "address"
        }
      ],
      "stateMutability": "view",
      "type": "function"
    },
    {
      "inputs": [
        {
          "internalType": "address",
          "name": "_newDevWallet",
          "type": "address"
        }
      ],
      "name": "setDevWallet",
      "outputs": [],
      "stateMutability": "nonpayable",
      "type": "function"
    },
    {
      "inputs": [
        {
          "internalType": "uint256",
          "name": "",
          "type": "uint256"
        },
        {
          "internalType": "uint256",
          "name": "",
          "type": "uint256"
        }
      ],
      "name": "thirdPrizeWinners",
      "outputs": [
        {
          "internalType": "address",
          "name": "",
          "type": "address"
        }
      ],
      "stateMutability": "view",
      "type": "function"
    },
    {
      "inputs": [
        {
          "internalType": "uint256",
          "name": "",
          "type": "uint256"
        }
      ],
      "name": "tickets",
      "outputs": [
        {
          "internalType": "uint256",
          "name": "id",
          "type": "uint256"
        },
        {
          "internalType": "address",
          "name": "owner",
          "type": "address"
        },
        {
          "internalType": "uint256",
          "name": "drawId",
          "type": "uint256"
        },
        {
          "internalType": "bool",
          "name": "claimed",
          "type": "bool"
        },
        {
          "internalType": "uint256",
          "name": "timestamp",
          "type": "uint256"
        },
        {
          "internalType": "uint256",
          "name": "fid",
          "type": "uint256"
        }
      ],
      "stateMutability": "view",
      "type": "function"
    },
    {
      "inputs": [],
      "name": "totalTicketsSold",
      "outputs": [
        {
          "internalType": "uint256",
          "name": "",
          "type": "uint256"
        }
      ],
      "stateMutability": "view",
      "type": "function"
    },
    {
      "inputs": [
        {
          "internalType": "address",
          "name": "newOwner",
          "type": "address"
        }
      ],
      "name": "transferOwnership",
      "outputs": [],
      "stateMutability": "nonpayable",
      "type": "function"
    },
    {
      "inputs": [],
      "name": "usdcToken",
      "outputs": [
        {
          "internalType": "contract IERC20",
          "name": "",
          "type": "address"
        }
      ],
      "stateMutability": "view",
      "type": "function"
    },
    {
      "inputs": [
        {
          "internalType": "uint256",
          "name": "",
          "type": "uint256"
        },
        {
          "internalType": "address",
          "name": "",
          "type": "address"
        },
        {
          "internalType": "uint256",
          "name": "",
          "type": "uint256"
        }
      ],
      "name": "userDrawTickets",
      "outputs": [
        {
          "internalType": "uint256",
          "name": "",
          "type": "uint256"
        }
      ],
      "stateMutability": "view",
      "type": "function"
    },
    {
      "inputs": [
        {
          "internalType": "address",
          "name": "",
          "type": "address"
        },
        {
          "internalType": "uint256",
          "name": "",
          "type": "uint256"
        }
      ],
      "name": "userTickets",
      "outputs": [
        {
          "internalType": "uint256",
          "name": "",
          "type": "uint256"
        }
      ],
      "stateMutability": "view",
      "type": "function"
    },
    {
      "inputs": [],
      "name": "withdrawDevFees",
      "outputs": [],
      "stateMutability": "nonpayable",
      "type": "function"
    }
  ],
  "bytecode": "0x60806040523480156200001157600080fd5b5060405162002c0238038062002c0283398101604081905262000034916200011c565b33806200005b57604051631e4fbdf760e01b81526000600482015260240160405180910390fd5b6200006681620000af565b506001808055600280546001600160a01b039485166001600160a01b03199182161790915560038054939094169216919091179091556004819055600555600060085562000154565b600080546001600160a01b038381166001600160a01b0319831681178455604051919092169283917f8be0079c531659141344cd1fd0a4f28419497f9722a3daafe3b4186f6b6457e09190a35050565b80516001600160a01b03811681146200011757600080fd5b919050565b600080604083850312156200013057600080fd5b6200013b83620000ff565b91506200014b60208401620000ff565b90509250929050565b612a9e80620001646000396000f3fe608060405234801561001057600080fd5b50600436106102485760003560e01c8063782a51ae1161013b578063bab75629116100b8578063c08f53d31161007c578063c08f53d3146105c2578063cf260baf14610600578063d5a962e414610613578063d709815414610633578063f2fde38b1461064657600080fd5b8063bab756291461057e578063bb0f062114610591578063bca78fab14610599578063be92d86814610591578063beb26dc2146105a257600080fd5b80638da5cb5b116100ff5780638da5cb5b1461053f5780638ea5220f146105505780639f92f4b614610563578063a051e53d14610483578063a2d9890b1461056b57600080fd5b8063782a51ae146104f55780637cdd2093146105085780637f368b9b146105105780638a3748ae146105195780638beee7b41461052c57600080fd5b80632b4c45c2116101c957806354f06b181161018d57806354f06b18146104705780635e6a645e146104835780636031a52f1461048b57806369894cf714610494578063715018a6146104ed57600080fd5b80632b4c45c2146103b157806334701db8146103c4578063376c2bbe146103cd5780633b8d5b86146103e057806350b44712146103e857600080fd5b80630da590d4116102105780630da590d41461035757806311eac855146103615780631a95f15f146103745780631f53ac021461037e57806324c141601461039157600080fd5b80630266f0441461024d57806303b8e18c146102695780630484a22f146102945780630a0d8587146102b45780630cc36c36146102c7575b600080fd5b61025660085481565b6040519081526020015b60405180910390f35b61027c610277366004612348565b610659565b6040516001600160a01b039091168152602001610260565b6102a76102a2366004612386565b610691565b60405161026091906123a8565b6102a76102c23660046123ec565b6106fd565b61031c6102d5366004612418565b6009602052600090815260409020805460028201546003830154600484015460058501546006860154600787015460089097015495969495939460ff909316939192909188565b604080519889526020890197909752958701949094529115156060860152608085015260a084015260c083015260e082015261010001610260565b61035f610772565b005b60025461027c906001600160a01b031681565b610256620f424081565b61035f61038c366004612386565b6108ec565b6103a461039f366004612418565b610961565b60405161026091906124b9565b6102566103bf366004612418565b610ae9565b61025660065481565b6102566103db366004612348565b610ea5565b600854610256565b6104396103f6366004612418565b600a6020526000908152604090208054600182015460038301546004840154600585015460069095015493946001600160a01b0390931693919260ff9091169186565b604080519687526001600160a01b0390951660208701529385019290925215156060840152608083015260a082015260c001610260565b61027c61047e366004612348565b610ed6565b610256600581565b61025660055481565b6104cd6104a2366004612418565b6000908152600960205260409020600581015460068201546007830154600890930154919390929190565b604080519485526020850193909352918301526060820152608001610260565b61035f610ef2565b61027c610503366004612348565b610f04565b610256600481565b61025660075481565b61027c610527366004612348565b610f20565b61025661053a366004612528565b610f3c565b6000546001600160a01b031661027c565b60035461027c906001600160a01b031681565b610256604681565b61035f610579366004612699565b610f7a565b61035f61058c366004612699565b611354565b610256600a81565b61025660045481565b6102566105b0366004612418565b600e6020526000908152604090205481565b6105f06105d03660046123ec565b601360209081526000928352604080842090915290825290205460ff1681565b6040519015158152602001610260565b61025661060e3660046126de565b61194f565b610626610621366004612418565b61196b565b6040516102609190612708565b61035f610641366004612418565b611b10565b61035f610654366004612386565b611f19565b6011602052816000526040600020818154811061067557600080fd5b6000918252602090912001546001600160a01b03169150829050565b6001600160a01b0381166000908152600c60209081526040918290208054835181840281018401909452808452606093928301828280156106f157602002820191906000526020600020905b8154815260200190600101908083116106dd575b50505050509050919050565b6000828152600d602090815260408083206001600160a01b038516845282529182902080548351818402810184019094528084526060939283018282801561076457602002820191906000526020600020905b815481526020019060010190808311610750575b505050505090505b92915050565b61077a611f54565b610782611f81565b600754806107d75760405162461bcd60e51b815260206004820152601e60248201527f4e6f2068617920636f6d6973696f6e657320706172612072657469726172000060448201526064015b60405180910390fd5b600060075560025460035460405163a9059cbb60e01b81526001600160a01b0391821660048201526024810184905291169063a9059cbb906044016020604051808303816000875af1158015610831573d6000803e3d6000fd5b505050506040513d601f19601f820116820180604052508101906108559190612791565b6108ad5760405162461bcd60e51b8152602060048201526024808201527f46616c6c6f206c61207472616e73666572656e63696120646520636f6d6973696044820152636f6e657360e01b60648201526084016107ce565b6040518181527f5ee59e571657de6134a3216f04d5e881a8fc74ce6ad9eee2a9b26243270dbf889060200160405180910390a1506108ea60018055565b565b6108f4611f54565b6001600160a01b03811661093f5760405162461bcd60e51b8152602060048201526012602482015271446972656363696f6e20696e76616c69646160701b60448201526064016107ce565b600380546001600160a01b0319166001600160a01b0392909216919091179055565b6109ac6040518060e001604052806000815260200160006001600160a01b03168152602001606081526020016000815260200160001515815260200160008152602001600081525090565b6000828152600a60209081526040808320815160e0810183528154815260018201546001600160a01b031681850152600282018054845181870281018701865281815292969395948701949293919290919084015b82821015610aad578382906000526020600020018054610a20906127b3565b80601f0160208091040260200160405190810160405280929190818152602001828054610a4c906127b3565b8015610a995780601f10610a6e57610100808354040283529160200191610a99565b820191906000526020600020905b815481529060010190602001808311610a7c57829003601f168201915b505050505081526020019060010190610a01565b5050509082525060038201546020820152600482015460ff16151560408201526005820154606082015260069091015460809091015292915050565b6000818152600a602052604081208054610b385760405162461bcd60e51b815260206004820152601060248201526f5469636b6574206e6f2065786973746560801b60448201526064016107ce565b600381015460009081526009602052604090206004015460ff16610b995760405162461bcd60e51b8152602060048201526018602482015277536f7274656f2061756e206e6f20636f6d706c657461646f60401b60448201526064016107ce565b60006009600083600301548152602001908152602001600020600101805480602002602001604051908101604052809291908181526020016000905b82821015610c81578382906000526020600020018054610bf4906127b3565b80601f0160208091040260200160405190810160405280929190818152602001828054610c20906127b3565b8015610c6d5780601f10610c4257610100808354040283529160200191610c6d565b820191906000526020600020905b815481529060010190602001808311610c5057829003601f168201915b505050505081526020019060010190610bd5565b5050505090506000610d6683600201805480602002602001604051908101604052809291908181526020016000905b82821015610d5c578382906000526020600020018054610ccf906127b3565b80601f0160208091040260200160405190810160405280929190818152602001828054610cfb906127b3565b8015610d485780601f10610d1d57610100808354040283529160200191610d48565b820191906000526020600020905b815481529060010190602001808311610d2b57829003601f168201915b505050505081526020019060010190610cb0565b5050505083611fab565b90506000610e4784600201805480602002602001604051908101604052809291908181526020016000905b82821015610e3d578382906000526020600020018054610db0906127b3565b80601f0160208091040260200160405190810160405280929190818152602001828054610ddc906127b3565b8015610e295780601f10610dfe57610100808354040283529160200191610e29565b820191906000526020600020905b815481529060010190602001808311610e0c57829003601f168201915b505050505081526020019060010190610d91565b5050505084612084565b905081600403610e5d5750600195945050505050565b80600403610e715750600295945050505050565b81600303610e855750600395945050505050565b80600303610e995750600495945050505050565b50600095945050505050565b600b6020528160005260406000208181548110610ec157600080fd5b90600052602060002001600091509150505481565b6010602052816000526040600020818154811061067557600080fd5b610efa611f54565b6108ea600061223b565b6012602052816000526040600020818154811061067557600080fd5b600f602052816000526040600020818154811061067557600080fd5b600d6020528260005260406000206020528160005260406000208181548110610f6457600080fd5b9060005260206000200160009250925050505481565b610f82611f81565b6004825114610fe15760405162461bcd60e51b815260206004820152602560248201527f446562652073656c656363696f6e6172206578616374616d656e7465203420656044820152646d6f6a697360d81b60648201526084016107ce565b600081116110205760405162461bcd60e51b815260206004820152600c60248201526b46494420696e76616c69646f60a01b60448201526064016107ce565b6002546040516323b872dd60e01b8152336004820152306024820152620f424060448201526000916001600160a01b0316906323b872dd906064016020604051808303816000875af115801561107a573d6000803e3d6000fd5b505050506040513d601f19601f8201168201806040525081019061109e9190612791565b9050806110ed5760405162461bcd60e51b815260206004820152601e60248201527f46616c6c6f206c61207472616e73666572656e6369612064652055534443000060448201526064016107ce565b60058054600091826110fe83612803565b909155506040805160e08101825282815233602080830191825282840189815260045460608501526000608085018190524260a086015260c085018a9052868152600a8352949094208351815591516001830180546001600160a01b0319166001600160a01b03909216919091179055925180519495509193909261118a92600285019291019061228b565b506060820151600382015560808201516004808301805460ff19169215159290921790915560a083015160058084019190915560c09093015160069092019190915580546000908152600b602090815260408083208054600181810183559185528385200187905533808552600c8452828520805480840182559086528486200188905594548452600d8352818420948452938252822080549384018155825281209091018390559060649061124390620f424061281c565b61124d9190612833565b905060006064611261600a620f424061281c565b61126b9190612833565b905060008161127d84620f4240612855565b6112879190612855565b905080600e6000600454815260200190815260200160002060008282546112ae9190612868565b9250508190555082600760008282546112c79190612868565b9250508190555081600860008282546112e09190612868565b9091555050600680549060006112f583612803565b9190505550336001600160a01b0316847f8f30b489b7eb0548883c9fade87751e457ad778e15262c1e54f2038d676501bb888a60045460405161133a939291906128f5565b60405180910390a3505050505061135060018055565b5050565b61135c611f54565b60048251146113bf5760405162461bcd60e51b815260206004820152602960248201527f44656265206861626572206578616374616d656e7465203420656d6f6a69732060448201526867616e61646f72657360b81b60648201526084016107ce565b6004546000818152600e6020908152604080832054600b83528184208054835181860281018601909452808452919493849384938493849390919083018282801561142957602002820191906000526020600020905b815481526020019060010190808311611415575b5050505050905060005b81518110156117b65760008282815181106114505761145061291e565b602002602001015190506000600a60008381526020019081526020016000209050600061155082600201805480602002602001604051908101604052809291908181526020016000905b828210156115465783829060005260206000200180546114b9906127b3565b80601f01602080910402602001604051908101604052809291908181526020018280546114e5906127b3565b80156115325780601f1061150757610100808354040283529160200191611532565b820191906000526020600020905b81548152906001019060200180831161151557829003601f168201915b50505050508152602001906001019061149a565b505050508e611fab565b9050600061163183600201805480602002602001604051908101604052809291908181526020016000905b8282101561162757838290600052602060002001805461159a906127b3565b80601f01602080910402602001604051908101604052809291908181526020018280546115c6906127b3565b80156116135780601f106115e857610100808354040283529160200191611613565b820191906000526020600020905b8154815290600101906020018083116115f657829003601f168201915b50505050508152602001906001019061157b565b505050508f612084565b90508160040361168f5760008c8152600f60209081526040822060018087015482549182018355918452919092200180546001600160a01b0319166001600160a01b039092169190911790558961168781612803565b9a505061179f565b806004036116eb5760008c8152601060209081526040822060018087015482549182018355918452919092200180546001600160a01b0319166001600160a01b03909216919091179055886116e381612803565b99505061179f565b816003036117475760008c8152601160209081526040822060018087015482549182018355918452919092200180546001600160a01b0319166001600160a01b039092169190911790558761173f81612803565b98505061179f565b8060030361179f5760008c8152601260209081526040822060018087015482549182018355918452919092200180546001600160a01b0319166001600160a01b039092169190911790558661179b81612803565b9750505b5050505080806117ae90612803565b915050611433565b506040518061012001604052808881526020018a8152602001878152602001428152602001600115158152602001868152602001858152602001848152602001838152506009600089815260200190815260200160002060008201518160000155602082015181600101908051906020019061183392919061228b565b50604082015160028201556060820151600382015560808201516004808301805460ff19169215159290921790915560a0830151600583015560c0830151600683015560e0830151600783015561010090920151600890910155805490600061189b83612803565b91905055506000851180156118b257506000600854115b15611908576008546004546000908152600e602090815260408083209390935591519081527f0de3badf77c9ace4411e7fa20ed2e5e76927d886d5d0fbbfc49c7a12b6e47bdc910160405180910390a160006008555b867fbda39ed4dc5bbef986f196e14b57c8077120a47b4f195d52a6edb54e730d617a8a884260405161193c93929190612934565b60405180910390a2505050505050505050565b600c6020528160005260406000208181548110610ec157600080fd5b6119bc60405180610120016040528060008152602001606081526020016000815260200160008152602001600015158152602001600081526020016000815260200160008152602001600081525090565b60096000838152602001908152602001600020604051806101200160405290816000820154815260200160018201805480602002602001604051908101604052809291908181526020016000905b82821015611ab6578382906000526020600020018054611a29906127b3565b80601f0160208091040260200160405190810160405280929190818152602001828054611a55906127b3565b8015611aa25780601f10611a7757610100808354040283529160200191611aa2565b820191906000526020600020905b815481529060010190602001808311611a8557829003601f168201915b505050505081526020019060010190611a0a565b505050908252506002820154602082015260038201546040820152600482015460ff161515606082015260058201546080820152600682015460a0820152600782015460c082015260089091015460e09091015292915050565b611b18611f81565b6000818152600a6020526040902060018101546001600160a01b03163314611b825760405162461bcd60e51b815260206004820152601b60248201527f4e6f206572657320656c206475656e6f2064656c207469636b6574000000000060448201526064016107ce565b600481015460ff1615611bcd5760405162461bcd60e51b81526020600482015260136024820152725072656d696f207961207265636c616d61646f60681b60448201526064016107ce565b600381015460009081526009602052604090206004015460ff16611c2e5760405162461bcd60e51b8152602060048201526018602482015277536f7274656f2061756e206e6f20636f6d706c657461646f60401b60448201526064016107ce565b6003810154600090815260136020908152604080832033845290915290205460ff1615611cae5760405162461bcd60e51b815260206004820152602860248201527f5961207265636c616d6173746520756e207072656d696f2070617261206573746044820152676520736f7274656f60c01b60648201526084016107ce565b6000611cb983610ae9565b905060008111611cff5760405162461bcd60e51b81526020600482015260116024820152702a34b1b5b2ba1037379033b0b730b237b960791b60448201526064016107ce565b60038201546000908152600960205260408120600281015490600184148015611d2c575060008160050154115b15611d5e5760058101546064611d4360468561281c565b611d4d9190612833565b611d579190612833565b9250611dc3565b836002148015611d72575060008160060154115b15611d895760068101546064611d43600a8561281c565b836003148015611d9d575060008160070154115b15611db45760078101546064611d4360058561281c565b83600403611dc357620f424092505b60048581018054600160ff19918216811790925560038801546000908152601360209081526040808320338085529252918290208054909316909317909155600254905163a9059cbb60e01b815292830191909152602482018590526001600160a01b03169063a9059cbb906044016020604051808303816000875af1158015611e51573d6000803e3d6000fd5b505050506040513d601f19601f82011682018060405250810190611e759190612791565b611ecb5760405162461bcd60e51b815260206004820152602160248201527f46616c6c6f206c61207472616e73666572656e6369612064656c207072656d696044820152606f60f81b60648201526084016107ce565b6040805184815260208101869052339188917f64da964e036dd66a7be792791f60a47ec5378950b9d12795de3f453aa3940eb0910160405180910390a35050505050611f1660018055565b50565b611f21611f54565b6001600160a01b038116611f4b57604051631e4fbdf760e01b8152600060048201526024016107ce565b611f168161223b565b6000546001600160a01b031633146108ea5760405163118cdaa760e01b81523360048201526024016107ce565b600260015403611fa457604051633ee5aeb560e01b815260040160405180910390fd5b6002600155565b6000815183511461200a5760405162461bcd60e51b8152602060048201526024808201527f41727261797320646562656e2074656e6572206c61206d69736d61206c6f6e676044820152631a5d1d5960e21b60648201526084016107ce565b60005b835181101561207d578281815181106120285761202861291e565b6020026020010151805190602001208482815181106120495761204961291e565b6020026020010151805190602001200361206b578161206781612803565b9250505b8061207581612803565b91505061200d565b5092915050565b600080835167ffffffffffffffff8111156120a1576120a161255d565b6040519080825280602002602001820160405280156120ca578160200160208202803683370190505b5090506000835167ffffffffffffffff8111156120e9576120e961255d565b604051908082528060200260200182016040528015612112578160200160208202803683370190505b50905060005b8551811015612232578281815181106121335761213361291e565b60200260200101516122205760005b855181101561221e5782818151811061215d5761215d61291e565b602002602001015161220c5785818151811061217b5761217b61291e565b60200260200101518051906020012087838151811061219c5761219c61291e565b6020026020010151805190602001200361220c57846121ba81612803565b95505060018483815181106121d1576121d161291e565b60200260200101901515908115158152505060018382815181106121f7576121f761291e565b9115156020928302919091019091015261221e565b8061221681612803565b915050612142565b505b8061222a81612803565b915050612118565b50505092915050565b600080546001600160a01b038381166001600160a01b0319831681178455604051919092169283917f8be0079c531659141344cd1fd0a4f28419497f9722a3daafe3b4186f6b6457e09190a35050565b8280548282559060005260206000209081019282156122d1579160200282015b828111156122d157825182906122c190826129a8565b50916020019190600101906122ab565b506122dd9291506122e1565b5090565b808211156122dd5760006122f582826122fe565b506001016122e1565b50805461230a906127b3565b6000825580601f1061231a575050565b601f016020900490600052602060002090810190611f1691905b808211156122dd5760008155600101612334565b6000806040838503121561235b57600080fd5b50508035926020909101359150565b80356001600160a01b038116811461238157600080fd5b919050565b60006020828403121561239857600080fd5b6123a18261236a565b9392505050565b6020808252825182820181905260009190848201906040850190845b818110156123e0578351835292840192918401916001016123c4565b50909695505050505050565b600080604083850312156123ff57600080fd5b8235915061240f6020840161236a565b90509250929050565b60006020828403121561242a57600080fd5b5035919050565b600082825180855260208086019550808260051b8401018186016000805b858110156124ab57601f1980888603018b5283518051808752845b81811015612485578281018901518882018a0152880161246a565b5086810188018590529b87019b601f01909116909401850193509184019160010161244f565b509198975050505050505050565b602081528151602082015260018060a01b0360208301511660408201526000604083015160e060608401526124f2610100840182612431565b9050606084015160808401526080840151151560a084015260a084015160c084015260c084015160e08401528091505092915050565b60008060006060848603121561253d57600080fd5b8335925061254d6020850161236a565b9150604084013590509250925092565b634e487b7160e01b600052604160045260246000fd5b604051601f8201601f1916810167ffffffffffffffff8111828210171561259c5761259c61255d565b604052919050565b6000601f83818401126125b657600080fd5b8235602067ffffffffffffffff808311156125d3576125d361255d565b8260051b6125e2838201612573565b93845286810183019383810190898611156125fc57600080fd5b84890192505b8583101561268c5782358481111561261a5760008081fd5b8901603f81018b1361262c5760008081fd5b858101356040868211156126425761264261255d565b612653828b01601f19168901612573565b8281528d828486010111156126685760008081fd5b828285018a8301376000928101890192909252508352509184019190840190612602565b9998505050505050505050565b600080604083850312156126ac57600080fd5b823567ffffffffffffffff8111156126c357600080fd5b6126cf858286016125a4565b95602094909401359450505050565b600080604083850312156126f157600080fd5b6126fa8361236a565b946020939093013593505050565b602081528151602082015260006020830151610120806040850152612731610140850183612431565b91506040850151606085015260608501516080850152608085015161275a60a086018215159052565b5060a085015160c085015260c085015160e085015260e0850151610100818187015280870151838701525050508091505092915050565b6000602082840312156127a357600080fd5b815180151581146123a157600080fd5b600181811c908216806127c757607f821691505b6020821081036127e757634e487b7160e01b600052602260045260246000fd5b50919050565b634e487b7160e01b600052601160045260246000fd5b600060018201612815576128156127ed565b5060010190565b808202811582820484141761076c5761076c6127ed565b60008261285057634e487b7160e01b600052601260045260246000fd5b500490565b8181038181111561076c5761076c6127ed565b8082018082111561076c5761076c6127ed565b600082825180855260208086019550808260051b8401018186016000805b858110156124ab57601f1980888603018b5283518051808752845b818110156128cf578281018901518882018a015288016128b4565b5086810188018590529b87019b601f019091169094018501935091840191600101612899565b83815260606020820152600061290e606083018561287b565b9050826040830152949350505050565b634e487b7160e01b600052603260045260246000fd5b606081526000612947606083018661287b565b60208301949094525060400152919050565b601f8211156129a357600081815260208120601f850160051c810160208610156129805750805b601f850160051c820191505b8181101561299f5782815560010161298c565b5050505b505050565b815167ffffffffffffffff8111156129c2576129c261255d565b6129d6816129d084546127b3565b84612959565b602080601f831160018114612a0b57600084156129f35750858301515b600019600386901b1c1916600185901b17855561299f565b600085815260208120601f198616915b82811015612a3a57888601518255948401946001909101908401612a1b565b5085821015612a585787850151600019600388901b60f8161c191681555b5050505050600190811b0190555056fea26469706673582212204a8e57ddbbc5b257776e9f741ce10ac2b7223b4276e53dc15d88e103f9271fd064736f6c63430008140033",
  "linkReferences": {},
  "deployedLinkReferences": {}
}